:1020000030320020814000007D4000007D40000013
:1020100000000000000000000000000000000000C0
:10202000000000000000000000000000E56E00005D
:102030000000000000000000A16F0000E56F00003C
:102040007D4000007D4000007D4000002524000010
:102050007D4000007D4000007D400000D54700002D
:102060007D4000007D4000007D4000007D4000007C
:102070007D400000000000000000000075700000BE
:10208000000000007D4000007D4000007D40000019
:102090007D4000007D4000007D4000007D4000004C
:1020A0007D4000007D4000007D4000007D4000003C
:1020B0007D4000007D4000007D40000010B5064CD2
:1020C0002378002B07D1054B002B02D0044800E0F9
:1020D00000BF0123237010BD40000020000000005D
:1020E00064AF0000044B10B5002B03D00349044833
:1020F00000E000BF10BDC04600000000440000200A
:1021000064AF000070B500260C4D0D4C641BA4108C
:10211000A64209D1002608F015FF0A4D0A4C641B9F
:10212000A410A64205D170BDB300EB589847013604
:10213000EEE7B300EB5898470136F2E750AF0000E6
:1021400050AF000050AF000054AF000003008218F1
:10215000934200D1704719700133F9E710B502F0CE
:1021600035F810BD10B583000248C018C07802F0E1
:1021700003F810BD5CA3000010B50022032100206D
:1021800002F033FC01220321002002F04BFC00226C
:102190000421002002F029FC01220421002002F089
:1021A00041FC00220621002002F01FFC0122062132
:1021B000002002F037FC032002F0F0FD0021002097
:1021C00001F09EFF012001F0D7FF10BD70B5431E46
:1021D000DBB200283AD00020C021C905802292023B
:1021E0008226F605042503E0013BDBB2FF2B2ED04F
:1021F000400080B24A61C046C046C046C046C046A4
:10220000C046C046C046C046C046C046C046C0469E
:10221000C046C046C046C046C0468A61C046C046A9
:10222000C046C046C046C046C046C046C046C0467E
:10223000C046C046C046C046C046C046C046C0466E
:10224000346A2542D0D0013080B2CDE7002070BD85
:10225000F0B585B0019002AB9E1D0023338003AD25
:102260002B80C027FF058024E4007C61C046C04667
:10227000C046C046C046C046C046C046C046C0462E
:10228000C046C046C046C046C046C046C046C0461E
:102290000C20FFF79BFF30800620FFF797FF288078
:1022A000BC61002200213500012002E001320C2A2D
:1022B00007D02B889BB2D3401842F7D00131C9B266
:1022C000F4E7002203AD012002E00132062A07D024
:1022D0002B889BB2D3401842F7D00131C9B2F4E742
:1022E000CB0711D403AB1B88323213400020202BC4
:1022F0000BD102ABDA8806494A40DA8006331B88E4
:10230000019A1380013000E0002005B0F0BDC04606
:10231000FF0F000010B582B00124009402230922AF
:102320000A21002002F0F7FB009402230922112168
:10233000002002F0F0FB0023009301330922022168
:10234000002002F0E8FB01220221002002F0A6FB9F
:1023500002B010BD10B5020043011B1A980080188E
:10236000C000FF2106F030FA82B20121014802F0DC
:1023700073FC10BD0028004210B582B0002300930A
:10238000023304220B21002002F0C5FB074C084950
:10239000200002F0EDFB0020FFF7DCFF200002F040
:1023A00053FC06F0EBF902B010BDC0460028004215
:1023B000204E000010B502F0C1FA10BDF8B50600BD
:1023C0000F00151E09D000243919A019102202F09F
:1023D000C9FA4034A4B2A542F6D8F8BDF8B5060053
:1023E0000F00151E09D000243919A019012202F08E
:1023F000B9FA0434A4B2A542F6D8F8BD10B503006A
:102400000800190007F088FF10BD8223DB051B6A56
:102410009805C00F1A0600D502309B0601D504307E
:10242000C0B2704700B585B0002303930A4BA822C1
:1024300092005A61094B186803AB009300230122F4
:10244000012104F099FC039B002B03D0044B802254
:1024500052051A6005B000BD00280040CC020020E3
:1024600004ED00E010B582B00024009401230022A6
:102470000921002002F04FFB0094012300220721D4
:10248000002002F048FB00940123002205210020D7
:1024900002F041FB01220921002002F0FFFA012293
:1024A0000721002002F0FAFA01220521002002F0A3
:1024B000F5FA234B1B789B0737D4214B01221A7066
:1024C00019004B681A42FCD11D4B5A781B210A4354
:1024D0005A701969A8229200114319619969114330
:1024E0009961196B0A431A635A6B5A63D969154A81
:1024F0000A43DA611A6A30210A431A621A782E39BD
:102500000A431A70190002224B681A42FCD10E4B82
:10251000082280215A50BFF34F8FBFF36F8F0131D4
:10252000FF315A501A6002B010BD054A13780221DB
:102530008B431370110002224B681A42FCD1C3E78F
:10254000002800400000303000E100E010B502F04B
:10255000FFF802F049FA02F0A7F902F073F910BD92
:1025600010B507480749091A02F0ACF902F0C0F9A2
:102570000028FBD002F0B2F9034B187010BDC04622
:10258000400000202C2E00205C000020014B187819
:102590007047C0465C00002010B502F0B1F910BDD4
:1025A00010B502F0BDF910BD10B502F0A1F910BDD3
:1025B00010B5052002F0FEFB02F01AFC10BD10B5AC
:1025C00002F024FC10BD10B502F02CFC10BD10B5BB
:1025D00002F082FB10BD10B502F0BCFB10BD00B5CF
:1025E00083B000230093023309221C21002002F053
:1025F00092FA03B000BD10B51C21002002F082FA4F
:1026000010BD10B502F03AFB10BD000010B504007B
:1026100001F0E6F9002813D00438C0B2012800D830
:1026200010BD01F001FA012807D0144B1B5D062BE9
:10263000F6D89B00124AD3589F46124B1B5DF6E713
:10264000E020000206F038F8EAE70F4806F034F818
:10265000E6E70E4806F030F8E2E70D4806F02CF801
:10266000DEE70C4806F028F8DAE70B4806F024F815
:10267000D6E70A4806F020F8D2E7C0468CA300004F
:1026800068A3000084A3000013E4000043F00000EE
:102690000DE1000049F0000025E1000031E40000F8
:1026A00010B500F0DDFCFFF7B1FF10BD10B506F06E
:1026B00057F810BD10B5FFF74DFE10BD10B582B034
:1026C000FFF75AFE01246442230001AA21000020E2
:1026D00004F0B4FA0128F7D1FFF7E2FFF4E70000B5
:1026E000074B00221A80074B1A70074B14221A70EE
:1026F0000278064B1A704278054B1A707047C04634
:10270000620000205D0000205E0000205F000020CD
:102710006000002010B506F029FF011C0A4806F0F1
:1027200009FD0A4906F018FA06F0B2FE03B2CD2000
:102730001A00323204DB181CCD2B00DDCD2000B294
:102740003230C0B210BDC0469949E9443D0A3B4110
:10275000CF235843802252033033904200D2030BE0
:10276000D8B2704710B58003C822D204FF2390422C
:1027700004D2C821C90206F027F80300D8B210BD60
:1027800003011B1A1801C31ADA00DB175B05580D89
:102790008018C01280B2704710B506F099FE07F09D
:1027A000BFFC064A064B07F019FA0022FD239B05E1
:1027B00007F014FA07F0FCFC10BDC046182D445475
:1027C000FB21094010B503051B0D020502D5F022BF
:1027D0001202134318B2C002E121C90006F07EF8CC
:1027E00000B210BD10B507F09BFC064A064B06F080
:1027F000FFFE0022054B07F0F1F907F05BFC00B289
:1028000010BDC046182D4454FB2109400000A040D3
:1028100070B50D00160001F0B9FB041CFE218905FE
:1028200006F06EF900280ED0FE24A405EB17E81878
:10283000584080B206F04CFE211C06F055FB06F015
:1028400027FE00B270BD0949201C06F045F900289A
:1028500005D0064CF317F018584080B2EAE7002183
:10286000201C06F04DF90028E0D1F3E7000080BFFE
:10287000F8B504000D0016000020002C11D0200037
:1028800006F026FE071C002C0CDDEB17ED185D4052
:10289000A8B206F01DFE011C381C06F05DF901F01F
:1028A00049FBF8BDF317F018584080B2F1E700007B
:1028B00010B5124B1868142106F00CF8002900D04E
:1028C00010BD0E4C0E31200000F096F8E0810C4B4C
:1028D0001B780C4A9C1824011B070BD010220749B7
:1028E0002000FFF77BFD06490A7801323F231340A1
:1028F0000B70E5E72000FFF75DFDEFE768000020C3
:10290000640000204000040010B5034A136801333E
:102910001360FFF7CDFF10BD68000020014B186861
:102920007047C04668000020014BD8887047C046F9
:1029300068000020014B98887047C046680000205E
:10294000F0B5CE46474680B585B00023254A1370C2
:10295000254A13609380254D012417009146214B91
:1029600098460DE06B464A4643CB43C21B68136052
:1029700043461C700134E4B210351D4B9D4217D004
:10298000102269462800FFF739FD0E21684600F045
:1029900033F86B46DB898342ECD1009B3A68934263
:1029A000E0D86B469A88104B9B889A42E2D9D9E7C7
:1029B0000C4A11783F230B4013700B4C2000083059
:1029C0000622FF21FFF7C2FBA3880A4A934202D0E6
:1029D0000133054A9380FFF76BFF05B0C0BCB946D1
:1029E000B046F0BD640000206800002000044000F4
:1029F00000084000FFFF000030B50200002911D0A0
:102A000003000948094D5418A4B2020292B2000A08
:102A1000197848404000405B504001339AB29442DC
:102A2000F3D130BD0048FCE7FFFF000094A3000095
:102A300010B503001F2800D9A3E0C200121A9200AB
:102A400057488218D078062800D99CE08200554863
:102A5000825897460C78DA00D21A920050488218B1
:102A6000127BA24208D3DA00D21A92008218127A9C
:102A70000120A24200D885E0D800C31A9B00484834
:102A8000C3181B7C9C4200D17FE00B70002079E0D2
:102A900000240C57DA00D21A920041488218127BA7
:102AA00052B2A24208DBDA00D21A92008218127ADD
:102AB00052B20120A24265DDD800C31A9B003848FB
:102AC000C3181B7C5BB29C4261D00B70002059E0A4
:102AD0000C88DA00D21A9200314882189289A242F8
:102AE00007D3DA00D21A9200821812890120A2427A
:102AF00048D9D800C31A9B002948C3181B8A9C4296
:102B000047D00B8000203DE000228C5EDA00D21A14
:102B10009200234882180C20125EA24209DBDA00E0
:102B2000D21A92001E4882180820125E0120A2428A
:102B300028DDD800C31A9B001948C31810229B5ED9
:102B40009C4228D00B8000201CE00C68DA00D21ACE
:102B5000920013488218D268944207D8DA00D21A39
:102B6000920082189268012094420BD2D800C31AB6
:102B70009B000B48C3181B699C420ED00B600020C1
:102B800000E0002010BD0020FCE70120FAE7012052
:102B9000F8E70120F6E70120F4E70120F2E7C0465C
:102BA000B0A5000094A5000010B5044CFE21200043
:102BB000FFF722FFFE23E05210BDC046A000002018
:102BC00030B583B06B460022DA80002811D001288E
:102BD0000DD10E4C6B469D1D022229002000FE30B7
:102BE000FFF70CFCFFF7E0FF2B88834204D103B012
:102BF00030BD8024E403EDE72000FFF7DBFB8022FB
:102C0000520003492000FFF7D9FBF0E70001400024
:102C1000A000002010B50020FFF7D2FF0120FFF731
:102C2000CFFF10BD10B5054C2000FFF7C3FB80227D
:102C3000520003492000FFF7C1FB10BD0002400015
:102C4000A00100200300FF280AD980229200002062
:102C5000934208D20448C318013BFF3B187802E0B6
:102C6000C3B2024AD05C7047A0010020A00000203F
:102C7000F8B5FF2821D8FD281ED80700144B195499
:102C8000144B002403E001341C33202C10D019789D
:102C90008142F8D85A788E18B742F4DAE3001D1B47
:102CA000AD000D4B5D196868094BC91807F034FB7E
:102CB000FFF77AFFFFF7AEFFF8BD80239B00984235
:102CC000FAD2064B18180138FF380170F4E7C046F5
:102CD000A0000020B1A50000B0A50000A0010020C8
:102CE000F0B5C64600B582B0124D0024124B98468E
:102CF0006E784644AF783A00310001A807F00CFB2B
:102D000001A92000FFF794FE3A0001A9686807F0C6
:102D100003FB3A0001A9300007F0FEFA0134E4B2E7
:102D20001C35202CE4D1FFF775FF02B080BCB846FB
:102D3000F0BDC046B0A50000A000002070B50100A5
:102D40000D4A00231C001068884204D001331C3255
:102D5000202BF7D10FE0094DDB001A1B9200AA18B7
:102D60005078074A80181B1B9B00EB189A7807F0D5
:102D7000D3FAFFF74FFF70BDB4A50000B0A5000067
:102D8000A000002070B5084CE0239B00E618074D1A
:102D900060784019A278616807F0BEFA1C34B4422A
:102DA000F6D1FFF737FF70BDB0A50000A0000020EE
:102DB000074A00231178814207D00133DBB21C326D
:102DC000202BF7D10120404200E058B27047C046A6
:102DD000B0A5000010B50C00FFF7EAFF00280DDBDE
:102DE000C3001B1A9B000648C018230016C816C350
:102DF00016C816C302681A60012010BD0020FCE747
:102E0000B0A5000010B5094A0023190014688442D7
:102E100006D001331C32202BF7D10120404204E0C0
:102E2000DB00591A8900024BC85610BDB4A500003A
:102E3000B0A5000070B582B00D00FFF7B9FF041E09
:102E400010DBC3001B1A9B000F4AD3189E78320078
:102E5000290001A807F060FAE0B201A9FFF7E8FD38
:102E6000002801D102B070BDE000041BA400064898
:102E700004196468320001A9200007F04DFA20000F
:102E8000FFF75CFFEEE7C046B0A50000F0B5C64610
:102E900000B580225200FF210F48FFF757F90F4C71
:102EA000E0239B009846A0440B4F25001035A678E0
:102EB00032002900606807F02FFA6078C0193200EC
:102EC000290007F029FA1C344445EED1FFF7A2FE91
:102ED00080BCB846F0BDC046A0000020B0A50000F0
:102EE000F0B5C64600B580277F00264C80203A000A
:102EF0002100C003FFF782FAFE26A35B9846FE215D
:102F00002000FFF779FD05003A0021001E48FFF779
:102F100075FAA65BFE212000FFF76EFDA84525D0BF
:102F2000864213D18022520016491748FFF766FAED
:102F3000FFF7D6FE0020FFF743FE80225200134920
:102F40001348FFF75BFA80BCB846F0BDFFF79EFF61
:102F5000F3E78022802052000A49C003FFF74EFAAF
:102F6000FFF7BEFE0120FFF72BFEE6E78642F0D119
:102F70008022802052000349C003FFF73FFAFFF789
:102F8000AFFEDAE7A000002000014000A001002011
:102F90000002400064235843044B18800023044A75
:102FA0001370044A1370044A13607047AA02002089
:102FB000A0020020A8020020A4020020014B1878E3
:102FC0007047C046A0020020014B01221A707047D2
:102FD000A80200200E4B1B78002B0DD00D4B186063
:102FE0000B4B00221A700C4B1B880020002B00D1C9
:102FF00000200A4B18707047074B1A88002AF7D038
:10300000044B1B68C31A01209342F2D8F0E7C04674
:10301000A8020020A4020020AA020020A002002092
:10302000074B1878002803D1064B1B78072B05D0D7
:10303000C043044B1B780343072018407047C04629
:10304000AC020020AD020020034B00221A70034B9B
:1030500007321A707047C046AC020020AD02002053
:1030600010B5FFF7D2F907231840044A137803403C
:103070001370034A13780343137010BDAD02002090
:10308000AC02002010B5044B07221A70034B00223B
:103090001A70FFF7E7F910BDAD020020AC02002066
:1030A0000023038081707047F8B506000C000025EE
:1030B000002912D087780088FE30FF2105F084FBBC
:1030C00078430500FF20C01B44432D19ADB22800F2
:1030D0008030FF2105F078FBC4B235802000F8BDB8
:1030E00010B5040000F060FE002803D023784022D1
:1030F0001343237010BD10B50400FFF75FFF0028D5
:1031000003D0237808221343237010BD10B50400A8
:1031100000F01CFB002803D02378202213432370E7
:1031200010BD10B5040000F019FB222803D8237845
:1031300010221343237010BD10B5040000F074FE7C
:10314000002803D0237804221343237010BD10B548
:10315000040000F069FC002804D123780122134305
:10316000237010BD237801229343F9E760230B42BB
:1031700003D00378022213430370704770B5040034
:103180000D00FFF7ADFF2000FFF7B5FF2000FFF7B0
:10319000BDFF2000FFF7C5FF2000FFF7CDFF200097
:1031A000FFF7D5FF29002000FFF7E0FF70BD00000A
:1031B00010B50C0000F068FC00284ED023880122D6
:1031C0001343238000F0CAFA222803D8238804225C
:1031D00013432380002000F0E7FA002841D1FFF7D5
:1031E000D5F9002803D123884022134323802C4B98
:1031F0001A682C4B1B689A4203D023884022134341
:10320000238000F0F3FB002803D02388802213439F
:10321000238000F0C9FD002804D0228880235B00B1
:103220001343238000F0DCFB002834D12288802364
:10323000DB0013432380FFF7C1FE002804D022885F
:1032400080231B0113432380238860221A4203D06A
:103250008022D2011343238010BD2388012293438F
:10326000AFE7002000F090FA0F4B1B783233984202
:1032700002D22288D206B2D50C4A12789B1A984202
:1032800004D22388102293432380A8E723881022A6
:1032900013432380A3E72388054A1340CAE7C046A7
:1032A000B002002098AF0000C0020020C102002040
:1032B000FFFBFFFF014B18787047C046C202002099
:1032C000014B18887047C046BE0200200023024A06
:1032D0001370024A13807047C2020020BE02002011
:1032E000024A1388834313807047C046BE02002001
:1032F000830707D4430607D430231840431E984160
:10330000C0B270470320FCE70220FAE710B5024B79
:103310001878FFF7EDFF10BDC202002010B50F4A6C
:10332000138801331380FFF73FF9002805D0FA23F3
:103330005B000A4A12889A4202D8094B186810BDED
:10334000064B00221A80FFF72BF9054B1860054B3E
:10335000196880208001FFF71FF9EEE7BC0200200A
:10336000B8020020B402002010B504001A4B1B68FC
:10337000834208D9194B1B68A34212D9184B1B680A
:10338000A34222D910BD174A136801331360FFF717
:10339000BBFA114A1368FA2189008C466344136012
:1033A000E8E700F001FD00280AD10C4B1B68FA2267
:1033B000920094466344094A1360FFF71CF9DDE765
:1033C000064B1B68F533FF33F5E703F097FE044A1D
:1033D000136864331360D5E7080000200400002060
:1033E00000000020C402002010B5002802D0FF28F1
:1033F00004D010BD080000F01DFBFAE7002000F02B
:10340000CBFAF6E710B50C4C0C4B0D4A9A1822601B
:103410001A680C4B1A6000230B490B600B490B70A8
:103420000B490B800B4B1A60FFF7D9F821688020FD
:103430008001FFF7B1F810BDB402002098AF000082
:1034400000E0FFFFB0020020C4020020C202002002
:10345000BE020020B8020020F0B5C64600B5060046
:10346000FFF7D0FF7279174B1A70B279164B1A70AA
:103470003078FFF78FFD154B9846154D154F13E02B
:103480000223F15E3079FFF7AFFFFFF747FF4346B6
:10349000186029002000FFF78BFE29883800FFF70D
:1034A0006DFE2000FFF760FF0A2003F039FA03F0F9
:1034B0001FF90400FFF783F82000FFF78BFD0028B9
:1034C000DED1E2E7C0020020C1020020B0020020ED
:1034D000BE020020C202002010B58CB0FFF700FD34
:1034E000FFF72EFAFFF764F80AAB444A12781A7015
:1034F000434A12885A80434A12781A71424A127813
:103500005A71424A12789A71002401940222009260
:10351000C6323F493F4802F0E7FF01940123009380
:10352000002364223C493D4802F0DEFF07AB3C4AE1
:1035300012781A703B4A12885A803B4A12781A71E4
:103540003A4A12785A713A4A12789A71394A12886C
:103550001A8196220194032100919200364937483E
:1035600002F0C2FF364B019305230093002364222F
:103570003449354802F0B8FF02AB344A12781A7069
:10358000334A12785A70334A12789A70324A127853
:10359000DA70324A12781A71314A12785A71314A05
:1035A00012789A71304A1278DA71304A12781A72A7
:1035B0002F4A12785A722F4A12885A812E4A12883C
:1035C0009A812E4A1288DA812D4A12781A742D4A6D
:1035D00012785A742C4A12789A742C4A1278DA7437
:1035E000962201940421009152002949294802F0B1
:1035F0007BFF002003F0FAF90CB010BD8200002020
:10360000800000207E000020880000208E00002026
:1036100030A90000593400003CA9000065380000C2
:10362000790000207A0000207D0000207C0000202E
:103630008F0000209C00002048A900007D71000040
:10364000CC02002054A90000BD2600008500002007
:1036500083000020840000209900002092000020B8
:103660009100002093000020980000209700002087
:10367000960000208A0000208C0000209E00002080
:103680008700002086000020950000209400002084
:1036900060A90000D93B000000B583B0FEF756FFDB
:1036A000FEF75EFF00230193063300930023C82238
:1036B0000449054802F018FF02F0E4FF002003B0BF
:1036C00000BDC0466CA90000D9340000014B187839
:1036D0007047C046D4020020024B1878024A127884
:1036E0001A707047D6020020D402002070B5040082
:1036F000104DC8202B6858430F4B6343C018FF215F
:1037000005F062F828603230642105F05DF80B4B5B
:1037100018700B4B1B78A34201D2094B1C70084B4D
:103720001B78302B02D9074B01221A70064B1C70F4
:1037300070BDC046D00200207C150000D4020020DD
:10374000D6020020D5020020D9020020024B1878B2
:1037500000221A707047C046D5020020014B18782D
:103760007047C046DC020020054B1870054B1B78E3
:10377000834201D8002B01D1024B18707047C0461C
:10378000DC020020D7020020002803D0012804D04A
:10379000FF207047024B1878FBE7024B1878F8E7D8
:1037A000DA020020DB020020002803D001280BD021
:1037B00001207047094B1B78013BDBB20020FD2242
:1037C0009A424041C0B2F4E7054B1B78013BDBB2A3
:1037D0000020FD229A424041C0B2EAE7DA0200200E
:1037E000DB02002010B50400022823D00BD80028EB
:1037F00014D0FEF7B3FCFEF7ABFFFFF7B5FF0220D6
:10380000FEF7B0FC13E003281ED1FEF7E4FE134BD5
:1038100018700020FEF7A6FC00200AE0FEF79EFCD0
:10382000FEF7A0FFFFF762FF0120FEF79BFC0134CB
:10383000E0B210BDFEF792FCFEF76CFF084B18706B
:103840000020FEF78FFCF2E70134E0B200230322F0
:1038500082425B415B421840EBE7C046DB0200203E
:10386000DA02002010B500230A4A13700A4A1370C6
:103870000A4A13700A4A1370FEF7A9FEFEF77CFC91
:10388000044C022003F04CF82078FFF7ABFF2070C7
:10389000F7E7C046D8020020D6020020D702002059
:1038A000D5020020F0B585B004000123274A13702B
:1038B000274A13700027274B1F70274B1F70274B79
:1038C0001F704289264B1A808289264B1A80C28932
:1038D000254B1A80827C254B1A70C27C244B1A70AF
:1038E00002AD03782B7043786B708378AB70C3782C
:1038F000EB7003792B7143796B7101AE837933706F
:10390000037A7370C379B37000F058FA194B1F80B3
:10391000280000F0E5F9300000F070FA617A1648EE
:10392000FFF7BEFB002000F071FB0020FEF7C2FE97
:10393000FFF7A8FB237C6A461370637C5370402317
:1039400093706846FEF7CCFE05B0F0BDEE02002095
:10395000E4020020E5020020E8020020E702002047
:10396000EA020020EC02002000030020FB020020FD
:10397000FA020020FE020020E002002010B5002321
:10398000034A1370034A13700020FEF793FE10BD24
:10399000EE020020FC02002010B5040006280ED81C
:1039A00083000B4AD3589F46FFF7E8FF094B1C7072
:1039B000094B186800230122012103F081F910BD91
:1039C000064B00221A70F1E7044B01221A70EDE752
:1039D00078A90000EE020020CC020020E4020020C2
:1039E000014B18787047C046EE020020014B187852
:1039F0007047C046E502002010B5064B1870FEF770
:103A000059FE054B186800230122012103F058F9E3
:103A100010BDC046FC020020CC020020014B1878EB
:103A20007047C046FC020020014B18787047C04622
:103A3000E4020020084B1B881A1C1BB2834200DDE5
:103A4000021C064B1B88191C1BB210B2834200DA01
:103A5000111C034B19807047EA020020EC02002081
:103A6000FE020020014B18807047C0460003002072
:103A7000014B0020185E7047EC020020014B002033
:103A8000185E7047EA02002070B50400104B1B78E6
:103A90000020002B00D170BD0E4B00255D5F00F0B3
:103AA0004DF92D1AEB17ED185D400B4B1B789D421D
:103AB0000ADD0A4B1868241A054B1B78322058433C
:103AC000A04280414042E6E7044B1C600020E2E750
:103AD000FB020020FE020020FA0200200403002066
:103AE000F0B583B00500FEF7E1FD1F240440FFF7A9
:103AF00097FA4301E318DBB22B4A12789A421AD0A4
:103B00002A4B0020185E00F01FF90400284B1860B3
:103B1000284A0021525E5A60274B1B78012B0FD098
:103B2000062B0DD0254B186800230122012103F03C
:103B3000C7F803B0F0BD224A107803431370DFE7E3
:103B400000F032F90026002809D01B4B1B78062B09
:103B500022D03000FEF7AEFD1A4B1E70E2E71A4E7F
:103B60003100134800F044F837787278174B1A7018
:103B7000200000F025FA6B461F705C800D4B1B88FF
:103B80006A4693802900684600F054F90100104805
:103B9000FFF78AFA0600D8E70E4B1978300000F0DC
:103BA000B7F90600D5E7C046E80200200003002070
:103BB000F0020020FE020020EE020020CC020020D5
:103BC000E5020020FC020020F8020020E4020020B0
:103BD000E0020020E602002010B5FFF763FE01209E
:103BE00002F09EFE02F084FDFFF77AFFF7E7000087
:103BF00070B50D0042680368D21A304B1B78D1179C
:103C0000501848400021984203DD9918002A00DD31
:103C1000D11A2B4A1368CB1A11602A4A12784A43E8
:103C2000D0170F240440A4182411274A12785A43AD
:103C3000D30F9B185B10E418244B1B78002B1AD071
:103C4000FF2252002300FF33934226D8204A1388D4
:103C50005B1813801E4E0023F05E1E4900F05EF9D3
:103C600003003080194A10785843C217FF231340CD
:103C70001B181B12E418E343DB0F6B70E317E41807
:103C80005C40154B1B78A34200DB0024134B1B78D0
:103C9000A34200DD23002B7070BD0D4B00229B5E04
:103CA000002B05DD0029D5DACB18094A1380D1E7AE
:103CB000002BCFDA0029F7DCCCE7C0460803002050
:103CC000100300200B030020090300200A0300203A
:103CD000140300209C6300000D0300200C0300204F
:103CE00000230B4A13800B4A136002780A4B1A70A8
:103CF00042780A4B1A708278094B1A70C278094BC5
:103D00001A700279084B1A704279084B1A70704782
:103D100014030020100300200B03002009030020DF
:103D20000A030020080300200D0300200C030020DC
:103D3000014B0020185E704718030020014B002043
:103D4000185E70471A03002010B582B004006B465D
:103D5000981DFEF77DFA002807D10F4B1B780A2B20
:103D600015D801330C4A137011E00B4B00221A7066
:103D70006B4606331B88094A9918094A11801B1B98
:103D80001B051B0D054A94466344064A1380054BE8
:103D90000020185E02B010BD1603002000F8FFFFDF
:103DA000180300201A030020034B1B780A209842B6
:103DB000804140427047C0461603002010B5FEF710
:103DC000A9FA024B00221A7010BDC046160300204B
:103DD000054B1860054B064A1380064A1380064BB4
:103DE00000221A707047C0462003002010270000F0
:103DF00026030020280300201C03002010B50278B1
:103E0000064B1A704278064B1A708378642253432B
:103E1000044A13800020FFF7DBFF10BD24030020BD
:103E20001D0300202A030020014B18787047C0466C
:103E30001C030020F8B504000D0006782C4B1F78F9
:103E4000B74241D22B4B1B88002B4BD02A4A126819
:103E50008A1A9A4246D9294B294A0021525E9A422F
:103E600023D0284B00229B5E244A93420AD004218F
:103E7000625E9B1ADA179B185340234A127852004D
:103E8000934219DC0222A35E1D4A0021525E9B1A56
:103E9000DA179B1853401C4A1278520093420FDAEB
:103EA0001A4B01221A703E001CE04288144B1A8003
:103EB0008288144B1A80D4E72800FFF789FFE1E7D6
:103EC0002800FFF785FF0DE00222835E0C4A0021E7
:103ED000525E9B1ADA179B1853400B4A1278520015
:103EE000934201DC3000F8BD2800FFF771FFF9E7CD
:103EF000240300202A0300202003002010270000B4
:103F000026030020280300201D0300201C0300209E
:103F1000031C884200D90B1CD8B27047814201DAD9
:103F200008B270474B42834202DD494208B2F8E7CB
:103F300000B2F6E710B5041C42005208FF23DB056F
:103F40009A4208D393429B419B059B0DF822D201D4
:103F50009446634410E00C482040F021C90404F06A
:103F6000C3FF80235B019C466044F8231B059842F5
:103F700000D91800420B93B2200C80242402204068
:103F8000184380B210BDC04600F0FF7F70B504003A
:103F900040030A4B1840EF21C90504F0A5FF051C9A
:103FA00006008F21C90504F0B5FD002802D0FF26C8
:103FB000F6052E43E00BC007304370BD00E0FF0F55
:103FC0000A4B1B78002B0CD109490A88821A094B2D
:103FD0001B785343084A1380084B1A78034B1A7016
:103FE0000880024A1378013B137070472C030020AD
:103FF000300300202E030020320300202D03002078
:10400000014B0020185E70473203002010B50100FC
:1040100000230A4A13800A4A1380431E632B00D9E7
:104020003221084B1970FA20800004F0CDFB064BBA
:104030001870064B00221A7010BDC04632030020D3
:10404000300300202E0300202D0300202C0300202D
:104050000048704798A900000048704794A90000E4
:10406000FF2804D08A2804D8034B185C70478B20A3
:10407000FCE70020FAE7C0469CA90000FEE700002C
:1040800010B5184A184B9A4212D01A00174B9A4290
:104090000ED21A00013A144BD21A92080132920041
:1040A000002311480F49CC58C45004339342FAD12D
:1040B0000F4A104B9A420BD213000E4A013AD21A01
:1040C00003218A43191D5218002102C39342FCD1D7
:1040D000094BFF229343094A9360FEF713F8FFF759
:1040E000DBFAFEE764AF000000000020340000208F
:1040F000400000202C2E00200020000000ED00E0F9
:1041000070B5194AD46980239B022343D361174AAF
:1041100082235B004024D450154B1E7801221643A5
:104120001E709C780F2505400F2294432C439C70F1
:104130005C89042214435C815A89032001400901EF
:104140002D3082430A435A811A890A491140C022FC
:1041500052010A431A8145221A735A7807218A4369
:1041600004210A435A7070BD00080040001C004042
:1041700000440042FFE0FFFF10B50400124A13782C
:1041800002218B431370110003220B8C1342FCD1CC
:104190000D4B18891F2222401F218843104318818C
:1041A0001A7802210A431A70190003220B8C134259
:1041B000FCD1054B9A7901210A439A711A7E02219A
:1041C0000A431A7610BDC04600440042014B988C49
:1041D00080B270470044004270B584B004006A4663
:1041E000234B61CB61C21B681360A423E3585B06B9
:1041F0003AD0A423E5582D0A653B2B401B011D4AEC
:10420000D3181A68520022D400224A731A68D200C6
:10421000520D0A601A68920020D45A68920220D483
:104220005A681203120F6846825C0A738868083362
:10423000190006F071F83F20A82163582A000240B7
:1042400083431D0015436550002004B070BD01225A
:104250004A731A68D200D2080A60DBE701220A71A9
:10426000DBE702220A71DBE70A204042EDE7C046A5
:1042700058AA00005803002070B50400C423C35896
:104280009B0200D593E0C423C358DB02DB0E1B0165
:1042900048481B184A7B012A2AD00A6892041A60EF
:1042A0000A7B082A2CD858680F2515402D04424A4D
:1042B00002402A435A600A79023A012A64D95A68AC
:1042C0003E4802405A605A683D4802405A600833EE
:1042D00018000A7B896806F01FF8C423E358DB0244
:1042E000DB0E01229A401300D022A350002070BDA3
:1042F0000A681A6018688022D20502431A60CFE764
:104300000C2A07D85A682C48104090221203024306
:104310005A60D0E7102A07D85A6827481040A022D0
:10432000120302435A60C6E7142A07D85A68224883
:104330001040B022120302435A60BCE7182A07D883
:104340005A681D481040C022120302435A60B2E767
:10435000202A07D85A6818481040D0221203024376
:104360005A60A8E7302A07D85A6813481040E0225C
:10437000120302435A609EE7402A9CD85868F022F4
:10438000120302435A6096E7586880229203024360
:104390005A600A79032A04D05A68094802405A60D0
:1043A00095E758688022520302435A608FE71C2029
:1043B00040429CE7B8030020FFFFF0FFFFFFDFFF54
:1043C000FFFFEFFF10B50300002944D0002821D1E2
:1043D000254B1878032840D0421C1A70234C8000CB
:1043E0004B6803510A6803595205520920490B4092
:1043F0001343035103599B009B0880221206134369
:10440000035103591B4A1A4080231B0513430351D0
:10441000002010BD0020012BFBD1174B1B78042B73
:104420001ED0581C144A1070144ADB0008689850BB
:104430009858C000C0088024A405204398504968BB
:10444000D31859605A6892009208802109060A43DD
:104450005A600020DDE70020DBE70C204042D8E76F
:104460000C204042D5E7C046A4030020980300205A
:10447000FFFF00F8FFFFFFC73403002038030020D0
:1044800030B50300914240D8002822D1234B187840
:1044900003283CD0441C1C70214C80000359490562
:1044A0004D09204919402943015103595205510D25
:1044B000DB0ADA020A43025103599B009B080351AD
:1044C0000359194A1A4080231B0513430351002046
:1044D0001CE00020012B19D1144B1B78042B19D0A0
:1044E0005C1C124804701248DB0019501958C900AE
:1044F000C9088024A40521431950C3185A605A687A
:10450000920092085A60002000E0002030BD0C208C
:104510004042FBE70C204042F8E7C046A4030020DD
:1045200098030020FFFF00F8FFFFFFC734030020BF
:104530003803002083690222934383618369013A2F
:104540009343836183691A42FCD1436D0122134373
:1045500043657047836901221343836183691A426B
:10456000FCD08369022213438361426D01218A4397
:104570004265036D0B4303657047000070B505008D
:104580000C001600052953D80020052A51D8280010
:10459000FFF7E0FF052C4DD8A300284AD3589F46CB
:1045A00004220B230424013C2404013B1B021C4372
:1045B000013A1443EC61052E3ED8B300204AD3588B
:1045C0009F4604220B23EEE704220B230124EAE793
:1045D000022205230124E6E7012202230124E2E767
:1045E00004220B230824DEE704210B200426013ECD
:1045F0003304013800020343013909010B43EB6026
:104600002800FFF797FF012013E004210B20EEE7BD
:1046100004210B200126EAE7022105200126E6E716
:10462000012102200126E2E704210B200826DEE713
:10463000002070BD0020FCE70020FAE728AA000057
:1046400040AA000010B50300026D0020910100D4C3
:1046500010BD1A651800FFF76DFF0120F8E7000094
:104660002D4B984200D070472C4A116980235B0083
:104670000B4313612A4AE8234221D150264A936909
:1046800041390B439361110001228B691A42FCD01E
:10469000214B9A6902210A439A619A699A61002220
:1046A0009A602049D9612049D96020490904090C40
:1046B0001F480143A0201950BC215A500C315A50B8
:1046C0001C490904090C802000050143C020195031
:1046D00019490904090C802080020143F020195077
:1046E0008021C838585015490904090CC02080029F
:1046F00001438420195012490904090C8020C0028A
:1047000001438820195090210E4858500E4B1A70C2
:104710000E4B1A70A7E7C046001C0042000800407C
:10472000001C0040030A0500330A00005803002063
:1047300000000480B8030020A80300209803002094
:1047400038030020FFFFFF1FA403002034030020D4
:10475000184B84225A60184B833A1A71174B184A27
:104760001A8202221A7500225A7507329A751A00A7
:104770009369002BFCD1114AD368DB07FCD50F4AA3
:10478000118A80231B010B431382D368DB06FCD5FF
:104790000C4B0D4A1A6219000C4A4B681342FCD1AB
:1047A000084B0B4A9A621900084A4B681342FCD125
:1047B0007047C04600400041000800400010004023
:1047C00006430000001C004006010100FD07000038
:1047D00000010100F0B5D6464F464646C0B5174B1E
:1047E0003F229C5CE4B25E6A00230120134A3F2111
:1047F00089460F31884647398C46402505398A4617
:1048000002E00133032B10D03100D9400842F8D028
:104810000B49C854D9B24F46D15541466746575403
:10482000515D5746B9435155EBE7044A3C33D454E4
:10483000E0BCBA46B146A846F0BDC04600600041A3
:1048400038040020114A136980210B431361104B77
:104850001A88022082431A800122013818800D48EC
:1048600058630D4898630D4818800D4B1A705A70A4
:104870009A700C4A1160C120800013581B021B0A59
:104880008021C9050B4313507047C0460008004003
:10489000006000414004002070040020020F00006E
:1048A0003804002000E100E0044A936902210B4330
:1048B00093618023DB05024A1A60704700080040BC
:1048C00021000100044B586099605A7801210A4385
:1048D0005A7008221A70704700200041034B587824
:1048E000C0080123584001231840704700200041B0
:1048F000024B5878012318407047C0460020004101
:10490000064B5860996001225242DA605A780121C0
:104910000A435A7004221A707047C04600200041B2
:10492000014BD868C043704700200041024A137D04
:10493000DB07FCD57047C0460040004110B50400BD
:10494000FFF7F4FF054B2022FF321A836408DC6175
:10495000034A1A80FFF7EAFF10BDC046004000413D
:104960001AA5FFFFF8B5DE4657464E464546E0B568
:1049700004000D001700194A536880218B435360CF
:10498000002F25D09046164B9B46164B9A461AE0B0
:10499000B946BF1B43465A461A80FFF7C7FF721E2F
:1049A0004B46002B08D00023E958E1500433013A6C
:1049B000FAD2B600A419AD19434652461A80FFF741
:1049C000B5FF002F04D03E00102FE1D91026DFE7FD
:1049D000F0BCBB46B246A946A046F8BD0040004127
:1049E00044A5FFFF1CA5FFFF70471F2909D8002A17
:1049F00008D001238B40C0018222D2059446604436
:104A00008360704701238B40C0018222D205944607
:104A100060444360411840310B78022213430B700D
:104A2000EFE7000030B51F290AD8082A09D9C001CC
:104A30000918184B9C4661440B78012293430B7074
:104A400030BDC301CB18134CA44663441C78012528
:104A50002C431C70CB070DD549080F231A40C00109
:104A600009180D4884466144087812010340134335
:104A70000B70E5E74908C0010918074B9C466144E3
:104A80000B780F2010400F2293431A0002430A7044
:104A9000D6E7C046400000413000004110B51F2954
:104AA00005D8012A0ED0022A1BD0002A00D010BD42
:104AB000C0010818124B9C466044037804329343AB
:104AC0000370F4E7C0018223DB059C466044431871
:104AD00040331A78042422431A7001238B408361E7
:104AE000E5E7C0018223DB059C4660444318403360
:104AF0001A78042422431A7001238B404361D6E7BD
:104B00004000004101238B40C0018222D20594461F
:104B10006044C3617047F8B504000D00160006AA92
:104B20001778022B08D00022FFF75FFF3200290020
:104B30002000FFF777FFF8BD0122FFF756FF320094
:104B400029002000FFF76EFF012F08D00123AB40A2
:104B5000E4018222D205944664446361EBE70123B9
:104B6000AB40E4018222D20594466444A361E2E7AB
:104B700010B504002C4B984210D02C4B984246D0D4
:104B80002B4B984242D12B4AD06980231B0103430F
:104B9000D361294AF4234020D05009E0254AD06946
:104BA00080239B000343D361234AF0234020D0504D
:104BB000224803F009FE224B186080235B029842D2
:104BC00030D900231F490133DBB2020040088A427A
:104BD000F9D81B4A1060012222600121A26811420B
:104BE000FCD1012222710421A2681142FCD11B02D6
:104BF000E022D200134023600223E3634022A36833
:104C00001A42FCD1013820640023636310BD094AB5
:104C1000D0698023DB000343D361074AF02340209F
:104C2000D050C5E70023D6E7002400420028004208
:104C3000002C004200080040001C0040006CDC0218
:104C4000A004002001000200036802221343036055
:104C500083681A42FCD1704770B505000C00064B02
:104C600018685043FA21890003F0AEFD1034A40007
:104C70002C19606070BDC046A0040020124B1B6858
:104C800003701A0A42701A0C82701B0EC3700F4B0D
:104C90001B6803711A0A42711A0C82711B0EC371D0
:104CA0000B4B1B6803721A0A42721A0C82721B0E9B
:104CB000C372084B1B6803731A0A42731A0C82737F
:104CC0001B0EC3737047C0460CA0800040A080003C
:104CD00044A0800048A0800070B5194A5169802323
:104CE0005B010B435361174A94234021D150164B6B
:104CF00001221A7019008B681A42FCD1134B1B68F1
:104D00001A02FC2189010A401905890E0A430E4C3A
:104D100022620F4A15682805F022120410401B0B6E
:104D2000184304F023FC03F0FFFEA0612D012D0ABF
:104D3000E5611023A3700E3B2370013B637070BDCF
:104D400000080040001C004000300040306080003F
:104D50003460800010B50F4BDB681B02180A002B73
:104D60000CDA0D4B181A642103F02EFDC3B200209B
:104D7000322B0CD83220C01AC0B208E03230642185
:104D800003F022FDC0B2C82802D83230C0B210BD34
:104D9000FF20FCE700300040320000010004F02357
:104DA0001B03184004231843014BD8617047C046C9
:104DB000001800400B2816D80B4A516980235B006D
:104DC0000B435361094A137804218B43137011007C
:104DD0000E228B681A42FCD104494B780F22934370
:104DE0001040184348707047000800400020004001
:104DF000054A137802210B43137011000E228B68B1
:104E00001A42FCD17047C04600200040044BA52246
:104E10001A731900953A8B681A42FCD17047C04644
:104E20000020004010B50020FFF7C4FFFFF7E0FFAF
:104E3000FEE7F0B5DE4657464E464546E0B585B03E
:104E400082468946C3690293002B15D04B68DA006D
:104E5000D7081800D90F8024E40523409B465C1E28
:104E6000A341DBB20393530D9846002800DB3B00BF
:104E70009C46029C01940CE0C16135E09B0C10E063
:104E8000984517D0634515D323680194002B29D08A
:104E90001C006268D300DB08D60F8E4206D0002AC1
:104EA000ECDB0028ECDB9F42EED0EBE7BB4209D005
:104EB000BB42E9D2029BA3420ED0019B4A461A6034
:104EC000146011E0920F01252A40039DAA42EFD001
:104ED0005B46002BD8D0EDE74B461C6053464A4654
:104EE000DA6101E04B46236005B0F0BCBB46B24638
:104EF000A946A046F0BDF0B5DE4657464E464546AB
:104F0000E0B583B00D009C460C99EC08CB089A469E
:104F100007231D400B40AA18954239D00721884627
:104F20008146A14493466246009220E0DC08544446
:104F30002600009C0196A65DEF08BC464F466446DD
:104F40003C5D270087403800D04070408446FF20F9
:104F50000002C840FF2420401041624610407040CB
:104F6000009A019C10556D185B18AB4510D0404657
:104F7000284042461A40011C904200D2111CC9B27E
:104F80005C46641B0826711AA142CFD92100CDE7E7
:104F900003B0F0BCBB46B246A946A046F0BD000037
:104FA000090248400823084905E0400080B2013B5F
:104FB000DBB2002B06D002B2002AF6DA400080B243
:104FC0004840F4E77047C0462110000070B5002A41
:104FD00007D00C008D182178FFF7E2FF0134AC42B6
:104FE000F9D170BD03000068002809D002681A607A
:104FF000DA88013292B2DA801989914200D21A819C
:10500000704710B54B68002B0AD01A001B68C468A3
:105010001460C260428A013A42824B60002BF4D194
:10502000CB8A9B0A9B02CB820020002110BD30B5A9
:1050300089B004000D00202200216846FDF786F8A3
:1050400004952000FFF7CEFF041E03D020226946FE
:1050500005F062F9200009B030BDF0B5DE465746D4
:105060004E464546E0B583B083468A4691461A00CF
:105070000193CB8A9B059B0D062B50D0CE8AB6059B
:10508000B60D052E1FD890B2002810D03200494628
:10509000002455461A350B78AB540134A4B2531C86
:1050A0009BB2052B10D8013201318442F3D3301862
:1050B00083059B0D5246D28A920A920213435246AE
:1050C000D382012078E000246B469888A042EED974
:1050D0005346DF8ABF05BF0DB81F1C2103F0FAFB42
:1050E0008DB253465B689846002B1AD01B68012688
:1050F000002B05D00136B6B298461B68002BF9D1BB
:10510000019B981FC0191C2103F05EFB013080B287
:10511000B04212D86B469F88BC422AD33FE000249D
:10512000D6E75846FFF75EFF8046002851D000239F
:105130000360534658600025ECE7002DEAD158463D
:10514000FFF750FF00284AD0002303604346186051
:105150008046DFE72600B74221D95846FFF742FFD5
:10516000002830D000230360434618608046340096
:1051700000251B2DEED8A74211D926001C36761B20
:10518000B6B2230000224C4404354544A05CA85428
:1051900001339BB2B342DED00132BB42F6D3534659
:1051A000DA8A93059B0DFB189B059B0D920A9202D0
:1051B00013435246D382012003B0F0BCBB46B24633
:1051C000A946A046F0BD002342461360032040429A
:1051D000F2E700235246536003204042ECE70023ED
:1051E0004246136003204042E6E7F0B5DE465746EC
:1051F0004E464546E0B587B083460D0001920493C4
:1052000010AB02CB8A461E88002A00D190E0002E07
:1052100015D0002900D18FE0072E10D9049B1B0A5E
:10522000059380270023994600240C335B440293A6
:105230008021090629430391B8464F4647E0584666
:105240000C30FFF7CFFE041E7AD014220021FCF7A9
:105250007DFF200008303200514605F05DF8731CD8
:105260002374A619019B1A781F231A405F3B13432E
:105270003372802109060D43656021005846FFF70F
:10528000D8FD0123984662E000220023A6422ED8D2
:10529000A64248D0E918019A10781F2202404846D9
:1052A00040010243404610430872039A6A6001338A
:1052B0002B7429005846FFF7BCFD01373FB201238C
:1052C0004A465A40914600239846A6422ED002985C
:1052D000FFF788FE051E37D014220021FCF736FFA9
:1052E000002CD1D1049B2B72059B6B72022253467A
:1052F000195DAB181972531C0134A4B25146091937
:105300000932AA18A6420AD0087810700133DBB21D
:105310000134A4B201310132072BF3D1B8E73400D4
:1053200040229046B6E740229046B3E7B8460EE0EA
:1053300002235B4298460AE002235B42984606E05D
:1053400003235B42984602E003235B4298464046B3
:1053500007B0F0BCBB46B246A946A046F0BD00006F
:10536000F0B583B00700019115001C002422002134
:10537000FCF7ECFEBC60089B7B60099B3B628023D2
:105380009B039D4206D26E093C000C34B0B21F2D27
:1053900004D814E03C000C340C4E3000019B002279
:1053A00021001C000B6001322033B242F8D30024EC
:1053B000002E01D0013E7401019B9C4664440023F1
:1053C000236038827B82BB8203B0F0BDFFFF000008
:1053D0000378002B03D14BB2002B00DD0170704726
:1053E000F0B5DE4657464E46C0B582B0070092463D
:1053F0001E000AAB1D880CAB1C780EAB1B889946AF
:105400000D9B002B30D01F2C60D83878002831D16C
:105410004B46072B5DD803232B40AB425CD1304E6B
:105420004A460D993000FFF7D1FD24062D022C438A
:105430002C4D05406D02254333004A4601920D9ADA
:1054400000920B9A29003800FFF7CFFE0B9B1B78C8
:105450000133DBB21F2B35D80B9A137002B0E0BCBE
:10546000BB46B246A946F0BD4B46002BCBD002202E
:105470004042F3E72D020543240625434B46072B04
:105480001ED90024164820239B460CE05B461B1BBC
:1054900032009A405146E1401143C9B2FFF780FD06
:1054A0000834402C06D020235B42E318EED43100B0
:1054B000D940F2E74A460D99FFF788FD0300BCE7A3
:1054C000074BBAE700230B9A1370C7E7022040424C
:1054D000C4E704204042C1E702204042BEE7C04684
:1054E000FFFF0000FE7F0000F0B5DE4657464E4647
:1054F0004546E0B583B0070090461E000CAB187817
:105500000EAB1D780FAA13789A4611AA13889946F4
:10551000109B002B17D01F2D56D83A78002A56D052
:105520002D0609020D435346DB031D4300040543CA
:10553000154380231D434B46072B36D900242548AD
:1055400020239B4612E04B46002BE4D00220404231
:1055500024E05B461B1B32009A404146E140114368
:10556000C9B2FFF71DFD0834402C06D020235B4252
:10557000E318EED43100D940F2E74A461099FFF71C
:1055800025FD03004A460192109A00920D9A2900C7
:105590003800FFF72AFE5346012B08D003B0F0BCB9
:1055A000BB46B246A946A046F0BD0A4BEAE70D9BB2
:1055B0001B780133DBB21F2B02D80D9A1370EDE775
:1055C00000230D9A1370E9E702204042E6E7042029
:1055D0004042E3E7FFFF0000C069002800D004302C
:1055E0007047C3691A68C261C2681A60C360438A9F
:1055F000013B43827047F0B5C64600B584B0804693
:105600000F0014001E00002A00D10122151CD2B286
:10561000402A00D94025EDB20822002102A8FCF75B
:1056200095FD012C05D9082C1BD8327802AB1A70D5
:1056300002E0327802AB1A706B0707D0EB0802A9C0
:10564000CA5C6C42072020408240CA5400974346FF
:105650002A00002102A8FFF74EFC04B080BCB84627
:10566000F0BD102C03D8328802AB1A80E4E7202C5E
:1056700002D833680293DFE73368746802930394B7
:10568000DAE710B5CB68002B0AD01A001B68C46893
:105690001460C260428A013A4282CB60002BF4D18E
:1056A0000023CB608B600B618B8210BDF0B5DE46B2
:1056B00057464E464546E0B591B080460F000292EF
:1056C00003930E683306D80F002B4BDA3304DB0F3D
:1056D0009B467104490E002E00DB05E2C023DB056A
:1056E00035001D401E4200D001E23A7B002A00D165
:1056F00000E25B46022B04D043461B788B4200D06D
:1057000000E27F2333400593002800D161E2330C8F
:10571000DBB204935B461B0449060B43059CA104C2
:105720000B430499080018438246BA18D378994667
:10573000DB09069300D19AE0002200230892099326
:1057400000945B460A0008A940464468A047002828
:105750000CD10C20404211B0F0BCBB46B246A94669
:10576000A046F0BD02239B460021B4E743469C6956
:105770005346002C13D0226993421AD02468002C7F
:10578000F9D140460C301900FFF751FC041E00D13E
:105790001CE243469B69236043469C6109E0404606
:1057A0000C305146FFF743FC041E00D10EE2434685
:1057B0009861089B0793099BD048A2461C000CE007
:1057C00020235B1B22009A400799E9401143C9B28C
:1057D000FFF7E6FB0835402D06D020235B42EB188F
:1057E000EED42100D940F2E75446A082A268E368D3
:1057F0001100194348424141CDB202980399801AE1
:1058000099410A0001000120002A04D102D1BC4BB9
:10581000994200D80020C2B21F23494619408A4647
:10582000E37D5B06DB0ECB1A98B2002B2EDBF60075
:10583000F10E0791002D00D073E1002A00D070E135
:10584000069A002A00D183E1012B00DC7CE11F23B2
:105850004A4613409A00E37D7C218B4313437F2209
:105860001340E37521004046FFF7CBFB6CE1434654
:105870009C69002C00D148E1030022699342B5D015
:105880002468002CF9D10D20404264E70300203346
:105890001BB2CCE7E37D5A06D20E511C1F220A40F0
:1058A00092007C218B431343E3750D20404252E765
:1058B000029A039BA260E36008AD142200210BA8AA
:1058C000FCF744FC029A039B089209933B1D0A9340
:1058D0003B7B013BDBB2AB82049BEB825B462B76CE
:1058E00053466B76079BAB76059BEB7643469B68EE
:1058F000290040469847E37D5906C90E01311F2211
:105900000A4092007C218B431343E375E38A9B0A90
:105910009A02E2829B007F221340E37500201AE77F
:1059200021004046FFF76DFBE37D5906C90E0131AA
:105930001F220A4092007C218B431343E375E38AC4
:105940009B0A9A02E2829B007F221340E3750320A8
:1059500001E74B469B0922D0387B0138C0B2E28A6E
:105960009205920D052A48D800280DD0391D002334
:1059700026001A360D78B55401320133DBB2052A00
:105980005ED801319842F5D1029A039B089209939F
:1059900023001A330A9363680B9300235DE03D1DD7
:1059A0003B7B013BDBB240460C302A002100FFF775
:1059B00054FB002808DB3A7B013AD2B2A08A2900C6
:1059C000FFF704FBA082F8E021004046FFF719FB37
:1059D000E37D5A06D20E511C1F220A4092007C2100
:1059E0008B431343E375E38A9B0A9A02E2829B008E
:1059F0007F221340E3750320ADE66668002E1ED0BB
:105A00003368002B19D006251C351E001B68002B9F
:105A1000FAD1511B1B295ED80028B5D00023AA1A41
:105A20000432BA180436555C755401310133DBB2C7
:105A30001C2905D09842F6D1A6E70625E9E7002300
:105A40000299039A0891099222001A320A92626816
:105A50000B92834241D20433FB1808AA0C93E38AC9
:105A60009B059B0DC0189082049BD3825B461376E6
:105A700053465376079B9376059BD376002363604A
:105A80003A7B013A391DA08AFFF7A0FAA082238B46
:105A9000834224D008A94046FFF7F3FDE37D590671
:105AA000C90E01311F220A4092007C218B4313430F
:105AB000E375E38A9B0A9A02E2829B007F221340ED
:105AC000E375A08A238BC01A4342584140421023F9
:105AD000984311303FE60023B2E70023BDE708A951
:105AE000404683689847D5E70A20404233E60A20BB
:105AF000404230E60A2040422DE6C046FFFF00004B
:105B000080841E000B20404225E60D20404222E604
:105B10000E2040421FE60F2040421CE6102040426B
:105B200019E61F234A4613409A00E37D7C218B43EC
:105B300013437F221340E37521004046FFF761FACB
:105B4000069B002B00D1A5E64B465B0600D5AFE6D1
:105B50004B469B06E27DD209DB0F9A42D8D1E37D0A
:105B60005B06DB0E5345D6D1069B002B00D1F0E639
:105B70004B465B0600D5EFE63B7B032BCED9029A62
:105B8000039BA260E360BD1D3B7B033BDBB2404651
:105B90000C302A002100FFF760FA002800DABFE687
:105BA0007A7912023B79134323833A7B033AD2B2C8
:105BB000A08A2900FFF70AFAA082E17D80228A43A9
:105BC0007F230B401343E3750020C4E503204042CC
:105BD000C1E5330A9BB20493730600D09AE5032310
:105BE00004981840049095E5F0B5DE4657464E46B9
:105BF0004546E0B587B08246884604920393868A7C
:105C0000F3008B4200D89FE013004344F20093421C
:105C100002D9521AD3B204935346DB689946002B3B
:105C200011D043462F2B17D9564B9C466644F6009D
:105C3000049C00239B46002C72D0302753460593CA
:105C4000A2464C4649E053461B69002B00D171E047
:105C500043462F2B00D979E0302342469B1A049DFE
:105C60009D4200D279E0D4B230231B1BDBB29B46AD
:105C700000230093039B5A46414650468068FFF735
:105C80003AF9D844303CAC466444E4B253469E8A68
:105C90003C4B9C466644F6005346DB689946002B15
:105CA000C9D130272EE04346591A201D5B46009388
:105CB000039B2A00FFF71FF9A8445B46EB18DBB2F1
:105CC0009B4653465D1BEBB29A464B46F61A246838
:105CD000002C14D05346002B22D0B146E02E01D91F
:105CE000E023994639004F444745EED94346FB1A15
:105CF00055469A45D7D34346FD1AEDB2D3E75446ED
:105D0000059B9A4653461869002809D0002C07D0F5
:105D10004346D91B5B460093039B2200FFF7EBF839
:105D20006B461020185E07B0F0BCBB46B246A946D1
:105D3000A046F0BD5346986800230093039B049A45
:105D40004146FFF7D8F8EBE70020ECE75346186927
:105D5000049C302700239B46D8E700230093039B35
:105D6000049C2200414650468068FFF7C4F8A446D0
:105D7000E0445346DB68002BD2D1049B9B4630277E
:105D80000024BFE7FAFFFF1FF0B583B005000F0046
:105D900014001E00002800D1D4E0089B002B00D185
:105DA000D3E0531E3F2B00D9D2E0012A19D1002E97
:105DB00000D0D0E0082200216846FCF7C7F96B4606
:105DC000012239002800FFF70FFF00284BDDE30810
:105DD0006A46D25C6542072129400A416946CA5495
:105DE0000EE0082200216846FCF7B0F96B4622005D
:105DF00039002800FFF7F8FE002834DD6307E6D1FC
:105E0000082C09D8002E16D1012C00D08EE06B464C
:105E10001B78089A137026E0102C00D8A9E0202CDB
:105E200000D89EE00823002E06D1089A009B019C12
:105E30001360546017E00123DB00A3425AD0082C02
:105E400013D86B461B78621E1900D1400A00D20796
:105E500005D50122A240524213436A4613706B4695
:105E60001B78089A137003B0F0BD102C12D86B4643
:105E70001B88621E1900D1400A00D20705D50122F5
:105E8000A240524213436A4613806B461B88089A0D
:105E90001380E8E7202C0FD80099631E0A00DA402F
:105EA0001300DB0704D50123A3405B420B4300939F
:105EB000089B009A1A60D6E73F2C4FD8009D0199A5
:105EC000631E21225242A21820D40B00D340DB07CC
:105ED00010D520235B42E61822D40127B7403B00AF
:105EE0000126A6403200002756429F4135430095C7
:105EF00039430191082CB2D9102CC6D9202CD7D9FE
:105F0000089A009B019C13605460ACE72022D21ACF
:105F10000E00964032002E00DE4033001343D6E7D9
:105F20002026361B0127F7403B00D9E7082C04D870
:105F30006B461B78089A137095E7102C1DD9202CFE
:105F400013D972E7022040428DE7022040428AE7DF
:105F50000220404287E70220404284E70920404275
:105F600081E70423002E00D066E7089B009A1A60A0
:105F700079E70223002E00D05EE76B461B88089A63
:105F8000138070E7030008334360012252428260AD
:105F9000C3600361002303607047002303617047FF
:105FA00043684B609A688A60516099600861036831
:105FB00001330360704730B50C6803000833621C7E
:105FC0000ED01A005B681D68A542FAD953684B6071
:105FD00099608A605160086103680133036030BDD5
:105FE0000269F3E70369416882688A604168516029
:105FF0005A68824206D0002202611A68013A1A6089
:106000001868704782685A60F5E710B5040000F020
:10601000A3FFA46B00F0ACFF6042604110BD70B5FF
:1060200004001600856B026C002A0CD10020236846
:10603000002B02D00135A56370BD606800F0C4FD7F
:1060400000236360F6E7002E0ED1806804F064F947
:10605000A368226C94466344A36030006268934254
:10606000E8D32368A360E5E7C06804F055F9236C22
:106070005A42E168CB1AE36021688B4203D263681D
:106080009C466244E2600020022ED3D1002DD1D084
:10609000013DCFE770B582B00190846C002C05D033
:1060A000A26BE36B9A4203D372B6FEE772B6FEE7C9
:1060B000A26B0025934202D8280002B070BD452390
:1060C000E65C76B20A0001A92000FFF7A8FF0500F0
:1060D000731C04D0013676B24523E654ECE7636ABC
:1060E000002BE9D02000243000F0E8FC0028E3D0A9
:1060F0000125E1E710B5030008001A6C002A0AD058
:10610000D9688918D9605C68A14201D31968D9603F
:10611000D96804F001F910BD70B5050000F01CFF4E
:106120004523EC5C64B2002C1DDD2E0024360BE010
:106130006B6A002B17D0300000F0C0FC00280FD194
:10614000013C64B2002C0ED0AB6C002BF0D00021CF
:106150002800FFF79FFF0028F2D000F02FFDEFE7A7
:1061600000F02CFDECE74523FF22EA5400F000FF8D
:1061700000F0F2FE4423EC5C64B2002C11DD2E0032
:10618000103603E0013C64B2002C0AD02B69002BCE
:1061900007D0300000F092FC0028F3D000F00EFD94
:1061A000F0E74423FF22EA5400F0E2FE70BD70B530
:1061B00004000D0000281BD000F0CEFE2268216CE8
:1061C000E36B4B43D01860600020A063A2605B1AB1
:1061D000D318E360FF234422A3540132A354002DBB
:1061E00011D12369002B05D100F0C2FE012070BD42
:1061F00072B6FEE72000103000F060FC0028F3D0FB
:1062000000F09EFEF0E720001030FFF7BBFE2000FC
:106210002430FFF7B7FEE7E770B504000E00002852
:1062200001D172B6FEE7080060434C3000F0ECFE8E
:10623000051E0CD00300002E00D04C332B60EC6305
:106240002E6401212800FFF7B2FF0023AB64280071
:1062500070BDF8B5CE46474680B504000F00160065
:106260001D00002808D0002908D0022D44D1E36B7E
:10627000012B2AD072B6FEE772B6FEE7036C002B44
:10628000F3D072B6FEE7A36C002B0BD029002000E0
:10629000FFF700FF0125002836D0002E11D0012382
:1062A000336031E0636A0125002B2DD020002430BB
:1062B00000F004FC002827D0002E04D00123336016
:1062C00022E0012520E001251EE000F061FE81466C
:1062D000A36B4523E35C5BB298462A00390020009B
:1062E000FFF79DFE43460133CDD0434601335BB2F9
:1062F0004522A354012507E000F04AFE8146A36B26
:10630000E26B9342E5D30025484600F045FE2800A5
:10631000C0BCB946B046F8BDF0B5CE46474680B5DC
:1063200085B0041E8846019206D00026002905D0BB
:1063300044250023994642E072B6FEE7036C002B29
:1063400001D072B6FEE70026F2E741462000FFF7D3
:10635000D1FE7B1EA3632369002B07D100F008FE4A
:10636000012005B0C0BCB946B046F0BD20001030D9
:1063700000F0A4FB0028F1D000F0E2FDEEE700F011
:10638000F7FD0020EDE702A800F0D8FB21E04B4626
:10639000635528E045234A46E25429E02000FFF7F0
:1063A000BBFE00F045FA09E02000FFF7B5FE00F063
:1063B0003FFA2000FFF729FE002835D1012600F022
:1063C000CBFDA76B002FC0D1019B002BD7D0002E97
:1063D000D9D000F0CDFD00F083F900F0BDFD635D84
:1063E0005BB20133D3D04523E35C5BB20133D1D040
:1063F00000F0BEFD01A902A800F0ACFB0028D3D13B
:106400002000FFF702FE0028C8D0200024300199A8
:1064100000F042FB2000FFF77FFE00F009FA0028A1
:10642000CCD100F08DFDC9E700209AE7084B1B682E
:106430001B68002B04D1074B012252421A6070479F
:10644000034B1B68DB68DB685A68024B1A60F6E78F
:10645000A80400207C05002010B5034C2368012B04
:10646000FCD900F06DFDF9E7B004002070B5040020
:106470000D00174B1E68174B18680430FFF7B2FD6C
:10648000631C0DD03419134B1B685C60A64210D9F5
:10649000114B18680F4B19680431FFF78CFD70BD64
:1064A000002DEFD00B4B196804310C48FFF778FD35
:1064B000F5E70B4B1868074B19680431FFF77BFDB4
:1064C000084B1B68A342EAD9064B1C60E7E7C046AD
:1064D000B0050020A4040020AC0400209C0500208E
:1064E000A80400207C050020F0B5DE464F46464655
:1064F000C0B582B00090894601939700380000F043
:1065000083FD061E00D19DE04C2000F07DFD051EA0
:106510004DD006630024020034324B461B5D1355F8
:10652000002B02D00134082CF7D13B230022EA547F
:106530000A9C062C00D90624EC62EC6300239B46DF
:106540002B642B1D98461800FFF727FD28001830F4
:10655000FFF723FD2D610722131BAB616D625B46C4
:106560006B6448335946E954381F30189043019AF8
:10657000009900F0A7FC28600B9B002B00D01D6049
:1065800000F0EAFC334A136801331360324B1B6896
:10659000002B12D0314B1B68002B13D12E4B1B68E4
:1065A000DB6AEA6A93420DD82B4B1D600AE030008B
:1065B00000F05AFD0120404246E0274B1D60136861
:1065C000012B23D0264A136801331360EB6A254A56
:1065D0001268934201D9234A13609800C0188000C2
:1065E000214BC0184146FFF7DBFC00F0C1FC1B4B00
:1065F0001B680120002B27D0174B1B68DA6AEB6A57
:106600009A4221D200F09CFC01201DE0164E37007A
:106610008C373000FFF7B6FC1436BE42F9D1134F69
:106620003800FFF7AFFC124E3000FFF7ABFC11480B
:10663000FFF7A8FC1048FFF7A5FC104B1F60104B9C
:106640001E60BFE70120404202B0E0BCBB46B1463D
:10665000A846F0BD3C050020A404002098050020B9
:10666000480500204C050020B00400205005002003
:1066700064050020840500209C050020A80400205B
:10668000AC04002000B583B00F4B019300230093AE
:1066900040220E490E48FFF727FF012803D0431C74
:1066A0000FD003B000BD72B60A4B012252421A60ED
:1066B000094B02321A60094B00221A6000F014FCE8
:1066C000EFE772B6FEE7C0467805002068AA000032
:1066D000596400007C05002098050020B0050020CA
:1066E000024A1368013313607047C0464405002016
:1066F000014B18687047C046B0050020F0B5D6467B
:106700004F464646C0B53F4B1B68002B6AD13E4BF7
:106710001D6801351D60002D12D13C4B1B681B68A4
:10672000002B01D072B6FEE7384A1168384B186862
:1067300010601960374A136801331360FFF776FE63
:10674000354B1B680027AB423DD8304B1B681B689C
:10675000002B33D02D4B9846304B99469A4604E097
:106760002A4B1B681B68002B29D043461B68DB683B
:10677000DC6863689D4232D3261D3000FFF732FC8F
:10678000A36A002B03D020001830FFF72BFCE36A2C
:106790004A461268934201D9524613609800C018C5
:1067A00080001F4BC0183100FFF7FAFB1D4B1B6820
:1067B000E26ADB6A9A42D3D30127D1E70027164B5E
:1067C000012252421A60174B1B68DA6A93009B1829
:1067D0009B00134A9B58012B09D9012707E00E4A59
:1067E0001360F0E7104A13680133136000270F4B62
:1067F0001B68002B00D001273800E0BCBA46B14628
:10680000A846F0BD44050020B0050020A8040020E3
:10681000AC040020800500207C0500204C050020F1
:10682000B0040020A404002040050020B40500208E
:10683000F0B5C64600B5324B1B68002B01D172B6CD
:10684000FEE700F089FB2E4B1A68013A1A601B68BC
:106850000024002B41D12B4B1B68002B3DD02A4B31
:106860001B68002B45D0284F284EB04603E0264B2E
:106870001B68002B3BD0FB68DC6820001830FFF75A
:10688000B1FB251D2800FFF7ADFBE36A3268934298
:1068900001D9424613609800C01880001C4BC018F4
:1068A0002900FFF77DFB1B4B1B68E26ADB6A9A42FB
:1068B000DDD3194B01221A60D9E7013C002C05D029
:1068C000FFF71CFF0028F8D03560F6E7134B0022D5
:1068D0001A60114B1C68002C05D100F049FB200008
:1068E00080BCB846F0BD00F02BFB0124F5E7FFF7B4
:1068F0009DFD0A4B1C68002CEBD0074E0125DFE7FD
:10690000440500203C050020840500204C050020A3
:10691000B0040020A4040020B4050020400500209D
:1069200010B5041E0FD0094B1B68002B01D072B6A6
:10693000FEE7FFF7D5FE00212000FFF797FDFFF7E8
:1069400077FF002801D100F0FBFA10BD44050020BC
:1069500010B5214B1B68002B03D0204B01221A607D
:1069600010BD1E4B00221A601D4B1A6893009B1825
:106970009B001C495B58002B0CD1002A08D0013A1F
:1069800093009B189B005B58002B03D1002AF6D183
:1069900072B6FEE7134C9300991889006118486895
:1069A000406848609B189B0008331B1998420BD025
:1069B00093009B189B000B49CB185B68D9680A4B66
:1069C0001960074B1A60CBE7406893009B189B0047
:1069D000E3185860ECE7C04644050020B4050020E9
:1069E0004C050020B0040020A404002070B5040071
:1069F00000F0B2FA002C1DD0251D2800FFF7F2FA96
:106A0000A36A002B03D020001830FFF7EBFA29000F
:106A10001C48FFF7C5FA4823E35C012B0DD000F0BA
:106A2000A7FA194B1B68002B0BD1184B1B68A3420C
:106A30000ED070BD154B1C68DEE747330022E254D0
:106A4000EDE700F089FAFFF7F1FC00F091FAECE7CE
:106A50000D4B1B68002B08D00D4B1B68002B01D081
:106A600072B6FEE700F06CFAE3E7064B1A68094BD2
:106A70001B689A4203D1054B00221A60D9E7FFF741
:106A800067FFD6E79C05002098050020A40400209D
:106A9000440500203C05002010B50C00002809D05A
:106AA000054B19681831FFF786FA01212000FFF71E
:106AB000DDFC10BD72B6FEE7A404002070B5C3680B
:106AC000DC68002C27D0250018352800FFF78AFA4B
:106AD000144B1B68002B20D1251D2800FFF782FADC
:106AE000E36A114A1268934201D90F4A1360980071
:106AF000C01880000D4BC0182900FFF751FA0C4B4D
:106B00001B68E26ADB6A00209A4203D9094B012222
:106B10001A60013070BD72B6FEE729000648FFF723
:106B20003FFAECE7440500204C050020B0040020AB
:106B3000A4040020B405002084050020034B1B683A
:106B40000360034B1B6843607047C046800500200C
:106B5000B005002070B504000D00002818D00029F1
:106B600018D000F0F9F9134B1A682B68591C1BD088
:106B70006168114800682668864202D00126914269
:106B800013D9501A834207D800232B6001260CE04A
:106B900072B6FEE772B6FEE79B1A5B182B60200008
:106BA000FFF7CCFF002600E0002600F0E1F93000FE
:106BB00070BDC046B005002080050020014B0122B9
:106BC0001A607047B405002070B5041E2CD0184B15
:106BD0001B68834201D072B6FEE7036C002B01D123
:106BE00072B6FEE7013B0364C26AC16B8A421DD0E4
:106BF0000020002B19D1251D2800FFF7F3F9E36BC6
:106C0000E3620722D21AA2610A4A1268934201D9AA
:106C1000084A13609800C0188000074BC01829006C
:106C2000FFF7BEF9012000E0002070BD0020FCE766
:106C3000A40400204C050020B0040020F8B5060094
:106C40000F0014001D0000F087F91C4B1A68482340
:106C5000D35C022B0AD0194A11684B6CB3434B64C6
:106C6000126848230121D154002D19D100F080F978
:106C700000F072F9002C03D0104B1B685B6C236092
:106C80000E4B1A684823D35C0024022B0ED00B4B0A
:106C90001A6848230021D15400F06AF92000F8BD99
:106CA0002800FFF7E3FB00F04BF9DFE7034B1A681E
:106CB000536CBB4353640134E9E7C046A40400208D
:106CC000F8B504000E0015001F00002815D000F0D4
:106CD00043F9002F01D0636C3B604822A35CDBB218
:106CE0000221A154032D1AD009D8012D0DD0022D57
:106CF0000ED1626C013262640AE072B6FEE7042DC6
:106D000006D1022B2FD0666402E0626C16436664E3
:106D10000125012B05D000F02BF92800F8BD666491
:106D2000F6E7251D2800FFF75DF9E36A0F4A1268B0
:106D3000934201D90D4A13609800C01880000C4B93
:106D4000C0182900FFF72CF9A36A002B01D072B6F6
:106D5000FEE7084B1B68E26ADB6A01259A42DAD932
:106D600000F0EEF8D7E70025D5E7C0464C05002037
:106D7000B0040020A4040020F0B583B004000E008D
:106D800015001F00002816D000F002F90190002F16
:106D900001D0636C3B604822A35CDBB20221A154AA
:106DA000032D1AD009D8012D0DD0022D0ED1626C01
:106DB000013262640AE072B6FEE7042D06D1022BAE
:106DC0003DD0666402E0626C16436664012B38D1E4
:106DD000A36A002B03D072B6FEE76664F6E71C4B8D
:106DE0001B68002B20D1251D2800FFF7FBF8E36A64
:106DF000184A1268934201D9164A13609800C018C5
:106E00008000154BC0182900FFF7CAF8134B1B6808
:106E1000E26ADB6A01249A4214D9089B002B09D04C
:106E20000123089A13600DE0210018310C48FFF788
:106E3000B7F8EBE70B4B01221A60012402E00024B3
:106E400000E00124019800F0A7F8200003B0F0BD95
:106E5000440500204C050020B0040020A4040020BC
:106E600084050020B405002082B000230193064B66
:106E70001B68013301D072B6FEE772B6019B002B8E
:106E8000FCD002B07047C0460C000020000000009B
:106E90000B4A13681868203080F30988022080F3B9
:106EA0001488BFF36F8F3FBCAE4608BC04BC62B60B
:106EB0001847C046C046C046C046C046C046C04649
:106EC000A404002010B5031F802464041C60043B4C
:106ED0001960043B02491960143B1A60403810BD28
:106EE000696E00007047000010B50F4B1968FF2253
:106EF00012040A431A601968FF2212060A431A6034
:106F00000A4A002313600A490B600A490A480860CC
:106F100007211160094A1360FFF7BAFFFFF718FD58
:106F2000FFF7A2FF002010BD20ED00E010E000E020
:106F300018E000E014E000E07FBB00000C0000203F
:106F4000044B802252051A60BFF34F8FBFF36F8F3F
:106F50007047C04604ED00E072B6044A136801337E
:106F60001360BFF34F8FBFF36F8F70470C0000208B
:106F7000064B1B68002B01D172B6FEE7013B034AAA
:106F80001360002B00D162B67047C0460C00002091
:106F9000EFF3108072B6704780F3108870470000DE
:106FA000EFF309800E4B1A6820381060F0C0444699
:106FB0004D4656465F46F0C008B572B6FFF7C8FCAE
:106FC00062B60CBC116808681030F0C8A046A9462B
:106FD000B246BB4680F309882038F0C81847C0463F
:106FE000A404002010B5FFF7D3FF0400FFF786FBD1
:106FF000002803D0034B802252051A602000FFF7BF
:10700000CBFF10BD04ED00E070B50400430702D0D3
:1070100007239C430834FFF763FB0F4B1B68002BCF
:1070200010D00E4B1B681C190D4A944210D8A34275
:1070300010D2094A1568ED18084B1C60FFF7F8FBE1
:10704000280070BD044A074B07218B431360E8E713
:107050000025F3E70025F1E7B8050020BC25002056
:10706000F71F0000C4050020002801D072B6FEE71B
:107070007047000010B59AB0174B1C6D0023199390
:10708000E3070AD4144B1C65199B002B03D0134B48
:10709000802252051A601AB010BD09AB039301A9F2
:1070A0000D48FDF799F8019B05936B465B7C6A469A
:1070B0002121521813706B461A7C01395B181A7023
:1070C000039906A803F028F9054B1868002319AAAC
:1070D00005A9FFF7BEF8D5E7001C004204ED00E06B
:1070E000C802002010B501000348FDF7C5F843426F
:1070F0005841C0B210BDC046001C004210B5024845
:10710000FDF7A0FA10BDC046001C004210B5FDF707
:1071100059F910BD10B5FDF7B3F910BD70B50400F5
:10712000144D2800FDF79CFA134B80221202802197
:107130005A50BFF34F8FBFF36F8F0131FF315A5059
:107140001A600123EB6506226939FF390020FDF73B
:1071500069FC062219210020FDF764FC2800FDF7D8
:10716000E9F9052C00D90324220021000148FDF78C
:1071700005FA70BD001C004200E100E070B58CB063
:107180000400002210210A20FFF746F8324B186055
:107190002078FFF7C3FF6388FC22D200134063808E
:1071A00022790F2313402371FE26F60006962B4DFD
:1071B000079506A90020FFF7A9FF638822791343EA
:1071C0000693079606A90020FFF7A0FF63880693A1
:1071D000079506A90020FFF799FF2179608800F044
:1071E00091F86379012B01D01B4D16E01C4A002158
:1071F0000120FFF78FFFA07901F002FA208901F04A
:107200009FF9F1E702A908A800F086F8002819D133
:10721000FFF76EFA6379012B18D0012208A92868BC
:10722000FFF77AF80128F3D162796B4604932D2198
:107230005B181B78002BE5D0012AE9D108A801F0E2
:1072400055F9E5E702A8FFF74DFFE1E701F088F9FE
:1072500001F00EF9E1E7C046C8020020FF07000078
:10726000FFFFFF1F10B50400FCF768FDFBF788FA6D
:107270000005000D6070000AA070FCF71BF8E070BC
:10728000FCF724FA2071FCF769FA6071FCF7A8FB9F
:10729000002807D10023A3710020FCF775FAE071E4
:1072A000072010BDFCF7BAFBA071F5E770B504002C
:1072B000FCF744FD0500FCF7E1FB0600FCF7D8FBFA
:1072C000020031002800FBF7D3FA6070000AA070BA
:1072D000FBF7F0FFE070FCF7F9F92071FCF73EFADC
:1072E0006071FCF77DFB002807D10023A37100200B
:1072F000FCF74AFAE071072070BDFCF78FFBA07124
:10730000F5E70000024B1880024B19707047C04629
:10731000C0250020C2250020F0B5C64600B58AB0C1
:1073200004000D00016803793F261E40DC4B1F88D6
:10733000FE23DB000B40BB4223D0FE22D200002004
:10734000914200D0F0E2002E00D1D4E200203C2E89
:1073500000D0E9E200236B73D24B1E783B0033432D
:10736000102213432B603C23AA681370AB68581C8F
:107370000222CB4902F0D0FFAB68DE7004232B73EE
:10738000CCE2027B002AD8D00F230B409846C54B95
:107390001B7843453ED04246002A3BD0072ECCD135
:1073A0000020434500D2BFE2FBF70EFE00226A73C5
:1073B000BC4B1978BA4B1B880B43102003432B603E
:1073C0000723A8680370063B2B732A71237B0020D8
:1073D000022B00D8A8E24246891A022900D17CE19A
:1073E00000DD47E1002900D160E10020012900D043
:1073F0009AE20020032B00D896E2A11D0222262348
:107400006B44180002F088FF6B46DB8C1B096A4650
:10741000D38451E1FBF7D8FD00226A73A14B1978A0
:107420009F4B1B880B43102003432B60AB681E70DF
:1074300001232B732A713F2E00D979E2B6009A4BB3
:107440009B599F46AB68581C227B013A611D02F094
:1074500063FF237B2B7361E2237B0020032B00D08F
:1074600062E2A3791B026079C01880B2FBF7AAF927
:10747000FCF7E0FA0120FCF78FFAA868FFF7F2FEAC
:107480002B7BC018287349E2237B0020012B00D0FE
:107490004AE2A868FFF7E6FE2B7BC01828733DE29E
:1074A000237B0020012B00D03EE2FBF709FFAB68F5
:1074B0005870000AAB689870AE68FCF797FAF070E5
:1074C000AE680120FCF760F930710023AA6853719F
:1074D000AA689371AE68FCF7FFF8F0712B7B073355
:1074E0002B731BE2237B023B0020012B00D91BE204
:1074F0006279AB685A702B7B01332B737F3010405D
:1075000001A9FBF767FC63797F2B0FD8237B022B44
:1075100022D0A3799B069B0F002800D00EE21B010E
:10752000AA6893702B7B01332B73F7E1002809D0F5
:10753000AB68981C062206A902F0EEFE2B7B0633F0
:107540002B73EBE1AB68981C06220021FAF7FEFDD5
:107550002B7B06332B73E1E10023DDE701AB9E7843
:10756000AA68D01C0299320002F0D6FE2B7BF618D6
:107570002E73D3E101AB9E78AB68D81C320004A90E
:1075800002F0CAFE2B7BF6182E73C7E101AB9E7882
:10759000AB68D81C320005A902F0BEFE2B7BF618A2
:1075A0002E73BBE1237B0020032B00D8BCE1637961
:1075B0007F261E4001A93000FBF70CFC002800D1FB
:1075C000B2E1A3799B069B0F0020002B00D0ABE11A
:1075D000E11D3000FBF72EFCAB685E702B7B0133A6
:1075E0002B736B46DB79AA6893702B7B01332B736B
:1075F00001A93000FBF7EEFB6B469E79AB68D81C07
:107600000299320002F088FE2B7BF6182E7385E17A
:10761000237B0020012B00D086E1AB685E1CFCF7C9
:107620001BFD01000222300002F076FE2B7B0233AC
:107630002B73AB68DE1CFCF70BFD0100022230004F
:1076400002F06AFE2B7B02332B73FBF773F9AB68F6
:107650005871000AAB6898712B7B02332B735DE184
:10766000237B022B00D865E100204246002A00D18E
:107670005AE1B0E60020032900D055E10020062B96
:1076800000D851E102222100093126236B44180061
:1076900002F042FE6B46DB8C1B096A46D3840BE08A
:1076A000C0250020C225002070AA0000611D022212
:1076B0002620684402F030FE26236B441888FBF72E
:1076C00081F8FCF7B7F90120FCF766F9A868FFF725
:1076D000C9FD2B7BC018287320E10020052B00D8A2
:1076E00022E12100083102222630684402F014FE13
:1076F000E2E7237B0020022B00D015E16079AB6824
:107700005870AE680130FF30FBF79CFAB0702B7BED
:1077100002332B7302E1237B0020032B00D003E113
:10772000A17960790130FF30FBF7A2FA6379AA688A
:107730005370A379AA6893702B7B02332B73EDE00F
:10774000237B012B00D8F7E003232B736379AA680E
:107750005370AA23AA6893706379082B37D89B00CB
:10776000864AD3589F460120FCF716F9D6E0002040
:10777000FCF712F9D2E0A079FCF73EF90220FCF701
:107780000BF9CBE0A079FCF737F90320FCF704F9FB
:10779000C4E0FCF7CDFA7A4D28802800FBF7CEFA3A
:1077A0000023E85EFCF75EF90020FCF743F9B5E042
:1077B000FBF738FAB2E0FBF789FDAFE08020FBF77A
:1077C0008FFDFBF741FCA9E0FBF760FBA6E0AB688F
:1077D000EE229A70A2E0237B0020022B00D0A3E0CF
:1077E0006379002B00D09FE0AA6853702B7B053390
:1077F0002B73FBF793F80890A8680230042208A9BD
:1078000002F08AFD8AE0237B0020022B00D08BE06F
:107810006079AB685870AE68FCF722FCB0702B7BC7
:1078200002332B737AE0237B0020032B7CD1A379D6
:107830001B026679F618B6B2FCF720F90700FCF7D0
:1078400017F9020039003000FAF7E2FFFCF7F2F80E
:107850000120FCF7A1F8A868FFF728FD2B7BC018D2
:1078600028735BE0237B0020012B5DD1A868FFF724
:107870001DFD2B7BC018287350E0237B0020022BBA
:1078800052D16079AB685870AE6880B2FBF7DAF914
:10789000B0702B7B02332B7340E0237B0020032B43
:1078A00042D1A1796079FBF7E3F96379AA68537053
:1078B000A379AA6893702B7B02332B732EE0637934
:1078C0000020002B30D1A11D042208A802F024FDC5
:1078D0002C4B089A9A420AD021000831042208A8A9
:1078E00002F01AFD274B0020089A9A421CD1FAF7A1
:1078F0006AFE002018E000226A73234B1B783B438A
:1079000010210B432B60AB681A70AB68581C227BAC
:10791000013A611D02F000FD237B2B732079800961
:1079200001235840012318400AB080BCB846F0BD7E
:107930000020F9E70020F7E70020F5E71A0101A988
:10794000C9780A43A9688A702A7B01322A73022BFC
:1079500000D10FE600D919E6002B00D1FEE500208A
:10796000012BE1D101AB9E78AB68D81C320003A992
:1079700002F0D2FC2B7BF6182E73CFE770AB000021
:107980009E0000205AA555AAC2250020012B0ED02A
:10799000022B1CD00B2A22D0052A26D0012B2AD05C
:1079A0000A2A30D01E4B00209A4232D07047012A5A
:1079B00007D0C92AEED11B4A1B4B0A604B6001203D
:1079C000F4E71A4A1A4B0A604B600120EEE7012ADD
:1079D000E0D1184A184B0A604B600120E6E7174ACD
:1079E000174B0A604B600120E0E7164A164B0A600D
:1079F0004B600120DAE7042AD2D1144A144B0A6002
:107A00004B600120D2E7134A134B0A604B60012000
:107A1000CCE7124A124B0A604B600130C6E7C04601
:107A2000F2030000F890356E69EAFC9A9E6AC42160
:107A3000818A46EE401DA12026812A0BD5A4D1398A
:107A4000F922B6A7F017304A39059E56042B31ECBF
:107A5000A7766FBECDD269EBC51A133BF33AEC386B
:107A60006248A7D830B58DB0264B1B78002B3AD191
:107A7000254B1B78012B38D0022B3ED0002B32D166
:107A8000224B1A6808929A8808AB9A800625002330
:107A90006A46D3770AAC1F336B44072200212000CB
:107AA000FDF7A9FD184B1B785A4253416A46D3771C
:107AB0001F236B44012207212000FDF79CFDEA00F3
:107AC00008AB08212000FDF796FD013504950394CD
:107AD000182302930E4B0193012300930D4A0E4B82
