:080000000C9410010C940000A7
:100008000C9400000C9400000C9400000C94000068
:100018000C9400000C9400000C9400000C94000058
:100028000C9400000C9400000C9400000C94000048
:100038000C9400000C9400000C9400000C94000038
:100048000C9400000C9400000C9400000C94000028
:100058000C9400000C9400000C9400000C94000018
:100068000C9400000C9400000C9400000C94000008
:100078000C9400000C9400000C9400000C940000F8
:100088000C9400000C9400000C9400000C940000E8
:100098000C9400000C9400000C9400000C940000D8
:1000A8000C9400000C9400000C9400000C940000C8
:1000B8000C9400000C9455060C9400000C9400005D
:1000C8000C9400000C9400000C9400000C940000A8
:1000D8000C9400000C9400000C9400000C94000098
:1000E8000C9400000C9400000C9400000C94000088
:1000F8000C9400000C9400000C9400000C94000078
:100108000C94CE050C9400000C9400000C94000094
:100118000C9400000C9400000C94580B0C946B0B7E
:100128000C94850B0C9400000C9400000C940000B7
:100138000C9400000C9400000C9400000C94000037
:100148000C9400000C9400000C9400000C94DE0544
:100158000C9400000C9400000C9400000C94000017
:100168000C9400000C9400000C9400000C94000007
:100178000C9400000C9400000C9400000C940000F7
:100188000C9400000C9400000C9400000C940000E7
:100198000C9400000C9400000C9400000C940000D7
:1001A8000C9400000C9400000C9400000C940000C7
:1001B8000C9400000C9400000C9400000C940000B7
:1001C8000C9400000C9400000C9400000C940000A7
:1001D8000C9400000C9400000C9400000C94000097
:1001E8000C9400000C9400000C9400000C94000087
:1001F8000C940000FF7FFF7F01002D4E414E004907
:100208004E46000002000724FC0102001724FE01EC
:100218000100542400020000F894EE27F091CC016C
:10022800F860F093CC01F8EDF4BFE093A20080E011
:1002380090E1A0E0B0E2ED930197E9F7ECE0F2E09D
:1002480085919591009761F0A591B59105901590CC
:10025800BF01F00105900D920197E1F7FB01F0CF86
:10026800E0E0E0B9E1B9E2B9E3B9E4B9E5B9E6B982
:10027800E7B9E8B9E9B9EAB9EBB9ECB9EDB9EEB95A
:10028800EFB92E2E3E2E4E2E5E2E6E2E7E2E8E2EEA
:100298009E2EEFEFEDBFEFE2EEBFC0E0D4E20C948C
:1002A8000C0629970E94A80DADE2B0E00E94F00E5E
:1002B800E17011F0EFEF01C0E1E0EE83A8E2B0E0F9
:1002C8000E94040CE0933F24F0934024AAE2B0E09B
:1002D8000E94040CE0934124F0934224A0E3B0E090
:1002E8000E94040CE0934324F0934424AEE2B0E06F
:1002F8000E94090CA0E0B4E080E090E00E940F0C9E
:100308000E94140C40EA5FE0A0E4B0E00E94090CEF
:10031800A1E7B2E080E090E00E94660EE093252419
:10032800F09326246093272470932824A2E2B0E057
:100338000E94F00EE0932A240E941C0CAE1BBF0BF7
:10034800BD01D901E2E0F0E00E947E0EDF01EE81FE
:10035800F0E0E7FDFFEF0E94610EDB01AE1BBF0B73
:100368008D01AAE5B0E00E94E60EE030A0E1FA07B0
:1003780030F0AAE5B0E0EFEFFFE00E94F80E0E942F
:10038800230CE030A0E1FA0730F0ACE5B0E0EFEF85
:10039800FFE00E94F80E0E94230C0F01AAE5B0E0CE
:1003A8000E94E60EDF01F001EA1BFB0B0E942A0EF9
:1003B800EB87FC876D877E87022E032A11F421E0E4
:1003C80030E0AB85BC858D859E85EAE00E94D90D1D
:1003D800DF01CB01F9010E942A0E0E94A70EE093CB
:1003E8002F24F093302460933124709332240E9498
:1003F800230CFF93EF930E941C0C0E94DF0EEA1B54
:10040800FB0BFF93EF93D901E2E0F0E00E947E0E30
:100418000E942A0EAF91BF910E942F0E0E94B60D26
:100428000E94280CEAE00E94F00DAF91BF91882746
:1004380099270E94C00DA0933324B093342480934D
:10044800352490933624D9010E942F0EEE81F0E0D6
:10045800E7FDFFEF0E942A0E0E94660EEF83F887E1
:1004680069877A87042E052A11F441E050E0AF81AC
:10047800B88589859A85EAE00E94D90DDF01CB010C
:10048800FA010E942A0E0E94A70EE0933724F093E7
:1004980038246093392470933A24A0EABFE080E0BE
:1004A80090E00E940F0CEAE00E94F00DD801882726
:1004B80099270E94C00DA0933B24B0933C248093BD
:1004C8003D2490933E240E94AF0D2F960895AA9341
:1004D8001A9310E01830A0F40E94310CE981E17001
:1004E80019F0E2E0E09366060E94390CE2E0E0933E
:1004F80066060E94390CE981E695E9831F5FEACF19
:100508001881229608951A93E1E0E0936506E2E0E7
:10051800E0936106E093650610E0173238F40E9414
:10052800390CE2E0E09367061F5FF7CF80E197E2BE
:100538000197F1F7A0914524CADFA0914624C7DFAF
:10054800A0914724C4DF0E94310C0E94390CE2E0DC
:10055800E09366060E94390CE1E0E0936606E2E06B
:10056800E09362061991089522970E94A80D84ECE1
:1005780099E00197F1F740E050E0E0916806E270F9
:1005880021F44430E1E05E0708F003C00E943E0C0D
:10059800F4CF10E0133038F530E000E00830E0F434
:1005A8008CED95E00197F1F73695E0916806E270D9
:1005B80009F430680E94390C40E050E0E091680688
:1005C800E27021F44233E0E05E0708F003C00E94C5
:1005D8003E0CF4CF0F5FE2CFE12FF0E0EB5BFB4D79
:1005E80030831F5FD7CF40E050E0E0916806E270AB
:1005F800A0E00E94340EE13021F44035E0E05E07CF
:1006080008F003C00E943E0CF0CF80ED97E0019700
:10061800F1F7E0914624A0914524AE27E0914724C4
:10062800EA27F1F4E0914524E07879F0E091452457
:10063800EF77E0934524F0E0EE83FF83E0914624D2
:10064800AE81BF810E94000F2CDEA09145244FD0BF
:10065800E0934624A0914524EA27E093472453DFFA
:100668000E94AF0D289608950E94440CA139E1E03C
:10067800BE0734F00E94440CA03BE4E0BE070CF037
:100688002FC0E0E0E0930024E0910424EF5FE093C2
:100698000424A0910424A43110F1E1E7F2E0E093EE
:1006A8000B24F0930C24E0E0E0930424F894E0E0B9
:1006B800F0E0E0933808F0933908E0933C08F093B1
:1006C8003D08E0937808F0937908E0930124E1E08D
:1006D800E0930C09E7E0E093000946DF789406C050
:1006E800E0E0E0930424E1E0E09300240895AA9375
:1006F8000E94AA0DEC81F0E0E236A0E0FA0751F47E
:100708000E94490C19F40E94510C02C00E945E0C10
:10071800E22F7AC0E336A0E0FA0761F40E94490CA0
:1007280019F40E94510C02C00E945E0CF9010E944B
:10073800200E6AC0E036A0E0FA0751F40E94690C66
:1007480019F40E94710C02C00E947E0CE22F5CC05A
:10075800E136A0E0FA0761F40E94690C19F40E94DE
:10076800710C02C00E947E0CF9010E94200E4CC040
:10077800E633A0E0FA0719F4E0912B2445C0E733EB
:10078800A0E0FA0761F4A0912B24B0912C24809169
:100798002D2490912E24E8E00E94090E35C0E833FC
:1007A800A0E0FA0759F4E0912B24F0912C246091F1
:1007B8002D2470912E240E94250E26C0EA33A0E035
:1007C800FA0719F40E94C60B1FC0EB33A0E0FA0722
:1007D80019F40E94DA0B18C0E933A0E0FA0719F4FB
:1007E8000E94A50B11C0EFEFFFE7E0930724F093F9
:1007F8000824E0931724F0931824EC81F0E0E050EB
:10080800F04F8F01D801EC910E94B10D2596089503
:10081800AA93F894E091CF01E078E03831F4E881C8
:10082800E03011F00E94F506F5CFE981AA81BB817D
:10083800EC93E5E3E093CA01EA81E093C001EB8120
:10084800E093C101E0E0E093C201E8EDE4BFE1E03C
:10085800E093CB01E091CF01E078E03831F4E88112
:10086800E03011F00E94F506F5CFE0E0E093CA0110
:1008780078940C94CC05E0E4E0935006E09352069B
:10088800E0935406EAEEE0934406EFE3E093400673
:10089800E7E8E0935200E8E0E0935000E09151006F
:1008A800E870E1F3E8EDE4BFE2ECE0935500E8E13D
:1008B800E0935000E0915100E071E1F3E8EDE4BF0E
:1008C800E4E0E0934000EDE5E0937000E5E0E093BC
:1008D8007100E3E0E0937200ECE7E0937300E093CB
:1008E8007400EEE7E0937500E8EBE0931406E093FC
:1008F8001506E0931606E0931706E3E0E093090671
:10090800E0EEE0930A06EFE0E0932006E4E1E093EE
:100918006406E1E9E0936006E8E1E0937206E0939B
:100928007306E0937506E8EBE0939006E093910672
:10093800E0939206E0939306E9E6E0938001E7E00E
:10094800E0938801E8E6E0930102E7E0E09304021F
:10095800E0E0E0930202E1E0E0932802E8E0E093BF
:100968002902E1E0E0933002E0E1E0933102E1E0C6
:10097800E0933802E8E1E0933902E0ECE093030207
:10098800E0910002EB60E0930002E1E0E0932A02CC
:10099800E0933202E0933A02E0930009E0E0FDE7D9
:1009A800E0932609F0932709E8ECE09343090E94B5
:1009B800890CE3E0E0934709E0E0E0932103E0934A
:1009C8002203E7E0E0932003E1E0E093000AE0E09F
:1009D800F0E0E093260AF093270AEFEFF0E0E093C7
:1009E8002608F0932708E3E0E0930008EFEFF0E033
:1009F800E0936608F0936708E3E0E0934008E0E0DE
:100A0800F0E0E0932808F0932908E0930124E091AE
:100A18005000E460E0935000E0915100E470E1F38D
:100A2800E8EDE4BFE3E1E0938000E8EDE4BFE1E056
:100A3800E0938100F894E7E8E093A200E8E0E0930F
:100A4800CC01789408950E94AA0D20E030E000E0DF
:100A5800E0E1E093660600000000000000000000EE
:100A680000000000000000000000E0E8E0936606D7
:100A780010E01C3000F5000000000000000000003D
:100A880000000000000000000000E0E8E0936506B8
:100A9800220F331F000000000000000000000000CB
:100AA80000000000000000000E94900C11F02F5F71
:100AB8003F4F1F5FDECF10E01630F0F4000000005B
:100AC800000000000000000000000000000000001E
:100AD800E0E8E0936506000F000000000000000059
:100AE8000000000000000000000000000E94900CC0
:100AF80009F00F5F1F5FE0CFE0E8E0936506209301
:100B08001324309314242093152430931624E0E101
:100B1800E0936506E02FE873E03221F0E0E00E9400
:100B2800B10D36C0E1E00E94B10D32C02497E091CA
:100B38001524F09116240E942A0E0E94280CEAE03F
:100B48000E94F00DA0913324B09134248091352473
:100B5800909136240E94970C0E949C0CA030E0E1F2
:100B6800BE07E0E08E07E0E09E0734F0EFEFFFE01D
:100B780060E070E00E949F0CAB81AA231AF4E0E0C9
:100B88000E94DA0EE881F981E0933803F093390383
:100B980024960895EA93FA93EFB7EA930E94A20C79
:100BA8000E94A80CE1E0E0930224E991EFBFF991DB
:100BB800E99118950A921A92FA926A937A938A930B
:100BC8009A93AA93BA93EA93FA93EFB7EA93A09108
:100BD8006809B0916909E5E0F0E00E946B0EE093C6
:100BE8000524F09306240E94890CE1E0E093002498
:100BF8000E943803E991EFBFF991E991B991A99160
:100C08009991899179916991F9901990099018951C
:100C180032DEE0E0E0930224E0E7F7E10E94B80C5E
:100C28000E945501BBD35DD37894A895E0910C0937
:100C3800E17019F1E1E0E0930C09E0930009E0911B
:100C48000B24F0910C24309771F4EDD2FCDE6EDFAA
:100C5800E2D0E0910D24F0910E243196E0930D241A
:100C6800F0930E2409C0E0910B24F0910C243197E5
:100C7800E0930B24F0930C243DD4D7CFFFCFE0E0D2
:100C8800E0930F24E0931024E0931124E0931224BE
:100C9800E0931B24E0931C24E0931D24E0931E247E
:100CA8000895AA93EA93FA93EFB7EA931A93F894FC
:100CB800E0910124E03009F482C0E0910806E07E6A
:100CC8001E2FF0E0E032A0E0FA0791F4E09103244F
:100CD800E03031F00E94BD0CE0934108E3E105C02B
:100CE8000E94C20CE0934108E3E4E093010866C067
:100CF800E034A0E0FA0779F4E0910324E03031F021
:100D08000E94C70CE3E4E093010804C00E94BD0CF4
:100D18000E94CE0C53C0E036A0E0FA0779F4E091C7
:100D28000324E03031F00E94C70CE3E1E0930108AE
:100D380004C00E94C20C0E94CE0C40C0E038A0E063
:100D4800FA0779F4E0910324E03029F00E94C20CFC
:100D58000E94CE0C05C00E94C70CE3E1E093010895
:100D68002DC0E03AA0E0FA0779F4E0910324E030DE
:100D780029F00E94BD0C0E94CE0C05C00E94C70C31
:100D8800E3E4E09301081AC0E03CA0E0FA0791F41C
:100D9800E0910324E03031F00E94C20CE093410856
:100DA800E3E405C00E94BD0CE0934108E3E1E09351
:100DB800010804C00E94A20C0E94D40C04C00E9426
:100DC800A20C0E94D40CE0E0E093060AE0EEE09367
:100DD8000A0678941991E991EFBFF991E991A991DF
:100DE80018950E94A20C0E94A80C0895AA93E88165
:100DF800A8E3B8E0F0E0ED93FC93E881ACE3B8E059
:100E0800F0E0ED93FC93E881A8E7B8E0F0E0ED931B
:100E1800FC93219608952C97A0911324B091142443
:100E2800E0911924F0911A24EA1BFB0B0E942A0E68
:100E3800E887F9876A877B87A885B985D7D40F01A2
:100E48000E94DF0CD001F0E0EA17FB0730F0E0E089
:100E5800E887E987EA87EB8720C00E94E40C0E94B4
:100E6800310F74F40E94DF0CF0E00E94E40C0E9441
:100E78002A0E0E94C00DA887B9878A879B870DC054
:100E88000E94DF0CF0E00E94E40C0E942A0E0E94EF
:100E9800B60DE887F9876A877B87A0914A24B091C5
:100EA8004B2480914C2490914D240E94E90C0E947F
:100EB800BB0DEC83FD836E837F830E94EE0C0E9442
:100EC800EE0CA1E2B0E00E94090C0E94E40C0E9422
:100ED8000F0CE0E1F0E060E070E00E94A70E7F9365
:100EE8006F93FF93EF93A0E2B0E00E94090CAC81EE
:100EF800BD818E819F810E940F0CE2E0F0E060E0EE
:100F080070E00E94A70EAF91BF918F919F910E94B0
:100F1800970CA3E2B0E00E94F00EF0E00E94290FC7
:100F28000CF04FC0A881B98161D4E030A1E0FA0784
:100F380090F00E94F80C0E942D0F1CF4AB85AA2398
:100F480052F0A0914924AA232AF40E94E40C0E949A
:100F5800310F0CF00AC0E885F9850E94F80CEA0FF9
:100F6800FB1FE0934824F09349240E94F80CAD3904
:100F7800E3E6BE0734F0ECE9F3E660E070E00E94D7
:100F8800FD0C0E94F80CA436ECE9BE0734F4E4E644
:100F9800FCE96FEF7FEF0E94FD0CA3E2B0E00E9436
:100FA800090C0E94F80C0E942F0E0E940F0CE0E022
:100FB800F1E060E070E00E94A70E0E949C0C0E9485
:100FC800970CAB81AA2312F4E1E001C0E0E0E093C2
:100FD8000324A881B9810AD4662777270E949F0C29
:100FE800E0912A240E94060D1CF0E0E00E94DA0E2F
:100FF800A4E2B0E00E94F00E0E94060D2CF4A4E2D8
:10100800B0E00E94F00E01C0E881E0932924AFE22D
:10101800B0E00E94F00EA0912924EA1708F053C00E
:10102800E0912524F09126246091272470912824AA
:10103800A0910F24B0911024809111249091122432
:101048000E94370FA8F5E0911B24F0911C243097DB
:1010580071F40E940D0DE0931B24F0931C24E09181
:101068001924F0911A24E0931D24F0931E24A091D2
:101078001D24B0911E24109759F00E94120DE09182
:101088001D24F0911E240E94170DE015F10508F0AB
:1010980001C0F5DD0E94250D0E161F0638F4AFE2DB
:1010A800B0E00E94F00EE093292401C0E8DD0AC0F8
:1010B800AFE0B4E20E94C60EEF5FFF4F6F4F7F4F65
:1010C8000E94CB0E06C00E94250DE015F10508F41C
:1010D800D6DDE0912924E03041F4E0E0E0930A060F
:1010E8000E94A20C0E94D40C03C0E0EEE0930A0612
:1010F800A09129247BDEA0910224A03021F4E09164
:101108000A06E03009F401C06CDEE0E0E093022456
:101118002C9608950E94AA0DE0913F24F091402456
:101128000E942B0DAE17BF0730F4E0913F24F091D9
:1011380040240E94B80CE0914124F09142240E947E
:101148002B0DEA17FB0730F4E0914124F09142247B
:101158000E94B80CA4E3B0E00E94040C0E942B0D7E
:10116800AE1BBF0B8D0111238AF0F8010E942A0ED5
:101178007F936F93FF93EF93ACE2B0E00E94F00E81
:10118800F0E0AF91BF918F919F9110C0F8010E943C
:101198002A0E7F936F93FF93EF93A7E2B0E00E942C
:1011A800F00EF0E0AF91BF918F919F910E942A0EAF
:1011B8000E940F0C0E94140CF901E059F84E0E948D
:1011C800B80CE0912324F09124240E942A0EA091C7
:1011D8003724B09138248091392490913A240E9480
:1011E8000F0CEAE00E94F00DA0913B24B0913C2442
:1011F800EA0FFB1F0E94300D0E94120DA23BE0E097
:10120800BE0724F4E2EBF0E00E94300D0E94120DBC
:10121800AF34EFE0BE0724F0EEE4FFE00E94300DAB
:101228000E94B10DE1C2E0910024E030D1F1E0E08C
:10123800E0930024A5E2B0E00E94F00EF0E0BF01C8
:101248000E942B0D0E94DF0EEA1BFB0B0E94440C30
:10125800EA17FB0754F4FB010E942B0DEA0FFB1F52
:101268000E94440CAE17BF0734F0E0910524F091BA
:1012780006240E94B80C0E942B0DA934EDE0BE078D
:1012880034F00E942B0DA839E1E2BE070CF009C02A
:1012980041DFE0E0E0930D24E0930E24E1E0E093E9
:1012A8000124ADE2B0E00E94F00EE27041F0A0919E
:1012B8000D24B0910E24A23EE4E0BE0708F410C04D
:1012C800E0914324F09144240E94B80C23DFE1E02C
:1012D800E0930124E3EEF4E0E0930D24F0930E2470
:1012E8000895E72DF0E0E770F070EE0FEE0F0E9422
:1012F800350D80809924D101EC91FE2FE0E08E0E0F
:101308009F1EE72DF0E00E942A0EA0E3B5E780E0DB
:1013180090E00E94660ED401882799270E94B60D96
:10132800E0932B24F0932C2460932D2470932E2487
:1013380008951A93E0E0F1E11F01F8940E94A20CCD
:101348000E94D40C10E0183450F40E943C0DFA931B
:10135800EA93E0E00E94410DA8951F5FF4CFE2E414
:10136800F1E1FA93EA93EFE00E94410DE3E4F1E141
:10137800FA93EA93EDE10E94410DE6E4F1E1FA9374
:10138800EA93EFE00E94410DE7E4F1E1FA93EA9372
:10139800EDE10E94410D7724199108950E94AA0D4C
:1013A80020E00E94450DE0E4F1E11F010E943C0DA0
:1013B8000E944C0D0E94510D0E94550D21F4A091E0
:1013C800D5000A1709F021E00E94450DE4E4F1E197
:1013D8001F010E943C0D0E944C0D0E94510D0E945D
:1013E800550D21F4A091D5000A1709F02E5FE0E40D
:1013F800F1E11F01E4E4F1E10E945C0D61F4D20126
:101408007C9010E0143030F40E943C0D0E94630D73
:101418001F5FF8CF16C0E230A0E0FA0769F4D101E7
:101428007C9010E0143038F40E946B0DE0810E942B
:10143800410D1F5FF7CF05C0E330A0E0FA0709F4BC
:1014480078DF20E00E94450DE72DE770EE0FEE0FE4
:101458003E2FF0E00E94350D0E94510D0E94510D63
:101468000E94550D21F4A091D5000A1709F021E03A
:101478000E94450DE32FF0E0E05EFE4E1F010E9442
:101488003C0D0E94510D0E94510D0E94550D21F4F2
:10149800A091D5000A1709F02E5FE32FF0E0E05085
:1014A800FF4E1F01E32FF0E0E05EFE4E0E945C0D50
:1014B80051F410E0143030F40E943C0D0E94630D8A
:1014C8001F5FF8CF14C0E230A0E0FA0759F410E02B
:1014D800143038F40E946B0DE0810E94410D1F5FAB
:1014E800F7CF05C0E330A0E0FA0709F422DF0E9435
:1014F800B10D7AC10E94AA0DE72DE770EE0FEE0F2D
:101508000E2FF0E0E050FF4E9F01A0910924B0910A
:101518000A241196A0930924B0930A241197AC3792
:10152800E2E9BE0708F0B8C0E0910924F0910A2466
:10153800E436A0E0FA0771F4662059F00E94450DE0
:101548007092D300E0E0E093D300E0E4F1E10E9480
:10155800720DA1C0EE36A0E0FA0739F4662021F03A
:10156800E2E4F1E10E94780D96C0E837A0E0FA07BE
:1015780039F4662021F0E3E4F1E10E94800D8BC08C
:10158800E238A0E0FA0739F4662021F0E4E4F1E15A
:101598000E94720D80C0EC38A0E0FA0739F466208A
:1015A80021F0E6E4F1E10E94780D75C0E639A0E08B
:1015B800FA0741F4662029F0E7E4F1E10E94800D82
:1015C800662469C0E03AA0E0FA0751F40E94450D8C
:1015D8001901F40131964F011E2F0E94880D5BC03E
:1015E800EA3AA0E0FA0739F42F5F3F4F1901192DA5
:1015F8000E94880D50C0E43BA0E0FA0729F42E5F52
:101608003F4F0E94910D47C0EE3BA0E0FA0729F436
:101618002D5F3F4F0E94990D3EC0E83CA0E0FA07BD
:1016280049F4205E3F4F0E94450D1901182D0E9474
:10163800880D31C0E23DA0E0FA0739F42F5D3F4F35
:101648001901192D0E94880D26C0EC3DA0E0FA076B
:1016580029F42E5D3F4F0E94910D1DC0E63EA0E08B
:10166800FA0729F42D5D3F4F0E94990D14C0E03F01
:10167800A0E0FA0711F435DE0EC0EA3FA0E0FA0751
:1016880051F4E0E3F5E78E169F0628F0739488245A
:101698009924E1E06E2E05C0E0E0E0930924E09390
:1016A8000A240E94B10DA0C0EA93FA93EFB7EA9317
:1016B800E0911202F0911302EA5AF040E0934E24AE
:1016C800F0934F24E991EFBFF991E99118950E94A1
:1016D800A10DE0911402F0911502EA5AF040E0934E
:1016E8005024F0935124A0915024B0915124A0305B
:1016F800E0E1BE0728F0E0E0E0935024E0935124B5
:1017080019C00E94A10DE0911602F0911702EA5A41
:10171800F040E0935224F0935324A0915224B091C6
:101728005324A030E0E1BE0728F0E0E0E093522423
:10173800E0935324E991EFBFF991E991B991A99107
:1017480018951A930A93A0915224B0915324E2EF6A
:10175800FBE0EA1BFB0BDF01E3E1F0E00E946B0E0C
:101768008F010E3CEFEF1E0714F40EEC1FEF0E3C3A
:10177800E0E01E0714F00DEC10E0E02FEE5C09919C
:10178800199108952497A0914E24B0914F24882749
:101798009927E8EEF3E060E070E00E94410EDF0177
:1017A800CB01EBEFFFE460E070E019C02497A09153
:1017B8005024B091512488279927E5E0F0E060E0B3
:1017C80070E00E94410EA2E3B0E080E090E00E9449
:1017D800410EDF01CB01E0E0F0E160E070E00E9443
:1017E800830E0E949F0CE88124960895BA93AA93C9
:1017F800E991F99130971AF4E095F09531960895AA
:101808000E94E60EE059F04F08950E94F00EF0E0B5
:101818000E942A0E08950E94660EDF01CB010895EA
:10182800E4E6F0E060E070E00E94A70E9F010895F2
:10183800A2E3B0E00E94E60EA0E0B8E00895ACE5AF
:10184800B0E00E94E60E0895A0912F24B0913024B4
:101858008091312490913224DECFE2E0E093650656
:1018680088EE93E00197F1F7089588EE93E00197E9
:10187800F1F708954F5F5F4F83E48A95F1F7089574
:10188800A0910524B09106240895A0911724B09141
:101898001824AF3FEFE7BE070895E0911524F091B3
:1018A8001624E0931724F0931824209117243091DC
:1018B800182408952091172430911824EFEFFFE79A
:1018C800E0931724F09318240895A0910724B09169
:1018D8000824AF3FEFE7BE070895E0912324F09175
:1018E8002424E0930724F0930824209107243091BE
:1018F800082408952091072430910824EFEFFFE78A
:10190800E0930724F09308240895E0E1E093410967
:10191800E1E0E09340090895E0E8E0936606E0918D
:101928006806E07408950E94B60D0E94D50E0895C9
:101938000E94D00E08950E94D50E0895E0914406A5
:10194800EA6EE09344060895E8EAFDEFE093200A82
:10195800F093210AE1E0E0930C0AE3E0E093060A41
:10196800E0E0E0930A060895E0932324F09324240A
:101978000895E8E0E0934606E0E00895E2E0E093A9
:101988004606E0E00895E0E2E0934606E0E0E093F2
:1019980041080895E0930108E3E1E09341080895C0
:1019A800E0E0E0930108E0934108E0914406EA7E14
:1019B800E09344060895A6E2B0E00E94F00E089570
:1019C800A885B9858A859B850895E885F9856A85FE
:1019D8007B850895FADFE0934A24F0934B246093C3
:1019E8004C2470934D240895A0914824B091492423
:1019F8000895E0931F24F09320246093212470938A
:101A08002224089595DFFF27662777270E94370F3E
:101A18000895E0911324F09114240895A0911924B5
:101A2800B0911A240895EA1BFB0BDF010E94FA0B00
:101A38000F01A1E4B0E00E94F00EF0E0EE0FFF1FEE
:101A48000895A0911B24B0911C24E3DFECCFA09152
:101A58002324B09124240895E0931924F0931A24A0
:101A68000895E050FF4E1F0131961F0131970895E8
:101A7800F10131961F0131970895EA93A0E00C9483
:101A88000C04E0ECE093D000E1E0E093D00008958E
:101A980010811093D300712EEBCFE081E093D30037
:101AA800E7CF1081D1010C91A091D4001A170895A5
:101AB8002F01E22FF0E0E130A0E0FA070895FA9351
:101AC800EA93F20131962F013197E081D6CFF201E6
:101AD80031962F013197FA93EA93CACFFA93EA9392
:101AE8007A92A1E00C940C04FA93EA93E091D40062
:101AF800EA93A1E00C940C04FA93EA93E091D500E0
:101B0800EA93A1E00C940C043A932A931A93A1E067
:101B18000E940C041093D30008953A932A93E091FD
:101B2800D400EA93A1E00C940C043A932A93E09130
:101B3800D500EA93A1E00C940C04AA93BA93EA9313
:101B4800FA93EFB7EA9308955A934A933A932A93EC
:101B58001A930A9308955D814C813B812A811981EA
:101B680008810895EA0FFB1F681F791F0895EA1B73
:101B7800FB0B680B790B0895AE1BBF0B860B970BFD
:101B88000895F195E195F0400895F0956095709568
:101B9800E195FF4F6F4F7F4F0895B09580959095D1
:101BA800A195BF4F8F4F9F4F0895EE230E2EE8E06B
:101BB8001E2EFD01BC0179F0011438F0762F6F2F2D
:101BC800FE2FE0E00118C1F70895EE0FFF1F661F12
:101BD800771F0A94D1F70895EE230E2EE8E01E2E03
:101BE800FD01BC0189F0011448F0EF2FF62F672F93
:101BF80070E067FD7FEF0118B1F708957595679557
:101C0800F795E7950A94D1F70895EE230E2EE8E0AC
:101C18001E2EFD01BC0179F0011438F0EF2FF62FCC
:101C2800672F70E00118C1F7089576956795F795C5
:101C3800E7950A94D1F70895EF2FFF27E7FDFFEF07
:101C48000895E62FF72F60E070E008956F2F660F74
:101C5800660B762F08958B2F880F880B982F089581
:101C6800EA17E1E009F4EE270895FA9FF02DEB9FBB
:101C7800F00DEA9FE02DF10D08957A9F702D6B9F6E
:101C8800700DF89F700DE99F700D6A9F602D710DA2
:101C9800FB9F600D711DE89F600D711D8827FA9FDD
:101CA800F02D610D781FEB9FF00D611D781FEA9FE5
:101CB800E02DF10D681F781F08954AD0D6DF0EF485
:101CC80060DF089553D0D9DF0EF45FDF0895002454
:101CD800112490E1AA0FBB1F001C111C0E1A1F0A29
:101CE80018F40E0E1F1E01C0A1609A9599F7FD0108
:101CF800D00108952DD0EBDF0EF443DF08953F9314
:101D08004F935F9300241124A00130E2AA0FBB1F58
:101D1800881F991F001C111C441F551F0E1A1F0AEB
:101D2800460B570B28F40E0E1F1E461F571F01C0E7
:101D3800A1603A9559F7FD01BC01D001CA015F9134
:101D48004F913F91089512D0DADF0EF41EDF089507
:101D5800E894F7FF02C015DF6894B7FF06C0B19595
:101D6800A195B04000F8039400FA0895E89477FF2D
:101D780002C00BDF689497FF04C00FDF00F80394DC
:101D880000FA0895ED91FD916D917D9108957E93EE
:101D98006E93FE93EE930895A881B9818A819B8101
:101DA8000895E883F9836A837B830895E883E98348
:101DB800EA83EB8308951B2EBF2FF12D1A2EAE2F29
:101DC800E12D0895E091CF01E7FDFCCFB05FED91E3
:101DD800FC91A150B0410895E091CF01E7FDFCCFFF
:101DE800B05FEC91B051089507D01196EF93EF2FA3
:101DF80003D0EF911197089523D0B05F8C918E177F
:101E080011F4B05108959E2F1BD07F937FB7F8949B
:101E18009C93B051A093C001B093C10180E080931E
:101E2800C20185E38093CA0188ED91E084BF909355
:101E3800CB0106D080E08093CA017FBF7F910895CF
:101E48008091CF0187FDFCCF089500240E160F0660
:101E5800089500240A160B06089500240A160B0696
:101E6800080609060895EA17FB0768077907089521
:00000001FF
