:060000000C944D020C946B
:1000060000000C9400000C9400000C9400000C946A
:1000160000000C9400000C9400000C9400000C945A
:1000260000000C9400000C9400000C9400000C944A
:1000360000000C9400000C9400000C9400000C943A
:1000460000000C9400000C9400000C9400000C942A
:1000560000000C9400000C9400000C9400000C941A
:1000660000000C9400000C9400000C9400000C940A
:1000760000000C9400000C9400000C9400000C94FA
:1000860000000C9400000C9400000C9400000C94EA
:1000960000000C9400000C9400000C9400000C94DA
:1000A60000000C9400000C9400000C9400000C94CA
:1000B60000000C9400000C9400000C9400000C94BA
:1000C60000000C9400000C9400000C9400000C94AA
:1000D60000000C9400000C9400000C9400000C949A
:1000E60000000C9400000C9400000C9400000C948A
:1000F60000000C9400000C9400000C9400000C947A
:1001060000000C9474030C9400000C9400000C94F2
:1001160000000C9400000C9400000C9403100C9446
:1001260024100C944E100C9400000C9400000C94B7
:10013600B90E0C9400000C9400000C9400000C9472
:1001460000000C9400000C9492030C9400000C9494
:1001560000000C9400000C9400000C9451080C94C0
:1001660000000C9429080C9400000C9400000C94D8
:1001760000000C9400000C9400000C9400000C94F9
:1001860000000C9400000C9400000C9400000C94E9
:1001960000000C9400000C9400000C9400000C94D9
:1001A60000000C9400000C9400000C9400000C94C9
:1001B60000000C9400000C9400000C9400000C94B9
:1001C60000000C9400000C9400000C9400000C94A9
:1001D60000000C9400000C9400000C9400000C9499
:1001E60000000C9400000C9400000C9400000C9489
:1001F60000000C940000000005800F800A001B80A0
:100206001E0014001180338036003C00398028001F
:100216002D8027802200638066006C00698078004C
:100226007D8077807200500055805F805A004B8039
:100236004E0044004180C380C600CC00C980D8006F
:10024600DD80D780D200F000F580FF80FA00EB80D9
:10025600EE00E400E180A000A580AF80AA00BB808C
:10026600BE00B400B180938096009C0099808800FF
:100276008D8087808200838186018C018981980127
:100286009D8197819201B001B581BF81BA01AB8191
:10029600AE01A401A181E001E581EF81EA01FB81C4
:1002A600FE01F401F181D381D601DC01D981C801B7
:1002B600CD81C781C201400145814F814A015B81E1
:1002C6005E0154015181738176017C017981680157
:1002D6006D8167816201238126012C012981380104
:1002E6003D8137813201100115811F811A010B8171
:1002F6000E0104010181038306030C03098318031D
:100306001D8317831203300335833F833A032B8300
:100316002E0324032183600365836F836A037B8333
:100326007E0374037183538356035C035983480326
:100336004D8347834203C003C583CF83CA03DB8350
:10034600DE03D403D183F383F603FC03F983E803C6
:10035600ED83E783E203A383A603AC03A983B80373
:10036600BD83B783B203900395839F839A038B83E0
:100376008E0384038183800285828F828A029B8218
:100386009E0294029182B382B602BC02B982A8028E
:10039600AD82A782A202E382E602EC02E982F802BB
:1003A600FD82F782F202D002D582DF82DA02CB82A8
:1003B600CE02C402C182438246024C0249825802DE
:1003C6005D8257825202700275827F827A026B8248
:1003D6006E0264026182200225822F822A023B82FB
:1003E6003E0234023182138216021C02198208026E
:1003F6000D82078202027B224349223A7B225665FE
:100406007273696F6E223A22312E352E33222C22D8
:1004160050726F6A656374223A2264612D31352DFC
:1004260072733438352F6D6173746572222C2256BF
:10043600617269616E74223A224441313541222C3F
:10044600224275696C64223A223133222C22476992
:1004560074223A2262353939666239396337636202
:1004660062393233393936333239363662333630D9
:10047600363434656364653032313537227D7D002C
:1004860001002D4E414E00494E4600000100292430
:1004960086040000F894EE27F091CC01F860F09302
:1004A600CC01F8EDF4BFE093A20080E090E1A0E07B
:1004B600B0E2ED930197E9F7E2E9F4E085919591D1
:1004C600009761F0A591B59105901590BF01F001D7
:1004D60005900D920197E1F7FB01F0CFE0E0E0B95E
:1004E600E1B9E2B9E3B9E4B9E5B9E6B9E7B9E8B91A
:1004F600E9B9EAB9EBB9ECB9EDB9EEB9EFB92E2E17
:100506003E2E4E2E5E2E6E2E7E2E8E2EE0E89E2ED9
:10051600E0E0AE2EBE2ECE2EDE2EEFEFEDBFEFE2EA
:10052600EEBFC0E0D4E20C94BF0E00000000000055
:1005360000000000F894E7E8E0935200E8E0E0935A
:100546005000E0915100E870E1F3E8EDE4BFE2EC21
:10055600E0935500E8E1E0935000E0915100E0712E
:10056600E1F3E8EDE4BFE4E0E0934000EFE5E0937B
:100576007000E5E0E0937100E3E0E0937200ECE7E1
:10058600E0937300ECE6E0937400EFE7E093750008
:10059600E8EBE0931406E0931506E0931606E09365
:1005A6001706E3E0E0930906E0EEE0930A06E0E0D2
:1005B600E0932406EFE0E0932006E0E4E0935006A3
:1005C600E0935206E0935406EAEEE0934406EFE326
:1005D600E0934006ECE1E0936406E9EBE093600605
:1005E600E0E0E0937206E0937306E8EBE093900692
:1005F600E0939106E0939206E0939306E8E6E09393
:100606000102E7E0E0930402E0E0E0930202E1E0A9
:10061600E0932802E8E0E0932902E1E0E09330026B
:10062600E0E1E0933102E1E0E0933802E8E1E093B3
:100636003902E0ECE0930302E0910002EB60E09304
:100646000002E1E0E0932A02E0933202E0933A02EC
:10065600EBE0E093A509EDEEE093A609E4E9E0936B
:10066600A709E8E1E093A409E8E2E093A309E1E041
:10067600E0930009EFE3FCE9E0932609F0932709EC
:10068600E0910609E07FE260E0930609E1E0E0938D
:100696004009EFEFF0E0E0932608F0932708E3E047
:1006A600E0930008EFEFF0E0E0936608F093670848
:1006B600E3E0E0934008E0E0F0E0E0932808F09300
:1006C6002908E8EDE4BFE3E1E0938000E1E0E09390
:1006D6008100E7E0E093A200E8E0E093CC017894A3
:1006E6000895EA93FA93EFB7EA93E0914406EA6E27
:1006F600E0934406E8EAFDEFE0936009F0936109B0
:10070600E1E0E0934C09E3E0E0934609E0E0E093A2
:100716000A06029AE991EFBFF991E9911895AA9311
:10072600EA93FA93EFB7EA930499ADC0E09108060D
:10073600F0E0E07EF070E032A0E0FA07A1F4009B62
:1007460008C0E8E0E0934606E0E0E0934108E3E114
:1007560007C0E2E0E0934606E0E0E0934108E3E408
:10076600E09301088FC0E034A0E0FA07B1F4009BE3
:100776000AC0E0E2E0934606E0E0E0934108E3E4E5
:10078600E093010809C0E8E0E0934606E0E0E09364
:100796000108E3E1E093410875C0E036A0E0FA07FE
:1007A600B1F4009B0AC0E0E2E0934606E0E0E09385
:1007B6004108E3E1E093010809C0E2E0E093460660
:1007C600E0E0E0930108E3E1E09341085BC0E03834
:1007D600A0E0FA07B1F4009B0AC0E2E0E093460607
:1007E600E0E0E0930108E3E1E093410809C0E0E2BC
:1007F600E0934606E0E0E0934108E3E1E093010878
:1008060041C0E03AA0E0FA07B1F4009B0AC0E8E074
:10081600E0934606E0E0E0930108E3E1E093410857
:1008260009C0E0E2E0934606E0E0E0934108E3E435
:10083600E093010827C0E03CA0E0FA07A1F4009B82
:1008460008C0E2E0E0934606E0E0E0934108E3E416
:1008560007C0E8E0E0934606E0E0E0934108E3E104
:10086600E09301080FC0E0914406EA6EE093440667
:10087600E0E0E0930108E0934108E0914406EA7E57
:10088600E093440670C0E0910806F0E0E07EF07068
:10089600E032A0E0FA0769F4E2E0E0934606E8E019
:1008A600E0934606E0E0E0930108E3E1E0934108C7
:1008B6005AC0E034A0E0FA0769F4E8E0E09346069F
:1008C600E0E2E0934606E0E0E0934108E3E1E093EE
:1008D600010849C0E036A0E0FA0749F4E8E0E093F1
:1008E6004606E3E1E0934108E09301083CC0E038A6
:1008F600A0E0FA0769F4E2E0E0934606E0E2E0935E
:100906004606E0E0E0934108E3E4E09301082BC0EB
:10091600E03AA0E0FA0751F4E2E0E0934606E3E1AC
:10092600E0934108E3E4E09301081DC0E03CA0E049
:10093600FA0751F4E0E2E0934606E0E0E09341086E
:10094600E3E5E09301080FC0E0914406EA6EE09308
:100956004406E0E0E0930108E0934108E091440694
:10096600EA7EE0934406E0E0E0934609E0EEE09399
:100976000A06E991EFBFF991E991A9911895A0911D
:100986002624B0912724AD33EFE0BE0710F0EFEF39
:100996000895A0912624B0912724ECE3FFE0EA1BFA
:1009A600FB0BDF01E4E1F0E00E942A1108950895AF
:1009B600E0914406EA6EE0934406E8EAFDEFE09330
:1009C6006009F0936109E1E0E0934C09E3E0E0930C
:1009D6004609E0E0E0930A060895AA93E881A8E3B1
:1009E600B8E0F0E0ED93FC93E881ACE3B8E0F0E02A
:1009F600ED93FC93E881A8E7B8E0F0E0ED93FC9373
:100A0600019902C0009801C0009A2196089527977F
:100A16000E948F10F201E219F3098F019801A801D3
:100A2600D9010E9478100F01A0E4B0E00E94931152
:100A3600D001F0E0EA17FB0718F020E030E013C021
:100A460000240216030644F4A0E4B0E00E949311C9
:100A5600F0E02E1B3F0B07C0A0E4B0E00E9493110C
:100A6600F0E02E0F3F1FD8010E9478100F01A8E278
:100A7600B0E00E949311D001F0E0EA17FB0718F0EE
:100A860000E010E013C000240016010644F4A8E2BA
:100A9600B0E00E949311F0E00E1B1F0B07C0A8E206
:100AA600B0E00E949311F0E00E0F1F1FDA010E94C2
:100AB60078100F01A1E4B0E00E949311D001F0E09C
:100AC600EA17FB0718F040E050E013C000240416B4
:100AD600050644F4A1E4B0E00E949311F0E04E1B39
:100AE6005F0B07C0A1E4B0E00E949311F0E04E0F47
:100AF6005F1FF901E619F709EB87FC873901A2E4C4
:100B0600B0E00E949311D501F0E0AE17BF073CF0AC
:100B1600A2E4B0E00E949311F0E0AE1ABF0AA40E60
:100B2600B51EECE9F3E6EA15FB050CF45F01E4E615
:100B3600FCE9AE16BF060CF45F01D8010E947810DE
:100B46000F01A9E4B0E00E949311D001F0E0EA178A
:100B5600FB0730F4A9E4B0E00E949311E03009F4F9
:100B660002C0AA24BB24F5010E94F3100E943F1282
:100B7600AFE6B2E183E89BE30E94C1127F936F93D5
:100B8600FF93EF93A3E2B0E00E949311F0E0AF91E0
:100B9600BF918F919F910E94F3100E943F120E9475
:100BA600C1127F936F93FF93EF93F8010E94F310A6
:100BB6007F936F93FF93EF93A1E2B0E00E949311AE
:100BC600F0E0AF91BF918F919F910E94F3100E9428
:100BD6002511DF01CB01E4E00E94C710AF91BF9160
:100BE6008F919F910E943F120E9472127F936F9382
:100BF600FF93EF93EB85FC850E94F3107F936F9331
:100C0600FF93EF93A0E2B0E00E949311F0E0AF9162
:100C1600BF918F919F910E94F3100E9425110E940F
:100C2600E910AF91BF918F919F910E943F120E9450
:100C36007212DE0117960E9408120E947211AA858E
:100C4600AA2312F4019801C0019AAF81B8850E94C7
:100C5600781066277727EF83F88769877A87E09188
:100C66000824F0E03097B9F4A4E2B0E00E949311B2
:100C7600AF81B88589859A85FF27662777270E94E1
:100C8600D4112CF4A4E2B0E00E94931101C0EF81CC
:100C9600E093042416C0E130A0E0FA0791F4E09155
:100CA6000A24AF81B88589859A85FF276627772725
:100CB6000E94D4111CF4E0910A2401C0EF81E09354
:100CC6000424A5E2B0E00E949311A0910424EA173F
:100CD60008F05BC0E0910024F0910124A091022469
:100CE600B0910324EA17FB0708F045C0E0E0F0E8FE
:100CF600E815F90511F441016201E0E0F0E8EC15B0
:100D0600FD0579F0D601A419B5090E9478100F01E6
:100D1600A7E2B0E00E949311D001F0E0EA17FB07CA
:100D260008F009C0E0E0E0930224E0930324E0E049
:100D3600F0E84F016F01D101A819B9090E94781096
:100D46000F01A7E2B0E00E949311D001F0E0AE17C8
:100D5600BF0738F4A5E2B0E00E949311E0930424A3
:100D660009C0E0E0E0930224E0930324E0E0F0E829
:100D76004F016F0109C0E0910224F09103243196DE
:100D8600E0930224F093032409C0E0E0E0930224F8
:100D9600E0930324E0E0F0E84F016F01F0DDEE831D
:100DA600A7E4B0E00E949311AE81AE1770F4A6E4FA
:100DB600B0E00E949311E13040F0A2E2B0E00E9460
:100DC6009311A0910424EA1708F47AC0A7E4B0E0CE
:100DD6000E949311F0E00E94F310DF01CB01EE8137
:100DE600F0E00E94F3100E947B110E949D107F93F9
:100DF6006F93FF93EF93A6E4B0E00E949311F0E0A7
:100E06000E94F310AF91BF918F919F910E9425117F
:100E1600EF83F88769877A87A8E4B0E00E94931188
:100E2600AF81B88589859A85FF27662777270E942F
:100E3600D4115CF4A8E4B0E00E949311FF27662762
:100E46007727EF83F88769877A87AF81B8858985A1
:100E56009A85A833E0E0BE07E0E08E07E0E09E0753
:100E660044F0E7E3F0E060E070E0EF83F88769873D
:100E76007A87AF81B88589859A850E94CE1154F408
:100E8600EF81E0930424E0EEE0930A06049B90DDF4
:100E9600049A15C00498E0E0E0930A06E09304245F
:100EA600E0914406EA6EE0934406E0E0E093010830
:100EB600E0934108E0914406EA7EE093440621C0AF
:100EC6000498A2E2B0E00E949311A0910424EA17CC
:100ED600A8F0E0E0E0930A06E0930424E0914406DB
:100EE600EA6EE0934406E0E0E0930108E0934108EF
:100EF600E0914406EA7EE093440603C0E0EEE09308
:100F06000A060E9496102D960895E0910824F0E0B6
:100F1600309729F47CDDA09104245FDD71C0E130B7
:100F2600A0E0FA0729F473DDA091042456DD68C019
:100F3600E230A0E0FA07B1F4E0E0E0930A06049894
:100F4600E0914406EA6EE0934406E0E0E09301088F
:100F5600E0934108E0914406EA7EE0934406A0E06F
:100F66003CDD4EC0E330A0E0FA07C9F4E0E0E093D0
:100F76000A060498E0914406EA6EE0934406E0E02F
:100F8600E0930108E0934108E0914406EA7EE0938D
:100F96004406EFEFE0934406A0E01FDD31C0E430E5
:100FA600A0E0FA07A1F4E0E0E0930A060498E2E084
:100FB600E0934606E8E0E0934606E0E0E0930108A9
:100FC600E3E1E0934108A0910A2407DD19C0E5306A
:100FD600A0E0FA0749F4E0EEE0930A0604980198C7
:100FE600A0910A24FADC0CC0E630A0E0FA0741F42E
:100FF600E0EEE0930A060498019AA0910A24EDDC3B
:10100600029904C0E0910A06E03009F401C0D0DC80
:1010160002980895AA931A93ACEFB3E00E94821047
:101026001E2FA981B0E0AF3FE0E0BE0711F4E12F2B
:101036000AC0A981A11710F0E0E005C0E981F0E03F
:10104600E450FC4FE491188122960895AA93EA93FE
:10105600FA93EFB7EA93A0911C24A63068F4E091C6
:101066001C24EF5FE0931C24E150F0E0EB5EFB4DA7
:10107600E081E093A0090CC0E1E0E0936606E2E0BF
:10108600E0932606E8E0E0936206E8E1E093A4092F
:10109600E991EFBFF991E991A99118950A921A92EF
:1010A600FA926A937A938A939A93AA93BA93EA9353
:1010B600FA93EFB7EA9305993EC0E0910C24E093CA
:1010C6000B24E0910D24E0930C24E0910E24E09390
:1010D6000D24E0910F24E0930E24E0911024E09378
:1010E6000F24E091A009E0931024A0E3B0E00E9451
:1010F6009311A0910C24EA1711F0AF31D9F4ABE0AB
:10110600B4E22BD0A0911024EA1731F4A0910F2459
:10111600E0911D24EA1709F00DC0E0910B24E0933D
:101126001224E0910D24E0931324E0910E24E09321
:101136001424059A04C0E091A009E0931124E991D2
:10114600EFBFF991E991B991A99199918991799115
:101156006991F990199009901895BA93AA930E94EB
:1011660091100FEF1FEF30E03430D0F4212F102F05
:101176000027022E1124AC81BD81EE27A30FBE1FCE
:10118600EC91F0E0E025F125ACEFB1E0EE0FFF1FAA
:10119600EA0FFB1F0E9477110E271F273F5FE4CF40
:1011A60010931D24E02F0E949810269608952497E8
:1011B6000E948F10E0911224F0E0ED3DA0E0FA07C6
:1011C60009F065C0E4E4E09315240698E091132441
:1011D600E07E21F4E0911424E07809F02CC000911F
:1011E60013241127D801E7E00E94B610DF01E09131
:1011F6001424F0E0EA0FFB1F8F010138EFE01E0711
:101206001CF000E81FE006C00038E0E01E0714F4FA
:1012160000E810E0F801E050F8400E94F3100E9448
:101226003F12A2E8B2EE87E19FE30E94C1120E943C
:1012360008122F01039AF1010E94F3100E943F1237
:10124600AEE9BFEE87ED9FE30E94C112A0E0B0E0D9
:1012560080E095E40E9472120E9408128F010E949B
:10126600EE103E2FEE0FEE713E2F07FF05C0E32F67
:10127600EF5FE093172402C030931724E02FEF7737
:10128600E0931824E0910924E09308246BC5E6371F
:10129600A0E0FA0741F50698B0911324A0E0E0918A
:1012A6001424F0E0EA0FFB1F8F010237E8EF1E0758
:1012B60014F402E718EF0F38E7E01E0714F00EE803
:1012C60017E02801E6E5E0931524039A0698F10154
:1012D6000E94EE10E093172420921824E09109242E
:1012E600E09308243FC5E936A0E0FA0769F4E091E7
:1012F6001324E03021F4E0911424E03009F032C5E3
:10130600E9E4E0931524E2CFE737A0E0FA0709F510
:101316000698B0911324A0E0E0911424F0E0EA0FBF
:10132600FB1F8F010237E8EF1E0714F402E718EFE0
:101336000F38E7E01E0714F00EE817E02801E0E09A
:10134600E0931524039A0698E0910924E093082473
:1013560009C5E837A0E0FA0709F0ACC00698B091D5
:101366001324A0E0E0911424F0E0EA0FFB1F8F01A4
:10137600A5E4B0E00E949311E27021F0F8010E940A
:10138600A2108F010237E8EF1E0714F402E718EFE8
:101396000F38E7E01E0714F00EE817E000240016E9
:1013A60001069CF4F8010E94F3107F936F93FF935C
:1013B600EF93A3E4B0E00E949311F0E00E94F310D3
:1013C600AF91BF918F919F9112C0F8010E94F310C7
:1013D6007F936F93FF93EF93A4E4B0E00E94931181
:1013E600F0E00E94F310AF91BF918F919F910E9400
:1013F6002511EE83FF8368877987AE81BF81888553
:101406009985E4E6F0E060E070E00E9461118F01EA
:101416000237E8EF1E0714F402E718EF0F38E7E08B
:101426001E0714F00EE817E02801E8E5E0931524FE
:10143600039A0698D1010E94F810E4E6F0E060E015
:1014460070E00E942511EE83FF8368877987AE815D
:10145600BF81888599850E94CE111CF4A3E4B0E073
:1014660002C0A4E4B0E00E949311F0E00E94F310E1
:10147600AE81BF81888599850E946111EE83FF83C5
:10148600688779870E811F81A5E4B0E00E949311D9
:10149600E27021F0F8010E94A2108F01F8010E946B
:1014A600EE10E093172400931824E0910924E093AA
:1014B600082458C4E937A0E0FA0769F4E091132438
:1014C600E03021F4E0911424E03009F04BC4E9E562
:1014D600E0931524AECFE939A0E0FA0749F5E0918B
:1014E6001324E03021F4E0911424E03009F03AC4EA
:1014F600ECE4E093152406981BD5E0930724A0910D
:101506000524B0910624E0E0F8E0EA1BFB0BA2E319
:10151600B0E00E949C11442455240AD5E093072488
:10152600F1010E94EE10E0931724209218241AC4A9
:10153600EA3AA0E0FA0729F50698E0911424A0916A
:101546001324EA1709F00EC4E0911324E03021F0C9
:10155600A0911324AF3108F005C4E5E5E093152406
:10156600E0911324E0931724E0911324E0931824C8
:10157600E0911324A0E3B0E00E94A411E0931624A6
:10158600F1C3EA3DA0E0FA07B1F40698E09113240E
:10159600E03021F4E0911424E03009F0E3C3EDE6F5
:1015A600E0931524E0911624E0931724E091162485
:1015B600E0931824D7C3EB3BA0E0FA0721F5069881
:1015C600B0911324A0E0E0911424F0E0EA0FFB1F91
:1015D6008F010237E8EF1E0724F00F38E7E01E07F9
:1015E6000CF0C0C3EDE5E0931524F801A6E3B0E0E6
:1015F6000E949C11E0911324E0931724E091142497
:10160600E0931824AFC3E039A0E0FA07E1F4E091D3
:101616001324E03021F4E0911424E03009F0A2C351
:10162600E0E6E09315240698A6E3B0E00E94881150
:101636000E94EE10E0931724A6E3B0E00E949311F7
:10164600E09318248FC3EC3BA0E0FA07C9F4E091BD
:101656001324E03021F4E0911424E03009F082C331
:10166600ECE5E09315240698F101A6E3B0E00E94AC
:101676009C110E94EE10E09317242092182472C346
:10168600EC3CA0E0FA07F9F40698E0911424A09146
:101696001324EA1709F066C3A0911324A03808F0B2
:1016A60061C3E6E6E0931524E0911324E093172442
:1016B600E0911324E0931824E0911324A5E3B0E00D
:1016C6000E94A4114FC3E139A0E0FA07B1F4E091FA
:1016D6001324E03021F4E0911424E03009F042C3F1
:1016E600E1E6E09315240698A5E3B0E00E94931185
:1016F600E0931724E093182435C3E13BA0E0FA07F2
:1017060049F50698E0911324E03021F4E091142481
:10171600E03009F027C3E1E3E0931524A0912224E9
:10172600B091232488279927E8EEF3E060E070E083
:101736000E942511DF01CB01EBEFFFE460E070E0D2
:101746000E9461118F0100931724E0911724E09302
:10175600182408C3E03BA0E0FA0739F50698E091A3
:101766001324E03021F4E0911424E03009F0FAC2A9
:10177600E0E3E0931524E0912424F09125246627E4
:1017860077270E943F12DF01CB01EAE9F9E961E818
:1017960071E40E940F13A7E1B4E20E940612EC93D3
:1017A600E0911724E0931824DDC2E03CA0E0FA079C
:1017B60021F50698E0E1E0931524A0912624B09146
:1017C6002724AD33EFE0BE0730F0E0E0E0931724C6
:1017D600E0931824C7C2A0912624B0912724ECE3F5
:1017E600FFE0EA1BFB0BDF01E4E1F0E00E942A11B7
:1017F600E0931724E0931824B5C2E53EA0E0FA076B
:10180600E9F50698E5E4E0931524E0911424F0E068
:10181600E130A0E0FA0751F4F101FF708F010E9458
:10182600EE10E09317240093182427C0E230A0E0BE
:10183600FA0761F4E0E0E0931724E0910806E07E01
:10184600F0E0F595E7950E94E01015C0E330A0E0C2
:10185600FA0739F4E0910724E0931724E09107246E
:101866000AC0E0910524F09106240E94EE10E09350
:101876001724E0910524E093182474C2E43FA0E005
:10188600FA0769F4E4E1E0931524E0911324E09368
:101896001724A0911324BEDBE093182463C2E03E14
:1018A600A0E0FA0731F4E0E4E093152440E051E0CB
:1018B6001DC0E13EA0E0FA0731F4E1E4E09315240F
:1018C60040E351E013C0E23EA0E0FA0731F4E2E45F
:1018D600E093152440E651E009C0E33EA0E0FA0794
:1018E600C1F5E3E4E093152440E951E00698E09160
:1018F6001324E03021F4A0911424A13208F032C25E
:1019060030E0303290F4E32FF0E0E40FF51FE0937F
:101916001E24F0931F24A0911E24B0911F240E9420
:101926009311E03011F03F5FECCFE0911424F0E02A
:10193600E40FF51FE0931E24F0931F24A0911E24AC
:10194600B0911F240E949311E0931724309318241A
:1019560009C2E73EA0E0FA07F1F40698A091132425
:10196600A03210F0A13308F0FDC1E7E4E09315249E
:10197600E0911424F0E0E0931E24F0931F24A0913C
:101986001E24B0911F240E9493113E2F30931724DA
:1019960030931824E7C1E83EA0E0FA0789F5069BD4
:1019A60006C0A0911324A03210F0A13308F0DAC1CA
:1019B600E8E4E0931524E0911324F0E0E0931E247C
:1019C600F0931F24E0911424A0911E24B0911F24AB
:1019D6000E94A411A6E2B0E00E949311F0E0A4EFE9
:1019E600B1E00E94FD10E0930024F0930124E09101
:1019F6001324E0931724E0911424E0931824B2C131
:101A0600E63DA0E0FA0731F4E6E8E093152440E06D
:101A160051E01DC0E73DA0E0FA0731F4E7E8E093A6
:101A2600152440E351E013C0E83DA0E0FA0731F485
:101A3600E8E8E093152440E651E009C0E93DA0E05E
:101A4600FA0731F5E9E8E093152440E951E0A09161
:101A56001424A13210F4069901C084C1E091132424
:101A6600E0931724E0911424E0931824E0911424C1
:101A7600F0E0E40FF51FE0931E24F0931F24E0919D
:101A86001324A0911E24B0911F240E94A4116AC1A0
:101A9600E83FA0E0FA07B1F40698E8EFE0931524D2
:101AA600E0911424F0E0E0931E24F0931F24A0910B
:101AB6001E24B0911F240E949311E0931724E093F3
:101AC600182450C1E93FA0E0FA0751F5069B4AC128
:101AD600E9EFE0931524E0911324F0E0E0931E244F
:101AE600F0931F24E0911424A0911E24B0911F248A
:101AF6000E94A411A6E2B0E00E949311F0E0A4EFC8
:101B0600B1E00E94FD10E0930024F0930124E091DF
:101B16001324E0931724E0911424E093182422C19F
:101B2600E93EA0E0FA07C1F4E9E4E093152406983B
:101B3600E0911424F0E0E050FF4FE0931E24F09370
:101B46001F24A0911E24B0911F240E949311E0939C
:101B56001724E093182406C1EA3FA0E0FA07F9F437
:101B6600069B00C1EAEFE0931524E0911324F0E010
:101B7600E050FF4FE0931E24F0931F24E0911424BD
:101B8600A0911E24B0911F240E94A411E091132459
:101B9600E0931724E0911424E0931824E3C0EA3973
:101BA600A0E0FA0709F0A7C00698F0911324E0E038
:101BB600AF01E0911424F0E04E0F5F1F042E052ABA
:101BC60021F4E2E0E09309248EC0E0E0F0E8E417B7
:101BD600F50719F4E093092486C0E1E0F0E8E4177C
:101BE600F50721F4E3E0E09309247DC0FA01E070F3
:101BF600E030ABEAFA0771F4E4E0E0930924E093FD
:101C06000824FA01F070F89710F047E350E040938B
:101C16000A2469C0FA01E070E030ADEFFA0741F43A
:101C2600E5E0E0930924E093082440930A245BC08E
:101C3600FA01E070E030ADEBFA0741F4E6E0E0933C
:101C46000924E093082440930A244DC04030E1E083
:101C56005E0730F4E1E0E093092440930A2443C090
:101C6600E2E0F0E8E417F507E9F5E0910924F0E091
:101C7600309719F440E050E834C0E130A0E0FA07AC
:101C860021F440910A2455272CC0E230A0E0FA073F
:101C960019F440E050E025C0E330A0E0FA0719F45B
:101CA60041E050E81EC0E430A0E0FA0731F4E091CC
:101CB6000A24F0E0E050F54513C0E530A0E0FA074D
:101CC60031F4E0910A24F0E0E050F34009C0E63038
:101CD600A0E0FA0731F4E0910A24F0E0E050F34482
:101CE600AF0101C03FC0EAE4E093152450931724E6
:101CF6004093182437C0EF3FA0E0FA0799F5A0916A
:101D06001324A13421F4A0911424AF3309F00BC09D
:101D1600069AEFEFE0931524E1E4E0931724E5E457
:101D2600E09318241FC0A0911324A23531F4A0918A
:101D36001424A23511F4069901C014C0E09144069A
:101D4600EA6EE0934406E0E0E0930108E093410880
:101D5600E0914406EA7EE0934406A0E00E94F00487
:101D6600F894FFCF0E9496102A960895EA93E1E030
:101D7600E0932824E991189510E000E00E949D0266
:101D8600A5E4B0E00E949311F0E0E170F070E1305C
:101D9600A0E0FA0721F4E1E0E093250603C0E1E0C4
:101DA600E0932606A6E2B0E00E949311F0E0A4EFCD
:101DB600B1E00E94FD10E0930024F0930124B8D016
:101DC600E0930724A0E3B0E00E949311E093162469
:101DD6000598ABE2B0E00E949311E47011F0210186
:101DE60005C0A6E3B0E00E9488112F01ABE2B0E087
:101DF6000E949311E27009F011E0ABE2B0E00E949C
:101E06009311E17009F001E0E0912824E03009F433
:101E160054C0E0E0E0932824E0912024F0912124AE
:101E26003196E0932024F0932124A89581D0E09365
:101E36000724039B02C0003009F001C011E0A5E3AE
:101E4600B0E00E949311E030A9F1A5E3B0E00E9452
:101E56009311A2E3EA9FF001A0912024B0912124DE
:101E6600EA17FB0738F5A6E3B0E00E9488112F01B8
:101E7600EEECF1E3E0932024F0932124ACE2B0E011
:101E86000E949311E031B0F010E0E0E0E0930A0622
:101E9600E0914406EA6EE0934406E0E0E093010830
:101EA600E0934108E0914406EA7EE0934406A0E010
:101EB6000E94F004103009F028D8059B37C0003086
:101EC60009F011E0E0E0E0932024E0932124E09380
:101ED60015246DD9E0911524E03039F1A5E1B4E27D
:101EE6003CD9E0931A24E0911D24E0931924E09153
:101EF6000924E0930824E1E0E0931C24E0936506BE
:101F0600E2E0E0932506E8E0E0936106E093A409A9
:101F1600000000000000000000008CE291E0019744
:101F2600F1F7E0911524E093A00905986DCFFFCF56
:101F36000E948F1020E030E000E051E0E0E1E09305
:101F4600660600000000000000000000E0E8E093E4
:101F5600660610E01C30C8F4000000000000000017
:101F66000000E0E8E0936506220F331F0000000042
:101F7600000000000000E0936606E0916806E07449
:101F860011F02F5F3F4F1F5FE5CF10E01630B8F41A
:101F960000000000000000000000E0E8E093650695
:101FA600000F00000000000000000000E09366063D
:101FB600E0916806E07409F00F5F1F5FE7CFE0E885
:101FC600E09365062093052430930624A2E3B0E04F
:101FD6000E9488112E0F3F1F3F70E0E0F8E0E21BE1
:101FE600F30B1F01E0E1E0936506E02FE8730E2F87
:101FF600E03209F050E0E52F0E94961026960895EB
:102006000A921A92AA93BA93EA93FA93EFB7EA93CB
:102016000090120210901302A0E1B0E00E9493110A
:10202600F0E0D001AE1BBF0BA0932224B093232473
:10203600E991EFBFF991E991B991A99119900990A8
:1020460018950A921A92AA93BA93EA93FA93EFB75B
:10205600EA930090140210901502A0E1B0E00E94ED
:102066009311F0E0D001AE1BBF0BA0932424B093D4
:102076002524A030E0E1BE0728F0E0E0E093242428
:10208600E0932524E991EFBFF991E991B991A991DE
:102096001990099018950A921A92AA93BA93EA93FC
:1020A600FA93EFB7EA930090160210901702A0E198
:1020B600B0E00E949311F0E0D001AE1BBF0BA093DD
:1020C6002624B0932724A030E0E1BE0728F0E0E004
:1020D600E0932624E0932724E991EFBFF991E99153
:1020E600B991A991199009901895BA93AA93E99173
:1020F600F99130971AF4E095F09531960895BA93D0
:10210600AA93AA27BB27E991F9910590002011F01F
:102116001196FBCFFD0108955A934A933A932A9359
:102126001A930A9308955D814C813B812A81198116
:1021360008810895EA1BFB0B680B790B0895F1954E
:10214600E195F0400895F09560957095E195FF4F03
:102156006F4F7F4F0895B09580959095A195BF4F8D
:102166008F4F9F4F0895EE230E2EE8E01E2EFD01A1
:1021760051F0011420F0FE2FE0E0011821F0EE0FDF
:10218600FF1F0A94E1F70895EE230E2EE8E01E2EB7
:10219600FD01BC0189F0011448F0EF2FF62F672FDF
:1021A60070E067FD7FEF0118B1F7089575956795A3
:1021B600F795E7950A94D1F70895F595E795F5957E
:1021C600E795F595E795F595E795089575956795DE
:1021D600F795E7950895EF2FFF27E7FDFFEF0895A1
:1021E6006F2F660F660B762F08958B2F880F880B3F
:1021F600982F0895FA9FF02DEB9FF00DEA9FE02DA2
:10220600F10D08957A9F702D6B9F700DF89F700DDC
:10221600E99F700D6A9F602D710DFB9F600D711D0A
:10222600E89F600D711D8827FA9FF02D610D781FBC
:10223600EB9FF00D611D781FEA9FE02DF10D681FE1
:10224600781F089540D0DEDF0EF47DDF0895002468
:10225600112490E1AA0FBB1F001C111C0E1A1F0AA5
:1022660018F40E0E1F1E01C0A1609A9599F7FD0184
:10227600D00108953F934F935F9300241124A0014A
:1022860030E2AA0FBB1F881F991F001C111C441F98
:10229600551F0E1A1F0A460B570B28F40E0E1F1E4B
:1022A600461F571F01C0A1603A9559F7FD01BC01B1
:1022B600D001CA015F914F913F91089504D0DADFB2
:1022C6000EF441DF0895E89477FF02C03CDF68947E
:1022D60097FF04C040DF00F8039400FA0895ED93D9
:1022E600FD936D937C9308950590F491E02D0895E8
:1022F600182E862F612D192E972F712D1B2EBF2F6D
:10230600F12D1A2EAE2FE12D0895A895E091CF015B
:10231600E7FDFBCFB05FED91FC91A150B041089570
:10232600A895E091CF01E7FDFBCFB05FEC91B051EE
:10233600089507D01196EF93EF2F03D0EF911197E1
:10234600089523D0B05F8C918E1711F4B051089583
:102356009E2F1BD07F937FB7F8949C93B051A09388
:10236600C001B093C10180E08093C20185E38093F0
:10237600CA0188ED91E084BF9093CB0106D080E03E
:102386008093CA017FBF7F910895A8958091CF0160
:1023960087FDFBCF089500240A160B0608060906DA
:1023A6000895EA17FB07680779070895552342F44D
:1023B600503811F4E0FF04C03196691F791F6BF0A5
:1023C60050E8572711F45F93C8C05F3F31F0660F9E
:1023D600000C57956795752F08955F9300200AF0B6
:1023E600C7C0C0C050E8192E1522880F991F95271F
:1023F600550F879550E8072E0522660F771F75271C
:10240600550F67950895689401C0E8945F93F2DFCD
:10241600703818F07F3F08F4A0C056E1571BAAF4A5
:10242600519558300EF4593030F0EFEFFFEF6FEF63
:102436007FE777F91AC077275523B9F0EE0FFF1F0C
:10244600661F771F5A95D1F710C07727583028F0A6
:10245600EF2FF62F672F5850F9CF552331F0769589
:102466006795F795E7955A95D1F700200AF46BDE44
:102476005F910895689401C0E89430976040704079
:10248600B1F0002426F0772312F400945CDE172EB8
:102496007EE1112032F07A95EE0FFF1F661F111CA8
:1024A600F9CFEF2FF62F612D5F938ADF5F910895A5
:1024B6004F93AF01FD01DA01AB01BC01CA01402D0A
:1024C600012C142E4F910895EA0FFB1F681F0895E3
:1024D600E095F0956095EF5FFF4F6F4F08955F931E
:1024E60081DF903839F1703821F1572F591B2BF1C4
:1024F60012F4DEDFFACF583118F0AA27BB27882757
:10250600583028F0AB2FB82F88275850F9CF5523CD
:1025160029F08695B795A7955A95D9F7502D512547
:1025260072F0D2DF38F46795F795E795739513F453
:102536001FC0BEDF45DF5F910895D8F7FBCFEA1BCA
:10254600FB0B680B51F010F40094C2DF662392F384
:10255600EE0FFF1F661F7A95CBF7EE27FF27BF0109
:102566005F910895EFEFFFEF6FE77FEF5F910895BB
:10257600EFEFFFEF6FE77FE75F9108955F9332DF3D
:10258600703859F3903849F301240894791F23F4DD
:1025960024F300203AF3ECCF0F921F932F933F932F
:1025A6004F93112722279927689FA0018F9F302DCF
:1025B600410D591F6B9F300D411D591F8E9F27D00E
:1025C600BF9F25D06A9F23D0BE9F1DD0AF9F1BD033
:1025D600AE9F110D291F391F491F591FE32FF42FD5
:1025E600652F522F4F913F912F911F910F90662388
:1025F6002AF0550FEE1FFF1F661F02C073954BF2A0
:10260600D5DE5F910895100D211D391F02C0200DE2
:10261600311D491F591F08955F93E4DE703821F478
:1026260011200AF49FCFA4CF903809F496CF012445
:102636000894970B1BF4D4F30020F3CF792F1F9344
:102646002F933F934F931124112722273327A90154
:1026560090E2AE17BF078607410730F0AE1BBF0BEF
:10266600860B410B089401C08894551F221F331F07
:10267600111CAA1FBB1F881F441F9A9551F7F90109
:10268600612D4F913F912F911F91662332F0550F87
:10269600EE1FFF1F661F7A954BF288DE5F91089545
:00000001FF
