:10100000B0410020455F0000415F0000415F0000EB
:1010100000000000000000000000000000000000D0
:1010200000000000000000000000000075620000E9
:101030000000000000000000416300008563000024
:10104000415F0000415F0000415F0000E14000009F
:10105000415F0000415F0000415F0000B5170000E4
:10106000415F00006D4F0000415F0000C55000006F
:10107000415F000000000000000000008D2E000015
:1010800000000000415F0000415F0000415F000080
:10109000415F0000415F0000415F0000415F0000D0
:1010A000415F0000415F0000415F0000415F0000C0
:1010B000415F0000415F0000415F000010B5064C39
:1010C0002378002B07D1054B002B02D0044800E009
:1010D00000BF0123237010BDC000002000000000ED
:1010E000DC020100084B10B5002B03D0074908486B
:1010F00000E000BF07480368002B00D110BD064B7D
:10110000002BFBD09847F9E700000000C400002046
:10111000DC020100DC02010000000000224B30B5BF
:10112000984234D0214B984200D030BD8025204CCD
:10113000ED02E3692B43E361842340251D4C5B00F2
:10114000E5500123047823430F2403708378214062
:10115000A34319430423817041890B430321438135
:1011600043890A402D318B4312011A43428102897F
:10117000114B1340C0225201134303814523072220
:10118000037343789343042213434370CDE78025D0
:10119000074CAD02E3692B43E36182234025054CF4
:1011A0005B00E550CDE7C0460044004200480042E5
:1011B00000080040001C0040FFE0FFFF022203780F
:1011C0009343037003891D32934311401943022353
:1011D000018102781A430270012281790A438271E7
:1011E000027E1343037670478079C007C00FC0B2F8
:1011F0007047C046808C80B27047C046012330B52E
:101200000125846923438361836901241D42FBD046
:10121000022385692B438361436DA3434365036DBB
:101220001C43046505290FD81D4B89005B589F4658
:101230001C4BC361052A07D81B4B92009B589F4645
:101240001A4BC361052AF7D900201AE0184BF0E7C2
:10125000184BEEE780235B00EBE7174BE9E7174BF2
:101260000222C3608369934383618369013A934394
:10127000836183691A42FCD10123426D13434365A4
:10128000012030BD8223DB00EAE7A3231B01E7E74F
:101290000B4BE5E70B4BE3E780235B00E0E7C04641
:1012A000F8ED0000030A030010EE0000030A01003D
:1012B000030A000001040000030A0700300A0300CB
:1012C000300A0100300A070070B584B00400102213
:1012D0000E006846274907F095FCA423E258520601
:1012E00041D03F21E258244B150A294009015918E1
:1012F00000293BD00B685B00DA0F002B22DB0023B8
:1013000073730B68DB005B0D33600B689B00DA0FB7
:10131000002B21DB4B689B0222D46A464B68B068E5
:101320001B031B0FD25C0831327307F06BFCA82142
:101330003F202A0063580240834300201343635038
:1013400004B070BD72730B68DB00DB0833600B68A0
:101350009B00DA0F002BDDDA32714B689B02DCD583
:1013600002233371D9E70A204042E9E71C204042BA
:10137000E6E7C04628EE000020010020C42370B537
:10138000C2580400920200D580E0C0584A4BC00207
:10139000C00E00011818002800D177E04B7B012B0C
:1013A00044D00B689B0403600B7B082B24D90C2BC7
:1013B00044D84268414B13409022120313434360C8
:1013C0000B79023B012B23D942683D4B134043600C
:1013D00042683C4B134043600A7B0830896807F041
:1013E00011FCC4230122E3580020DB02DB0E9A40EB
:1013F0001300D022A35070BD0F22134045681A0479
:101400002E4B2B40134343600B79023B012BDBD85F
:10141000802243689203134343600B79032BD7D197
:1014200080224368520313434360D5E780220B6850
:10143000D2050360036813430360B5E7102B09D995
:10144000142B0FD842681D4B1340B02212031343D4
:101450004360B5E74268194B1340A02212031343BF
:101460004360ADE7182B09D9202B12D84268134BE3
:101470001340D022120313434360A1E742680F4B8D
:101480001340C02212031343436099E71C204042DB
:10149000B1E7302B07D84268084B1340E022120313
:1014A000134343608CE7402B00D989E7F02243685F
:1014B00012031343436083E7DC000020FFFFF0FFCB
:1014C000FFFFDFFFFFFFEFFF030070B50020914239
:1014D00022D8002B21D11F4B1C78022C36D0651C42
:1014E0001D701D4DA400490566594B091B49520545
:1014F0003140194361516159530DCA0AD2021A434E
:10150000625163599B009B0863516259144B13400D
:10151000802212051343635170BD012BFCD1114C85
:101520002378042B12D05D1C257080250E4CDB0027
:1015300019511959AD05C900C90829431951E318B2
:101540005A605A68920092085A60E5E70C204042BF
:10155000E2E7C0467001002074010020FFFF00F8A0
:10156000FFFFFFC7FC00002000010020022283696A
:10157000934383618369013A9343836183691A4288
:10158000FCD10123426D13434365704770B57D253F
:10159000124C002304342600A94206D00133DBB2EA
:1015A000062B04D020CEA942F8D1190000E0062174
:1015B0007D250023AA4206D00133DBB2062B0AD0D8
:1015C00020CCAA42F8D10022062905D01A00FFF744
:1015D00015FE020000E00022100070BD38EE000091
:1015E0002D4B10B5984200D010BD80212B4A4900E8
:1015F00013690B431361E823294ABE39D15082692C
:10160000E73B1343836141398269234B1142FBD08D
:101610000222996900200A43C0219A619A698900CF
:101620000A439A611F4A9860DA611F4A1F49DA60CB
:101630001F4A80241204120C0A43A0215A50BC22D3
:10164000802198500C3298501A4A89041204120CC6
:101650000A43C0215A50F0221749A4020904090C78
:10166000214399502821703A9950144A5C31120450
:10167000120C22435A508021114AC9021204120C42
:101680000A4388215A5090220E4999500E4B1870E7
:101690000E4B1870A8E7C046001C0042000800402E
:1016A000001C0040030A0500330A0000000004800B
:1016B00020010020DC0000206001002074010020D7
:1016C00000010020FFFFFF1F70010020FC00002030
:1016D0008422164B5A60164B833A1A71154A164BE0
:1016E000138202231375002353750733937593698F
:1016F000002BFCD10F49CA680E4BD207FBD58021C5
:101700001A8A09010A431A82DA68D206FCD50B4903
:101710000B4B0C480B624A68084B0242FBD10A4A49
:1017200008499A625A680A42FCD170470040004159
:10173000000800400010004006430000001C00406C
:1017400006010100FD07000000010100802110B525
:10175000104A8903D36901240B43D36188234021B4
:101760000D4A5B00D15001230C490A7813430B70DA
:101770000B690A4A01202340FAD19370507013700C
:101780001075117802330B4302211370136919424B
:10179000FCD110BD00080040001C00400054004275
:1017A0000421034A108113691942FCD17047C046D5
:1017B00000540042F0B55F4656464D464446174930
:1017C0003F238A463F21F0B4154A8946D65C0F3143
:1017D000F3B2884647399B46012000238C464025BA
:1017E0000227546A2100D940DEB2084209D051468E
:1017F000C85449465654414666465654515DB9430D
:1018000051550133052BEDD15946054A3A33D15490
:101810003CBC90469946A246AB46F0BD90010020E4
:101820000060004180210220114A13690B431361BB
:10183000104B1A8882431A800122013818800E4802
:1018400058630E4898630E4818800E4B80201A701B
:101850005A709A70DA701A710B4AC0051160C12172
:10186000890053581B021B0A034353507047C0465C
:101870000008004000600041A0010020F0010020AD
:10188000020F00009001002000E100E070B5042884
:1018900048D83F2240240225294B98541A5DAA4378
:1018A0001A5501221A5582401C6994431C610A7B17
:1018B000CC7A5201002C36D060252A40FC25240227
:1018C000AD012C4022438024240422435A6407247F
:1018D0004D231B4AD4540022C0241A4BA400DA60C2
:1018E0000A895A808A7A120222400C689C604C7BDA
:1018F000002C1CD1013422434C685C608C7B002C92
:1019000008D00D89897A5C688D4029195960802139
:10191000C9000A431A800C4A00011018190010224D
:1019200007F070F970BD603422405A64CFE70C892B
:101930008E7A9D68B44064199C60044C2243DBE7B6
:101940000060004180010020A0010020010800008B
:1019500030B504280ED83F230A4AD0540A4B195CEC
:10196000002908D000221A54022306494032885C1C
:1019700003438B5430BD40240225115DA94311550A
:10198000F0E7C0460060004190010020042807D81D
:101990003F22044B4021985402205A5C82435A54FF
:1019A0007047C0460060004103000120042B02D8AC
:1019B000014AD05CC0B270479001002007490A7DFF
:1019C000064BD207FBD52022FF321A83044A400877
:1019D000D8611A801A7DD207FCD5704700400041BB
:1019E0001AA5FFFFF0B54746802580B4144B5C680C
:1019F000AC435C60002A1FD0124C2488A046124CD5
:101A0000A4461500102A00D910254446521B1C80FC
:101A10001C7DE407FCD50C00AF00C61920CC20C00B
:101A20008642FBD16046C9191880187DC007FCD5D5
:101A3000002A01D03000E4E704BC9046F0BDC04667
:101A40000040004152EE00001CA5FFFF7047C04659
:101A50001F290FD80123C0018B40002A0BD18222FD
:101A6000D2059446604443600223411840310A780D
:101A700013430B7070478222D20594466044836002
:101A8000F8E7C04630B51F2917D8C001082A15D875
:101A90008223DB059C4601246044431840331D78B3
:101AA0002C431C70CB0712D40F2449084118303145
:101AB0000B782240A3431A430A7030BD0A4B01221F
:101AC0009C46091861440B7893430B70F5E70F248B
:101AD0004B082240C118130122003031087802401F
:101AE0001A430A70E9E7C0464000004130B51F299B
:101AF00013D8012A12D0002A1ED0022A0DD1822327
:101B0000DB059C460422C0016044431840331C7826
:101B100022431A7001238B40436130BD8223DB05D1
:101B20009C4604248A40C0016044431840331D7819
:101B30002C431C708261F0E7044B04229C46C001D8
:101B400008186044037893430370E6E740000041BF
:101B500082220123D20594468B40C00160448361F8
:101B60007047C04682220123D20594468B40C001B3
:101B7000604443617047C04682220123D2059446E7
:101B80008B40C0016044C3617047C0468223DB05BF
:101B90009C46C0016044036A012088401840431EEF
:101BA0009841C0B27047C0462B4B10B50400984214
:101BB0003BD02A4B984244D0294B984200D010BDCC
:101BC0008020284A0001D3690343D3614020F423D5
:101BD000254AD050254805F01BFE80222449520298
:101BE00008600023904209D90133DBB240089042DB
:101BF000FAD8E0221B02D200086013400122012122
:101C00002260A2681142FCD1012204212271A26843
:101C10001142FCD1236002234022E363A3681340F6
:101C2000FCD1013820646363C9E780200D4A80003D
:101C3000D3690343D361F023C1380B4AFF38D05036
:101C4000C8E78020074AC000D3690343D36140201E
:101C5000F023054AD050BDE700240042002800428E
:101C6000002C004200080040001C0040006CDC0218
:101C700040020020022302681343022203608368AB
:101C80001A42FCD17047C04670B50C00FA21064BD1
:101C900005001B6889005343180005F0B9FD103496
:101CA000A4002C19606070BD40020020802170B536
:101CB000184A490153690B43536140219423164A42
:101CC000D150164A933B13703F399368134C194215
:101CD000FBD1FC22124B92011B6819020A40190524
:101CE000890E0A4322620F4A1B0B1568F022280551
:101CF00012041040184306F0A3FE05F085FF1023E0
:101D00002D012D0AA061E561A3700E3B2370013BFC
:101D1000637070BD00080040001C004000300040AF
:101D2000306080003460800010B50C4BDB681B0213
:101D3000180A002B05DB06F083FE094906F0B2F90C
:101D400010BD80235B04181A06F07AFE80231B0660
:101D50009C460349604406F0A5F9F1E700300040D5
:101D60000000C842F0B5474680B40400180006AB36
:101D70001E7807AB1D78464B90469C4258D0454B89
:101D80009C4266D0444B9C4200D171E0434B9C4244
:101D900002D004BC9046F0BD4222D827404BDA5115
:101DA0000132103FDA513F4FFB699C4610236246D7
:101DB0001343FB614346C0271A04BF023A4B3A4023
:101DC0001A43C02309059B0319400A432260002DD2
:101DD00026D02268354B13408022520413432360DF
:101DE0006760022D04D1802263689201134363600F
:101DF000012E18D001232E4A5B42002105F0D8FEA7
:101E00009022F4239205801859412A4A002305F0B4
:101E1000AFFE022380B2A081226813432360B8E79B
:101E20006760012EE6D14023626813436360E1E7F7
:101E30004227BC4662461A4B8A37DA510132043FC8
:101E4000DA51184FFB699C46022362461343FB613B
:101E5000B0E74222D027124BDA510132083FDA5163
:101E6000104FFB699C46042362461343FB61A1E7C4
:101E70004222D4270A4BDA5101320C3FDA51094F82
:101E8000FB699C46082362461343FB6192E7C04608
:101E90000004004200080042000C00420010004212
:101EA000001C00400008004004000040FFFFFFF05D
:101EB0000000F0FF0024F40070B502250368040060
:101EC000AB43036001230A4A5B420800002105F08E
:101ED0006FFE9022F423920580185941054A002391
:101EE00005F046FE80B2A08123681D43256070BDC9
:101EF0000000F0FF0024F400022203689343036013
:101F0000012908D0402243689343436002230268BA
:101F10001343036070474023426813434360F5E76F
:101F200089B20185037E9B07FCD57047007E400780
:101F3000C00F7047037E5B07FCD5008DC0B27047B1
:101F4000F02300041B03184004231843014BD861FD
:101F50007047C04600180040802110B50E240A4A80
:101F6000490053690B435361084AFC3913788B438A
:101F70001370936805491C42FBD10F224B78104027
:101F800093431843487010BD0008004000200040F3
:101F900010B50020FFF7E0FF0222044B19780A4336
:101FA0001A700E2299680A42FCD1FEE70020004018
:101FB00010B5144B1B78012B13D0002B0BD0022B28
:101FC00007D101F0A7F8002804D000F029FA012079
:101FD00000E0002010BD02F097FF00F021FA012080
:101FE000F8E7094A1278042AEFD8934012221A42DD
:101FF00005D1053A1A42E8D003F004FAE3E703F00A
:1020000097FAE0E74C0200204402002010B5164B7E
:102010000C001B78012B16D0002B0BD0022B07D104
:1020200001F0ACF8002804D000F0FAF9012000E03B
:10203000002010BD02F068FF01F02AFC206000F0D3
:10204000EFF90120F5E7094A1278042AECD8934009
:1020500012221A4205D1053A1A42E5D003F00EFACF
:10206000E0E703F0B1FADDE74C0200204402002073
:1020700010B5124B04001B78012B0DD0002B06D09D
:10208000022B01D0002010BD01F0C6F8FBE701F0E3
:10209000FFFB20600120F6E7094B1B78042BF1D8E9
:1020A000084A9B00D3589F4603F02CFBEBE703F054
:1020B000F1FAE8E703F058FBE5E7C0464C020020E0
:1020C0004402002054EE000010B5104B1B78012B89
:1020D0000CD0002B06D0022B01D0002010BD01F047
:1020E000C7F8FBE7C0B202F037F8F7E7084B1B78F8
:1020F000032B06D001D3042BEFD1002203F066FBA3
:10210000ECE7012203F062FBE8E7C0464C02002046
:102110004402002010B5114B02001B78012B0CD09B
:10212000002B06D0022B01D0002010BD01F0C2F818
:10213000FBE7C0B201F0DAFFF7E7094B1B78012B90
:1021400008D0002B02D00020042BEED8100003F0A2
:102150006DFBEAE703F0AEFBE7E7C0464C02002068
:102160004402002010B50C0002281CD81C4B1B7820
:10217000012B1AD0002B09D0022B14D1012825D015
:1021800002281FD1080001F0D9F80DE0012825D060
:102190003923022800D03B231800210001F0DCFF86
:1021A0002378FF2B00D1002010BD0E4B012811D049
:1021B000022803D1187803F057FCF5E7187803F0EC
:1021C000FFFBF1E7080001F0ADF8EDE7080001F0D2
:1021D000AFF8E9E7187803F01BFCE5E73A23DBE703
:1021E0004C0200204402002010B5084B1B78012B44
:1021F00008D0022B03D000230370012010BD01F092
:10220000A3F8FBE703F070FCF8E7C0464C0200209F
:1022100070B51A4B82B01B780400012B2BD0002B19
:1022200007D0022B02D0002002B070BD01F0CAF826
:10223000FAE76B463620D91D01F08EFF0028F2D058
:102240006B463720D91DDD7901F086FF0028EAD0E2
:102250006B463820D91DDE7901F07EFF0028E2D0E0
:102260006B46DB7936021B049E1975192B015D1B29
:10227000AD002560D8E703F07BFCD5E74C020020D9
:1022800010B50A4B1B78012B0BD0022B01D000207C
:1022900010BD0B00047A0A000833210001F0B2F8E7
:1022A000F6E704230B7203F0A1FCF1E74C020020D7
:1022B00010B5074B1B78012B06D0022B01D0002054
:1022C00010BD01F0BDF8FBE703F0ACFCF8E7C04639
:1022D0004C02002010B5074B1B78012B06D0022BB7
:1022E00001D0002010BD00F0F7FEFBE703F07AF804
:1022F000F8E7C0464C02002010B5044B1B78022BB7
:1023000002D100F0F3FE10BD0020FCE74C020020DB
:1023100010B504000020022C00D910BD02F0DEFD33
:1023200003F0F2FC084B1C70012C0AD0022C04D1E3
:10233000002000F0E9FE0120EFE702F0C3FD0120DC
:10234000EBE70120E9E7C0464C0200200023042807
:1023500003D8054A1278012A01D018007047034BB0
:1023600018700123F9E7C0464C0200204402002007
:10237000014B18787047C0464C020020014B18787A
:102380007047C0464402002010B50B4B04001B7878
:10239000012B0BD0022B01D0002010BD0029FBD156
:1023A000010000F0EDFD002802D1F5E702F0D2FEB9
:1023B000024B01201C60F0E74C0200204802002084
:1023C000014B18687047C04648020020022803D815
:1023D000024B8000C05870470148FCE768EE0000DF
:1023E00074EE0000084B80001818C17810B507483B
:1023F000FEF7E4FE0548FEF7F7FE0028FAD0034892
:10240000FEF7F8FE10BDC04694EE00000044004206
:1024100010B50248FEF7EEFE10BDC046004800426F
:1024200010B50320FFF794FA10BDC04680220020AB
:10243000064B520110B59C181A88111C824200D21A
:10244000011C023388B2A342F6D110BD5002002015
:1024500010B58024431CDB0024010022A3420CD8C9
:102460000A00074B000118180832038802301B09C4
:102470000B7001319142F8D10122100010BDC0460D
:1024800050020020802310B51B015B1A0A005B0874
:1024900002495B00C91806F0B5FB10BD50020020D0
:1024A0000C23F0B54746984680B406260127002540
:1024B0002E4C84B0A044002231002800FFF7C8FA57
:1024C00004343A0031002800FFF7DCFA444503D019
:1024D00025786678A778EEE7002200212448FEF7E9
:1024E0001DFE002200212348FEF718FE0B21214883
:1024F000FEF764FE8021204A0902D36901200B43C4
:10250000D3614021FC231D4AD1501D49FB3B0A6881
:1025100013430B600B691A4A0340FBD11949116040
:1025200053710133FF33D380EE3BD3761168103BF8
:102530000B430221136013690B40FCD10122694651
:1025400068468A72242142738022C1720E491201A8
:1025500001910E4983730091028103736946032040
:10256000FFF794F904B004BC9046F0BD94EE00006F
:10257000004400420048004200080040001C0040A7
:10258000003C0042040600002448004250020020A3
:102590000023032802D8024B18700123180070474B
:1025A000100000200023F0B585B001AC238002F0BC
:1025B0002BFC322004F0C8FCFFF7DAFE012840D0E3
:1025C000002819D0022813D102F00AFC002400F0E0
:1025D00055FF051E0DD101340120E4B204F0B4FC16
:1025E000142CF4D105E0002002F0BCFD02F0C2FD85
:1025F0000025280005B0F0BD02F070FCE1200002CB
:1026000002F078FC142502F0EBFB7A4E06E0013D67
:102610000120EDB204F098FC002DEAD00821300032
:1026200003F0DAFB0F220221200003F0FDFB00285B
:10263000EDD02378532BEAD16378592BE7D10125CC
:10264000D7E7FFF79BFE0428D2D86B4B80001B58BE
:102650009F4602F097FDE120400202F07BFD012041
:1026600002F080FD142502F0BBFB0026634F04E05E
:10267000013DEDB2002D00D1B0E0012004F064FC7A
:1026800008213800268002F083FD0F22022120005D
:1026900002F0A6FD0028EBD02378532BE8D1637815
:1026A000592BE5D10125A4E702F06CFD012002F0D1
:1026B00059FD02F095FB052004F046FC4E2302AEC6
:1026C000337002F099FE12237070B370042122332C
:1026D0003000F37002F0B2FD0621300002F058FD28
:1026E0000A2004F031FC1425002703E0013DEDB27F
:1026F000002D16D00A2004F027FC02F093FD0621DD
:102700003000278002F044FD0F220221200002F059
:1027100067FD0028EAD02378AA2BE7D16378AA2B9B
:10272000E4D12A2301220621300033707270B37085
:10273000F37033717371142502F080FD002704E0FB
:10274000013DEDB2002D00D14DE7012004F0FCFB6E
:1027500008213000278002F01BFD0F2202212000FB
:1027600002F03EFD0028EBD02378532BE8D16378AC
:10277000592BE5D101253CE702F004FDE1200002E0
:1027800002F0E8FC02F02CFB0A2004F0DDFB14252B
:10279000184E002703E0013DEDB2002D16D00120B8
:1027A00004F0D2FB08213000278002F0F1FC0F2258
:1027B0000221200002F014FD0028ECD02378532BD6
:1027C000E9D16378592BE6D1012512E7FFF7F8FD2F
:1027D00002F0C0FC002502F0CDFC0AE7FFF7F0FD97
:1027E00002F0B8FC002002F0BDFC002502F0C2FCA3
:1027F000FFE6C04600000020A0EE00000800002018
:1028000010B584B0FFF7B4FD01280ED0002807D022
:10281000022801D100F06AFE02F0F6FA04B010BD01
:1028200003F0C2FA02F04EFBF6E7FFF7A7FD04281B
:10283000F2D8144B80001B589F46FFF7C1FD02F0F1
:1028400089FC002002F08EFC02F094FCE4E7A02357
:102850000A2002AC2370633B63700B4B042201A976
:102860006844019306F0CEF92000062102F0E6FC50
:102870000821200002F08CFC002002F073FC02F022
:1028800079FCC9E7B4EE000012345678F0B547463B
:10289000002380B484B001AC07000D002380FFF753
:1028A00067FD012819D0002820D0022819D1012461
:1028B000664E30782A00390000F03EFE002806D12E
:1028C00001340130E4B204F03FFB062CF1D10020CA
:1028D0000423A3424041C0B204E0FFF74FFD0428A7
:1028E00036D9002004B004BC9046F0BD842302AE6B
:1028F00033702B0AB370564B7770F57000270125A3
:1029000098460BE0022004F01FFB434642461B881A
:1029100001350133EDB21380062DE2D004213000E1
:102920002770677003F058FA14220221200003F088
:102930007BFA0028E6D02378AA2BE3D16378AA2B70
:10294000E0D1052DCDD0434A138801331380C9E768
:10295000414B80001B5802AE9F4683233370643B7B
:10296000737000230621F37030002B0A7571B77065
:102970003371012502F062FC06E001350120EDB261
:1029800004F0E2FA062D10D00821300002F000FC1D
:1029900014220221200002F023FC0028EDD023782D
:1029A000AA2BEAD16378AA2BE7D100200423AB42FB
:1029B0004041C0B296E783233370244B06211B7835
:1029C000300073700023F3702B0A7571B770337188
:1029D000012502F033FC06E001350120EDB204F0E0
:1029E000B3FA062DE1D00821300002F0D1FB142209
:1029F0000221200002F0F4FB0028EDD02378AA2B5E
:102A0000EAD16378AA2BE7D1CFE7842333702B0A6E
:102A1000F5707770B370012506E001350120EDB245
:102A200004F092FA062DC0D00421300002F0B0FB71
:102A300014220221200002F0D3FB0028EDD02378DD
:102A4000AA2BEAD16378AA2BE7D1AEE710000020C9
:102A50005013002052130020C8EE0000F0B55F466E
:102A600056464D4644460023F0B487B002AA9380F0
:102A700082468B4602F0D0FA96228021CF4E520039
:102A80004900300002F0D4FA071E37D002F0BCFA39
:102A9000FFF76EFC012834D000283AD0022824D158
:102AA000012004F051FA01250023B1460024984684
:102AB0004946404600F0DCFD00280FD00434A4B2A3
:102AC000FF2C00D9A9E033199946E3B2984649464C
:102AD0004046002500F0CCFD0028EFD10135EDB2D5
:102AE000FF2C00D976E0052DE2D10027380007B091
:102AF0003CBC90469946A246AB46F0BD02F084FA33
:102B0000F4E7FFF73BFC0428EFD8AD4B80001B58DF
:102B10009F4653465B00DBB29A46012398468133B9
:102B200099465346013304AF0193012004F00CFA97
:102B30005B46002B28D080233B705346022138008F
:102B40007B70350003F048F9012004F0FDF93400F2
:102B5000803520000821083403F03EF9A542F8D161
:102B60006422022103A803F05FF900280FD1434635
:102B70000133DBB29846062BD7D100270423424607
:102B800093427F41FFB2B1E74B463B70D5E701204E
:102B900004F0DAF95B46002B41D081233B706B4691
:102BA0001B79022138007B7003F016F9012004F034
:102BB000CBF9741CFF3428000821083503F00CF908
:102BC000A542F8D16422022103A803F02DF90028C0
:102BD000CDD0D2E7052D00D187E7012004F0B4F96C
:102BE0005B46002B10D0774B5146187800F00EFD55
:102BF000002800D07AE70135EDB2012004F0A4F9F5
:102C0000052D00D050E770E76E4B5146187800F064
:102C1000CBFC002800D069E7EDE70025DDE7832342
:102C20003B70BCE7012399461E339B460023984620
:102C300004AF012004F088F986233B705B467B706B
:102C40005346BB70434606213800FB703B717B71D5
:102C500002F0F4FA0821380002F09AFA3400751CE8
:102C6000FF3520000821083402F092FAAC42F8D176
:102C7000012004F069F981233B705B467B70534669
:102C8000BB70434606213800FB703B717B7102F03C
:102C9000D5FA0821380002F07BFA6422022103A849
:102CA00002F09EFA002804D002AB1B79AA2B00D1B7
:102CB000E3E04B460133DBB29946062BB9D100273E
:102CC00004234A4693427F41FFB20FE753465B001D
:102CD000DBB29A4601239846813399465346013325
:102CE00004AF0193012004F02FF95B46002B62D062
:102CF00080233B705346022138007B70350002F080
:102D000047FA012004F020F9340080352000082122
:102D1000083402F03DFAA542F8D16422022103A84A
:102D200002F05EFA002803D002AB1B79AA2B4BD02D
:102D300043460133DBB29846062BD3D11DE701236E
:102D40009846204B751C9B460023994604AFFF35DF
:102D5000012004F0F9F886233B705B461B780621BE
:102D60007B705346BB704B463800FB703B717B71E8
:102D700002F064FA0821380002F00AFA012004F097
:102D8000E3F8340020000821083402F001FAAC42D4
:102D9000F8D16422022103A802F022FA002803D00D
:102DA00002AB1B79AA2B3ED043460133DBB29846D7
:102DB000062BCDD1E1E64B463B709BE7501200203D
:102DC000DCEE00001000002002AB5B79AA2BAFD133
:102DD000012004F0B9F85B46002B54D081233B70EE
:102DE0006B461B79022138007B7002F0D1F901207B
:102DF00004F0AAF8741CFF3428000821083502F0FA
:102E0000C7F9AC42F8D16422022103A802F0E8F924
:102E100000288DD002AB1B79AA2B89D102AB5B793C
:102E2000AA2B85D1A9E602AB5B79AA2BBCD10120E4
:102E300004F08AF882233B705B461B7806217B7086
:102E40005346BB704B463800FB703B717B7102F000
:102E5000F5F90821380002F09BF96422022103A849
:102E600002F0BEF900289FD002AB1B79AA2B9BD1A0
:102E700002AB5B79AA2B97D17FE602AB5B79AA2BD9
:102E800000D016E71BE783233B70A9E7002370B54A
:102E9000154C96B00193256DEB0702D4256516B04D
:102EA00070BD02AE06AB310020000493FEF70CFAB1
:102EB0000E48029BB16803602523727BC254327BAB
:102EC000013BC254043005F09DFE094B01AA18686D
:102ED000022103F03DF9019B2565002BDFD0802204
:102EE000044B52051A60DAE7001C0042541300201C
:102EF000A83C002004ED00E030B585B002916946A1
:102F000008AC09AD24782D7800900A73002B17D0F7
:102F100001234B73002C10D002236A461371002D3D
:102F200002D003236A46137169460648FEF726FA63
:102F300043425841C0B205B030BD6B461C71EEE74C
:102F40004B73E7E7001C004210B50B4B04001868F8
:102F5000002382B000930122022103F03BF80023FA
:102F6000820705D528220549200005F04BFE0123E4
:102F7000180002B010BDC046A83C00205413002029
:102F800010B50A0001000248FEF700FB10BDC04664
:102F9000001C004210B5134C2000FEF721FB8022DC
:102FA0008021114B12025A50BFF34F8FBFF36F8F26
:102FB0000131FF315A501A6001236939E365062255
:102FC000FF390020FEF75EFD062219210020FEF7E2
:102FD00059FD064A00210020FEF776FA2000FEF790
:102FE000C5FA10BD001C004200E100E0FF07000030
:102FF000F0B55F464D4644465646F0B491B0039353
:10300000264B05921A88264B264F1B7802901A43AE
:103010000323994600239A463F33934698464C46ED
:10302000049106AD5346029A0193009339000023A0
:103030005846FFF761FF00281AD003F053FE039BA8
:103040001E180DE02800FFF77FFF002805D041463D
:103050002B793A780B409A4213D0012003F074FF89
:1030600003F040FE8642EDD8013CE4B2002CD9D1F9
:103070000024200011B03CBC90469946A246AB46C5
:10308000F0BD2423ED5C04002A0007A9049805F094
:10309000B9FD059B002BECD01D70EAE71200002063
:1030A000BD1300209C130020022270B5084B094D6F
:1030B0001A7004000E001423002229000120FFF7DB
:1030C00097FF002802D02C196378337070BDC0467A
:1030D0009C1300207C13002000230F2802D8024BF1
:1030E0001870012318007047BD130020FC23002234
:1030F000DB00984203D8034A0340138001221000EA
:103100007047C04612000020014B18707047C0463F
:10311000BC13002010B51449041C04F001FD002864
:1031200013D11249201C04F00FFD0622A42100280F
:103130000ED001200E4B187059709A700D4914234F
:1031400000220230FFF754FF10BD09225C21F0E796
:103150000949201C05F070F905F008FC0205120D64
:10316000D1B2120AE5E7C04600002AC300002A4394
:103170009C1300207C1300200000204170B50D003E
:103180001F49041C04F0CCFC002826D11D49201C3A
:1031900004F0DAFC0622A421002825D001201A4BD5
:1031A0001A4C187059709A702100142300220230B2
:1031B000FFF71EFF061E0ED0A078637800021818D5
:1031C000134B80B298420BD800B205F0F1FB1149C5
:1031D00004F068FF2860300070BD09225C21DDE743
:1031E000F0231B021843EFE70A49201C05F024F9DD
:1031F00005F0BCFB0205120DD1B2120ACEE7C046A3
:1032000000002AC300002A439C1300207C130020E6
:10321000FF07000000002041022270B5104B114C46
:103220001A7006001423002221000120FFF7E0FE9F
:10323000051E0ED0A0786378000218180A4B80B2E1
:10324000984208D800B205F0B3FB084904F02AFF01
:103250003060280070BDF0231B021843F2E7C0461F
:103260009C1300207C130020FF0700000000204179
:103270000D4B70B50D00984211D80C4BFF2810D99A
:1032800009221A700A4C58700022142321000220CF
:10329000FFF7AEFE002802D0A3782B7000E00020DC
:1032A00070BD3D221A70EDE7FF0100009C13002065
:1032B0007C13002070B503000C00FF2820D9164AAB
:1032C0000120934200D970BD144DF63A144EFF3AD6
:1032D0002A706B70A9701423002231000230FFF7AE
:1032E00087FE002CEFD10028EDD00B232B70063B7E
:1032F0006B7000220F3331000220FFF779FEE2E706
:103300003E21064A14231170507094700449002223
:103310000320FFF76DFED6E7FF0100009C1300209D
:103320007C13002010B501000320FFF7BDFE10BD87
:1033300010B501000420FFF7B7FE10BD10B5010065
:103340000620FFF7B1FE10BDF0B5002347461B4E27
:1033500080B41B4C03700E333370F133070073706D
:103360000022EB3B21000220FFF742FE002817D08D
:10337000A37800259846A84503D11CE06378AB42AA
:1033800011D0012003F0E0FD1423002221000220CF
:103390007570FFF72DFE0028F0D1002000233B7050
:1033A00004BC9046F0BDA378002B04D001353B70DF
:1033B000EDB20137DFE70120F0E7C0469C130020A3
:1033C0007C1300200D220D4B70B51A7000220C4D9D
:1033D0005A700600142329000220FFF709FE041E7C
:1033E00003D06B78002B02D00024200070BDA91CF4
:1033F0000422300005F006FCF7E7C0469C130020CD
:103400007C130020F8B50C001E0017000A00010014
:10341000094805F0F7FB094D20001423320029006C
:10342000FFF7E6FD041E04D032782900380005F0CD
:10343000E9FB2000F8BDC0469C1300207C1300204F
:103440000B220C4B10B50C4C1A70073A5A70210025
:10345000142300220220FFF7CBFD002803D063785D
:103460000020042B00D010BDA078AA384342584158
:10347000C0B2F8E79C1300207C1300203F2230B537
:103480001648174C174B0270227883B00193002A1C
:103490001AD1427043600820134D142300222900E2
:1034A000FFF7A6FD002807D02378002B06D1287946
:1034B000AA3843425841C0B203B030BDA878AA38F8
:1034C00043425841C0B2F7E700230422437001A9E8
:1034D000023005F097FB0620DEE7C0469C13002073
:1034E000BC1300205AA555AA7C1300203F2300B529
:1034F0000E480F4A037012780E4B83B00193002AD6
:103500000AD10122436042700820002300220021DA
:10351000FFF76EFD03B000BD01230422437001A933
:10352000023005F06FFB0620EFE7C0469C13002039
:10353000BC1300207856341270B53F24174B1C7012
:10354000174C2578002D19D00520997000211A718B
:10355000120A5870D9705A710130124D142300228A
:103560002900FFF745FD002807D02378002B0FD155
:103570002879AA3843425841C0B270BD05265A7115
:10358000120A18715E709970DD709A710820E4E774
:10359000A878AA3843425841C0B2EEE79C130020F5
:1035A000BC1300207C1300203F2270B5144B154C37
:1035B0001A702278002A16D007225A70002204209E
:1035C0009970DA70104D322300222900FFF710FDA8
:1035D000002807D02378002B0CD12879AA38434241
:1035E0005841C0B270BD072518715D709970DA70CE
:1035F0000820E7E7A878AA3843425841C0B2F1E76B
:103600009C130020BC1300207C1300203F2270B5C7
:10361000144B154C1A702278002A16D003225A70C7
:10362000002204209970DA70104D32230022290004
:10363000FFF7DEFC002807D02378002B0CD1287977
:10364000AA3843425841C0B270BD032518715D705D
:103650009970DA700820E7E7A878AA384342584101
:10366000C0B2F1E79C130020BC1300207C130020A3
:103670003F2270B5164B174C1A702278002A18D0CA
:10368000022298705A70D81C023205F0BBFA07204B
:10369000114D142300222900FFF7AAFC002807D0AF
:1036A0002378002B0ED12879AA3843425841C0B262
:1036B00070BD022298705A70181D023205F0A2FAED
:1036C0000820E5E7A878AA3843425841C0B2EFE79E
:1036D0009C130020BC1300207C130020F0B544464E
:1036E0005F464D465646F0B4A1B001F0C7FC00233A
:1036F000544A554C1370554A01331370544B554D71
:103700009B460023984601210120494203F02CFEEC
:1037100023780D2B05D82A00DA401300DB0700D5EB
:1037200081E00023012101339BB2E25C0D2AFAD82B
:103730002800D040020008009043F4D11A1CFF2B4F
:1037400000D9FF2293B2E31842461A702378002B67
:1037500067D05A4610682600C3185B781B0752D5FD
:10376000082203E0C3185B781A424CD00136337844
:10377000002BF7D13100434630000B7002F09AFB6A
:10378000324B1B78002BBED004223349300006F0A8
:1037900025F9002849D1E122304E920033009446A9
:1037A00063449A46012399464A46337C1A4226D0FE
:1037B000737C002B03D0234B1B78002B1FD0316868
:1037C000684606F0FCF8684606F001F90700042296
:1037D0002349684405F016FAF81CF168684406F0BD
:1037E000EEF8684606F0F3F807001E496844022226
:1037F000013705F007FAF9B2684601F0F3FB143619
:103800005645D1D17FE70023082703E0821852787C
:103810001742B0D101339BB2F1180A78002AF5D1D2
:10382000A9E72600A6E723008EE7694601223000BB
:1038300000F052FE684606F0CAF8C1B2684601F0D0
:10384000D1FB60E7BE130020AC3C0020BF1300207A
:103850002000002001240000F8EE000004F4000025
:10386000F0EE0000F4EE000010B50120FEF7BAFD06
:1038700005F0E6F8054904F0DFFD011C04F09CFAB0
:10388000E621890504F0D8FD10BDC0466F128340C3
:1038900010B50120FEF7A6FD05F0D2F80C4904F0A2
:1038A000CBFD011C04F088FAE621890504F0C4FD73
:1038B000084904F0F7FBFE21890504F0D1FE064912
:1038C00004F0BAFDFC21890504F0B6FD10BDC04628
:1038D0006F128340000020400000B44210B5002069
:1038E000FEF780FD05F0ACF8054904F0A5FD054B99
:1038F000196804F0A1FDE621890504F09DFD10BDC5
:103900006F128340983B002010B505F099F80249EA
:1039100004F092FD10BDC046CDCC4C3EFA2110B54E
:10392000890504F089FD8921C90504F085FDFC2184
:10393000890504F041FA04F067F905F081F80749B8
:1039400004F0B0FBFC21890504F036FA04F05CF9C0
:10395000034B1B889B08181810BDC0466F1283408C
:103960009C3B002010B5012801D9002010BD0100AA
:103970000220FEF74DFD0B4B1B889842F5D9C01A6B
:1039800080B205F05DF8084904F056FDE62189058E
:1039900004F052FD054904F085FB054904F082FB63
:1039A000E4E7C0469C3B00206F1283400AD7A33B4C
:1039B0000000484210B5FEF739FD094B1B88C01ABC
:1039C00000B204F0F5FF074904F036FDE621890551
:1039D00004F032FD8121C90504F02EFD10BDC04662
:1039E0009C3B00206F12834010B505F029F8024976
:1039F00004F022FD10BDC0460AD7A33C0300333BB0
:103A0000DBB210B500220C00CB2B06D805F018F85D
:103A1000034904F025FE01222060100010BDC046BD
:103A20000000484230B5002A0FD0013A92B201326C
:103A3000064D8A180B780402000A58404000285AA4
:103A4000A4B2013160408A42F4D130BD00EF0000E1
:103A500030B5094C83B02100FE220848FFF7E2FF91
:103A60006B46991D0500088020000222FE3005F0FB
:103A7000C9F8280003B030BDA03B0020FFFF0000C4
:103A8000F8B5002818D0012815D10D4C2500FFF7F6
:103A9000DFFF238883420ED0802620000024FDF71C
:103AA0008DFF084F76003919281910224034FDF790
:103AB00099FFB442F7D1F8BD8024E4032500E6E77E
:103AC00000014000A03B002010B5064C022221005E
:103AD000054805F097F8A11C0422044805F092F867
:103AE00010BDC046B03B00209C3B0020983B00200E
:103AF0000A4B10B5984205D0094B04221221984276
:103B000002D010BD02221021064BCB180100180074
:103B100005F078F8FFF79CFFF3E7C0469C3B0020D8
:103B2000983B0020A03B002010B50020FFF7A8FF25
:103B30000120FFF7A5FF10BD802270B5104C520088
:103B4000FF21200005F067F80E4D0022290020001B
:103B50000D4B08311A801030023205F053F829005D
:103B600020000A4B0A4A14311A601230042205F070
:103B700049F80020FFF784FF0120FFF781FF70BDA7
:103B8000A03B002000F100009C3B0020983B00205F
:103B9000A470F540F0B547468022802180B42C4CBB
:103BA00082B05200C903200005F02CF82600FFF770
:103BB0008BFF6B46FE369D1D02223100280005F06A
:103BC00021F8FE2221002348FFF72CFF8022224902
:103BD0005200804620002F8805F014F8FFF774FF8C
:103BE00002223100280005F00DF8FE2221001948BC
:103BF000FFF718FF2B88834211D0B84525D18022CA
:103C000080215200C903200004F0FCFFFFF75CFF95
:103C10000120FFF735FF02B004BC9046F0BD8022C2
:103C20005200B84509D00C49200004F0EBFFFFF723
:103C30004BFF0020FFF724FFEDE780212000C903A0
:103C400004F0E0FFFFF740FFE5E7FFF775FFE2E76D
:103C5000A03B0020FFFF000000014000F0B55F46E0
:103C600056464D464446F0B48BB009930123934029
:103C70009B468023049008915B009B4500DDD1E0CA
:103C80005B46581E01240021002800DCC7E0049B8D
:103C90005D469846089F2B005B10CA189042FBDBDC
:103CA0005A1E11405918A14210DD43461B570026E9
:103CB0009946434642465B189E5716554A4600268B
:103CC0001A707B183A579E573E551A700134A54218
:103CD000E1D1AB46099A012753425A410723079382
:103CE000063B9C4605927B009A46002398467F330C
:103CF0009946002351460693099B002B03D1434666
:103D00005B425BB29846059B002B05D04B465B108F
:103D1000994643465B109846049B069A1D00089BF3
:103D200092461E0055445644934557DD4B46029338
:103D300043468A460193F3570198EA57584302993C
:103D40008011514302ACE071E079891149B240B26F
:103D50008046481081466046014040464944401034
:103D6000091A894640466146084001004846411A02
:103D70000298C9B2434301989B115BB24243581069
:103D800080466046921152B2034050104344804630
:103D90006046434402409B180022AA56059890466C
:103DA0000022DBB2B256002803D0404640108046C5
:103DB0005210404602ACE071E079D2B28046401A1F
:103DC000E8554144D01A9B18F05529703370049B74
:103DD00055445644EB1A9B45ADDC5146069B0133D6
:103DE00006939F420CD0079B069A9A400F4B9B1854
:103DF00040331B785BB299460C4B9B5698467BE749
:103E0000079B0F00013B07938B4500DD6BE700200C
:103E10000BB03CBC90469946A246AB46F0BD012B88
:103E2000F5DD57E701204042F2E7C04618F10000F7
:103E3000F0B55F46444656464D468B46F0B483B0D7
:103E400080460322002101A804F0E5FE5B46002B1A
:103E500000D118E1994B994601234A46137000217D
:103E60000020FDF77FFE012200210020FDF7F0FD7C
:103E7000092200210020FDF705FE0121052000F0A8
:103E800009FB00210020FDF76DFE0A2003F05CF81D
:103E90008B4C012122002300A032196059600833A5
:103EA0009A42FAD121000023C83108C28A42FCD1CB
:103EB00000234D279A469C4601254E4653466046B0
:103EC000022B05D043465246985C634643409C46CD
:103ED0003B003900183B1939DBB2C9B2B1460BE0DF
:103EE00000260333155140088A00DBB20331165116
:103EF000C0B2C9B29F4215D02E00DA1ED2B29200D3
:103F0000A5509A1ED2B206409200002EE8D103338B
:103F1000165140088A00DBB203311551C0B2C9B254
:103F20009F42E9D101234E4699461837FFB2CA4451
:103F3000952FC3D1F42200215200A3500432A15086
:103F40000432A3505F4A0020D37EB146DBB2137522
:103F5000FDF7FEFC02F0C6FE1E30050004E002F094
:103F6000C1FE854200D28CE00020FDF71DFD002837
:103F7000F5D04B461D780400012D07D0200003B07A
:103F80003CBC90469946A246AB46F0BD01210020BC
:103F9000FDF7E8FD002201210020FDF759FD012277
:103FA00001210020FDF7A2FD002201210020FDF7E4
:103FB00069FD0021052000F06DFA012042490D60E5
:103FC0008A68414B1042FBD1012204201A711A0069
:103FD00091683D4B0842FBD13C4A1A603C4A1A6248
:103FE000022219680A4303211A609A68364D114269
:103FF000FBD10120FDF7ACFC1E2002F0A5FF022240
:104000002B6893432B600132AB681A42FCD101202C
:10401000FDF7BCFC80212F48090203688B424BD876
:10402000021D012304E00133DBB20432802B28D0CF
:1040300015688D42F7D9662B23D80133DBB20022F5
:104040009046C026803AA44691464446B6006A4649
:104050001F0004320837125DFFB206E049460A43EA
:10406000D2B20133DBB2BB4212D0990041581A4D93
:1040700052084D19B542F1D9184DA8464144B142F4
:10408000EFD900247AE75A460C4B99461A70E6E6B7
:10409000694604310A550134032CD8D16B466A466F
:1040A000197992795B7964464B409A42E9D16B4623
:1040B0005A469B88138061E70123C0E7C0170020A0
:1040C000C015002000380042002C0042000100030F
:1040D00028800300C013002000DCFFFF00EFFFFF7B
:1040E0000222014B5A617047002800400023F0B5BE
:1040F00083B001AD2B8043B206000F00002B28DBFC
:1041000080236A465B42034313706B460024597058
:10411000013429006846E4B2FFF78AFE002802D085
:104120002B78B3420CD0032CF2D1002400F012FF04
:10413000002000F0E9FE00F0C5FE200003B0F0BD55
:104140006B78BB42EFD100230222A2425B41DCB27A
:10415000ECE70124F1E7C04670B582B000236A465F
:104160000E00002401AD13802B8010700134290053
:104170006846E4B2FFF75CFE002804D06B461A786C
:104180002B789A420CD0032CF0D1002400F0E2FEF0
:10419000002000F0B9FE00F095FE200002B070BDD6
:1041A0006B78022233700023A2425B41DCB2EDE760
:1041B000802170B54D4AC901D36901200B43D361F9
:1041C0004021FC234A4A84B0D1504A49FB3B0A684B
:1041D00013430B600B69474A0340FBD1464911600A
:1041E00053710133FF33D3806A3BD3761168943B1C
:1041F0000B4313600223146902251C40FBD16B465C
:104200006A469D722123D3723C4B012600933C4B9E
:10421000694601937D2300201381967354731473B0
:10422000FDF734FB6B466A469D721A23D372354BF9
:1042300069460193344B01200093802394731381CA
:1042400056731473FDF722FB40218823284AD1506E
:104250008021264AC90053690B4353612B4B1A78BE
:1042600092073AD401211E705A681142FCD1274BA3
:104270005A78D2B25A7002229968114399609969AA
:1042800011439961196B0A431A635A6B5A6350229E
:10429000D9690A43DA611A6A1A62022219780A4352
:1042A00002211A705A681142FCD180210F4B09017A
:1042B000DA69F4200A434021DA610D4A11505C3872
:1042C0001150DA693F390A43DA618423104ADB0569
:1042D0001A62D022995004B070BD02211A78AA4304
:1042E0001A705A681142FCD1C1E7C046000800406C
:1042F000001C004000380042040500001C00004182
:10430000C0150020482C0042C013002000280040A7
:104310000F8E000010B582B001F050FE254B1860E2
:10432000FDF794FBFDF7C2FCFDF77CFA0320FDF7D7
:1043300007FE00F091F800F00DFE002000F0E4FD13
:10434000FFF736FF01F014F8FEF7AAF8FEF722FE99
:1043500001F090FD01F0EEFC00F056FDFFF71AFCB5
:1043600000F090FD0023019302330093C822002344
:104370001149124802F09AFB114BFA2201930323D0
:10438000520000930F4900230F4802F08FFB0123D6
:104390000E4C64220E490093019400230D4802F054
:1043A00085FB206802F01EFE002002F01BFE02B01A
:1043B00010BDC046A83C0020D8F10000D943000041
:1043C000A03C0020E4F10000DD360000A43C002009
:1043D000F0F10000255D000010B50024012002F07E
:1043E000B3FD02F07FFCA042F8D3F534FF3400F0B7
:1043F0001FFD00280AD100F061F800F01FFD002821
:104400000CD00121012000F045F8E7E70121002050
:1044100000F040F800F012FD0028F2D10021012048
:1044200000F038F8DAE7C04600B583B0FDF750F980
:104430000023962201930533009352000023044980
:10444000044802F033FB02F015FC002003B000BD6D
:10445000FCF1000015430000F8B50D4F11243D1D7F
:104460000026183702E02E786C880435E4B221006B
:104470003000FDF777FB012221003000FDF7E8FA5C
:10448000092221003000FDF7FDFABD42EBD1F8BD55
:1044900008F2000010B5052808D8074B80001A184C
:1044A000002904D09178C05CFDF752FB10BD9178D3
:1044B000C05CFDF757FBF9E708F2000010B50528CE
:1044C00006D8044B80001A189178C05CFDF754FBA5
:1044D00010BDC04608F20000F0B5564644465F469F
:1044E0004D46F0B4DBB092460700039101F0E2FCC8
:1044F000CD4B022298461D00CC4E002409E0013429
:10450000E4B214352D2C13D02E68300005F05FFA7C
:1045100002003100380005F061FA0028EFD1424670
:104520005146A60033199B00D218127C0A4214D1BE
:10453000BF49039C200005F042FA200005F047FA2D
:10454000A44602226044BB4904F05CFB5BB03CBC67
:1045500090469946A246AB46F0BD4246985805F0B3
:1045600036FA0500380005F032FAEAB283B29A4210
:1045700008D305042D0C7D192C2C00D966E2AE4B16
:104580009B599F46FF231D407D19F5E73419A40070
:1045900023004344596806AA280005F0D9F90128E8
:1045A00000D1EBE3A549C4E73419A4002300434438
:1045B000596806AA280005F0CBF90128F2D1A04BD2
:1045C000069A9A422DD09F49B3E73419A4002300DC
:1045D0004344596806AA07AB280005F0B9F9022838
:1045E000E0D1944C039D280005F0F1F9AC4602227D
:1045F0006044210004F006FBA8E73419A40023005E
:104600004344596806AA07AB280005F0A1F902281F
:10461000C8D1079B99B2069BD8B2FEF737F900289C
:1046200013D0894985E73419A4002300434459680D
:1046300006AA280005F08CF90128B3D1069B0021B9
:10464000D8B2FEF70BFA0028EBD1804971E7341994
:10465000A40023004344596806AA280005F078F90D
:1046600001289FD1069BD8B2FDF792FF002899D070
:1046700075495EE7280005F0AAF902A90F228C46C9
:1046800043086244DBB291461370082B00D87BE3E9
:104690000823137000239B469A460CAF5346E85CF0
:1046A00001F024FC5B460001F85453460133DBB2B1
:1046B000E85C01F01BFC5B46FB5C18435B46F8546E
:1046C00053460233DBB29A465B460133DBB29B466C
:1046D0004B461B785B45E1D83B7200230FAD2900A8
:1046E000380099462B72FDF7CBFD0028ADD04B4624
:1046F00012AF3B702B7A002B0ED04B46E85C01F0DA
:1047000001FC0100380005F04DF94B460133DBB2E6
:1047100099462B7A4B45F0D83419A4002300434422
:1047200099683A00039805F0F1F8424C5AE7FDF712
:1047300039FF002889D04449FBE63419A40023003E
:104740004344596806AA07AB280005F001F902287E
:1047500000D027E70698052800D923E7079BC0B2B9
:10476000002B00D025E30021FFF794FE3649E0E658
:104770003419A40023004344596806AA280005F010
:10478000E7F8012800D00DE70698314B984200D990
:1047900008E780B2FDF704F8264C23E7FEF730F86F
:1047A0002949C6E63419A40023004344596806AADF
:1047B000280005F0CDF8012800D0F3E6069B002B79
:1047C00000D0EAE200F020FB1F49B2E63419A40051
:1047D000444406AA6168280005F0BAF8012800D010
:1047E000E0E60698022800D9DCE6A46800D1D0E211
:1047F000C0B2FDF7F7FD16E13419A40023004344CD
:10480000596806AA07AB280005F0A2F8022800D0D4
:10481000C8E6079BD9B2069B98B2FDF77BFC00283F
:1048200000D0FEE6094984E604F400001CF3000011
:10483000E8FD0000F4EE000020F200006CFB000038
:10484000D204000070FB0000B0FB00002CF8000058
:10485000FF0300003419A400230043449C68FFF7C1
:1048600003F804F02BF902000B000398210005F077
:104870004DF8B6E63419A40023004344596808AA49
:10488000280005F065F8012800D08BE6089800F0B4
:10489000E5FA002800D0C4E6D1494AE63419A4005C
:1048A00023004344596806AA280005F051F801285E
:1048B00000D077E6069BD8B2FDF748FD002800D16E
:1048C00031E1C84935E602AA0F2394466344190032
:1048D00000209946FDF746FC002800D1B5E63419C2
:1048E000A400230043449C684B461878FFF77CF8EB
:1048F000B7E7FDF7DDFC002800D092E6BA4918E6DC
:1049000002AA0F2394466344190002209946FDF73A
:1049100029FC002800D198E64B4608A91878FFF733
:104920006DF8002800D190E6089865E002AB9C463F
:104930000F25002365442B7000F080FA2A780028A8
:1049400002D001231A432A703419A40023004344DF
:104950009968039804F0DAFFA44C43E608A8FDF731
:1049600087FB0028E0D1A049E3E50023039A02A9D0
:1049700013708C460F2234196244A4001370230074
:104980009146002543449E68984C12AF2800FDF7DD
:104990001DFD2A0003003100380004F0B7FF380085
:1049A00005F015F802222100381804F02BF939001F
:1049B000039804F0F7FF4B461D780135EDB21D70EA
:1049C000022DE3D90EE602AA0F2394466344190090
:1049D00001209946FDF7C6FB002800D135E63419C1
:1049E000A400230043449C684B461878FEF78CFFD4
:1049F00037E7FDF799F908903419A40004F05EF840
:104A0000230043449C682EE73419A4002300434448
:104A10009C68FEF763FF24E73419A4002300434495
:104A20009C6801F08BFA02002100039804F06EFFED
:104A3000D7E53419A40021006D4A414453788968B0
:104A40001278039804F062FF684CCBE5694B1A6852
:104A50007AE73419A4002300002043449C68FEF741
:104A600081FFFEE633199B004344596806AA2800DB
:104A700004F06EFF012800D094E50AAD29000698E5
:104A8000FDF7E6FC002800D18CE102A90F228C463C
:104A900000236244914612AF3B701370E85C01F052
:104AA00031FA0100380004F07DFF4B464A461B787E
:104AB0000133DBB21370072BF0D92DE63419A400B3
:104AC000230043449C68FEF775FFCAE63419A4002E
:104AD00023004344596806AA07AB280004F038FFB6
:104AE000431E012B00D95DE5012800D15DE1079946
:104AF0000698FDF749FC002800D092E5384918E5F2
:104B00003419A40023004344596806AA280004F07D
:104B10001FFF012800D045E5069B98B2FDF7ECFB8E
:104B2000002800D07DE5344903E53419A4002300B2
:104B30004344596808AA280004F00AFF012800D05D
:104B400030E5089C2D49201C02F0EAFF002800D027
:104B500028E5FEF7C3FE011C201C03F0A3FA284C35
:104B6000011C0990206803F067FC20602000FEF71C
:104B7000BFFFFEF7D9FF1B49DBE43419A400230073
:104B80004344596806AA280004F0E2FE012800D038
:104B900008E5069BD8B2FDF7BBFB002800D040E536
:104BA0000F49C6E43419A400444408AA61682800E7
:104BB00004F0CEFE012800D0F4E409A90898FDF71E
:104BC00025FA002800D140E5099803F077FF02009C
:104BD0000B000398A16804F099FE044C02E5C0465E
:104BE0006CFB0000B0FB00002CF80000F4EE0000AD
:104BF0000CFE000018000020F4F30000CDCCCC3DEA
:104C0000983B002006A8FDF703FB002800D11CE517
:104C1000E121069D0901280002F080FE08003C21E8
:104C200002F0F6FDE121341982460901A4002800B2
:104C300002F0EEFD2300070043443C2128009C685D
:104C400002F06CFE534600913A002100039804F0F4
:104C50005DFE5B4CC6E43419A400444406AA6168B6
:104C6000280004F075FE012800D09BE402AA0F235F
:104C7000944663449946069B494698B2FDF724FA48
:104C8000002800D1E1E44B46A1681A78039804F0AB
:104C90003DFE4B4CA6E43419A4002300434459685C
:104CA00006AA280004F054FE012800D07AE4069BEE
:104CB000D8B2FDF70FFB002800D134E7414938E4B2
:104CC0003419A40023004344596808AA280004F0BA
:104CD0003FFE012800D065E40898FDF769F9002837
:104CE00000D09EE4384924E41AA8FDF77DFA002894
:104CF00000D1AAE43419A4002300434499681AAAF5
:104D0000039804F003FE2E4C6CE400210220FDF712
:104D10007FFB2E4B069018801800FEF7E9FEFEF789
:104D200003FF2849FFF705FC8021294C490020009A
:104D3000FDF7A8FB8022274D52000021280003F038
:104D40006AFF2900002308222000FEF787FF1D4983
:104D5000FFF7EFFB3419A40023004344596806AA67
:104D6000280004F0F5FD012800D01BE41A4B069A38
:104D70009A4200D016E4FDF70BF932E4069802F0EF
:104D8000E3F81049FFF7D5FB0CAF002B00D081E40E
:104D9000A2E40021FDF73CFB45E600F021F80949BB
:104DA000FFF7C7FB0D49FFF7C4FB00230021079362
:104DB0009EE60121FFF76EFB0249FFF7BAFBC046F2
:104DC000F4EE0000B0FB00002CF800009C3B00203B
:104DD000C4180020C4170020D204000060FC0000AA
:104DE00010B501210220FFF755FB01210320FFF739
:104DF00051FB00210320FFF74DFB0122014B1A70EC
:104E000010BDC046C419002010B500210220FFF7D4
:104E100041FB01210320FFF73DFB00210320FFF7A9
:104E200039FB0022014B1A7010BDC046C419002086
:104E3000014B18787047C046C419002010B5064BC6
:104E40001878002806D010210020FCF79FFE0123CF
:104E50005840C0B210BDC046C419002010B5084962
:104E6000041C02F071FE0023002806D1201CFEF76E
:104E700055FD80B2FCF794FC0123180010BDC0461C
:104E80000000A04110B5002210210020FCF7E0FD39
:104E9000022210210020FCF729FE0122022100201D
:104EA000FCF7D6FD012202210020FCF7EBFDFCF708
:104EB0004DFC0348FEF732FD80B2FCF771FC10BDDB
:104EC0000000A04010B5042200210020FCF7DAFD0C
:104ED00001210520FFF7DEFA10BDC04610B50922FA
:104EE00000210020FCF7CEFD00210520FFF7D2FABB
:104EF00010BDC04610B500F067FF00F045FF00216F
:104F00000520FFF7C7FA10BD10B5104902F054FF95
:104F100002F07AFE002807DBC8225A2806DD0021AD
:104F20000B48FCF7B1FE10BD6422F8E7FA239B00A2
:104F300058435A2102F0F6FCFA239B009C460A21B2
:104F4000604402F0EFFC82B2E9E7C0460000344260
:104F5000002C004210B5044C64212000FCF724FE14
:104F60002000FCF787FE10BD002C0042002310B586
:104F700082B00193164B1A7E520705D537215A8B02
:104F80000A4003D07F225A8302B010BD7F211B8DBF
:104F90000B400D2BF8D00F480F4C017863540131B2
:104FA000C9B201701B2B10D00A2BEDD10B4B6254F0
:104FB000027001A9186802F007FA019B002BE3D0E8
:104FC0008022074B52051A60DEE70270DCE7C0461C
:104FD00000040042C5190020AC3C0020A03C002089
:104FE00004ED00E070B500290BD004000139CDB20A
:104FF00001354519217803480134FCF791FFAC4293
:10500000F8D170BD000400428022024B92001A6069
:105010007047C04600E100E080218023034A8900F8
:10502000D150BFF34F8FBFF36F8F704700E100E0A7
:10503000F8B5160007000D0001F054FE3618002DDB
:1050400017D00D48FCF772FF041E05D101F04AFE8F
:105050008642F6D22000F8BD0748FCF76BFF013D01
:105060003870ADB2013701F03DFE8642E7D2002430
:10507000F0E70124EEE7C04600040042002310B52B
:1050800082B001930093E1230C4C5B0220000022CC
:105090000121FCF767FE032204210020FCF7F2FC4B
:1050A000032205210020FCF7EDFC04238022A375D8
:1050B000034B92001A6002B010BDC04600040042CB
:1050C00000E100E0002310B582B001931B4B1A7E73
:1050D00052071FD537215A8B11421DD1184C188DFC
:1050E0002300C0B2611D5A781A7001338B42FAD185
:1050F0006071042221001348FEF794FC2279030A10
:10510000DBB293420BD0019B002B03D080220E4BCD
:1051100052051A6002B010BD7F225A83FAE7637904
:10512000C0B28342EFD12268084B01211A60084BBC
:1051300001AA186801F00CF8E5E7C046000C00422F
:10514000D0190020FFFF000004ED00E0D819002076
:10515000A83C002010B501000148FCF7ADFE10BDD1
:10516000000C004210B501000148FCF7C5FE10BD5F
:10517000000C00420022024B1A7604329A757047E6
:10518000000C00420422014B1A757047000C0042CB
:1051900070B5114A0D00114B516804000B4053606B
:1051A0000A210020FCF7D4FC002D0AD0013DEDB20D
:1051B00001356519217808480134FCF7B1FEAC428D
:1051C000F8D10A210020FCF7CDFC8021024A890297
:1051D00053680B43536070BD000C0042FFFFFDFF9E
:1051E000F8B5140007000D0001F07CFD2418002D17
:1051F00012D0013DAEB20136BE19094D03E001F0F7
:1052000071FD84420AD32B7E5B07F8D5044B1B8DBE
:105210003B700137B742F6D1012000E00020F8BD15
:10522000000C0042044B1A7E520703D51A8D1A7ED9
:105230005207FBD47047C046000C004270B58AB2DA
:1052400005000C0001000448FEF7ECFB030A2B5597
:105250002C19607070BDC046FFFF0000F0B55746C6
:105260004E4645469846204BE0B48A460500160057
:10527000032499461D4F82B0290004221C48FEF7E2
:10528000D1FB030A68712B7106212800FFF780FF0C
:10529000002E1CD0434600930122002301213868D0
:1052A00000F098FEC30703D54B461B78534510D03A
:1052B000104A013C1368E4B201331360002CDBD1C7
:1052C000002002B01CBC90469946A246F0BD0120C9
:1052D000F7E704224946300003F094FC064A012017
:1052E000136801331360ECE7D8190020A83C0020B4
:1052F000FFFF0000CC190020C8190020F0B5474678
:1053000005000E009046032480B4164F82B0290099
:1053100004221548FEF786FB030A68712B710621EB
:105320002800FFF735FF002E12D0434600930122DC
:1053300000230121386800F04DFEC3070AD4013C68
:10534000E4B2002CE3D1002002B004BC9046F0BDD2
:105350000120F9E704220549300003F053FC012045
:10536000F2E7C046A83C0020FFFF0000D81900204B
:10537000002310B582B001930093E123174C5B0228
:10538000002220000321FCF7EDFC0A210020FCF79D
:10539000E9FB01220A210020FCF75AFB09220A211D
:1053A0000020FCF76FFB032208210020FCF76AFBBA
:1053B00003220B210020FCF765FB0423C221C0203F
:1053C000074AA3758900535800061B021B0A0343B2
:1053D000535080231B01136002B010BD000C00422B
:1053E00000E100E000231F2802D8024B18700123BF
:1053F0001800704714000020014B18787047C04611
:105400001400002010B51749041C02F089FB002885
:1054100015D11549201C02F097FB8E230722002886
:1054200010D0762111480170114982700978C3703B
:1054300041700A230F4A5621FFF710FF10BD722357
:10544000F822EEE78A21201CC90502F0F5FF0A497F
:1054500002F028FE03F08AFA03B29AB2120ADBB213
:10546000DFE7C04600002AC300002A43E8190020F5
:1054700014000020E01900200000344370B50C0037
:105480002449051C02F04CFB00282DD12249281C80
:1054900002F05AFB8E23072200282CD076211F48C9
:1054A0001F4E01701F4982700978C37041700A2332
:1054B00032005621FFF7D2FE051E13D0B078F378E4
:1054C00000021818184B0005000D98420FD800B2C2
:1054D00003F06EFA154902F0AFFFE821890502F0EA
:1054E000ABFF2060280070BD7223F822D6E7F023BE
:1054F0001B021843EBE78A21281CC90502F09CFF18
:105500000A4902F0CFFD03F031FA03B29AB2120A4F
:10551000DBB2C3E700002AC300002A43E8190020D9
:10552000E019002014000020FF07000000003443B1
:1055300070B51D49051C02F0F3FA002816D11B496D
:10554000281C02F001FB1E24002811D0DD2318487E
:105550000370184B1B78437001230134C370164A43
:105560000A2344218470FFF779FE70BD0024EDE723
:105570001249281C02F020FC114902F05DFF11497C
:1055800002F01AFC03F0F2F9DD2502B2D3091C4047
:105590007F230748D1B20570064D0B402D78C170AE
:1055A00045701206DAD5D8E70000C8C20000C8422C
:1055B000E819002014000020E01900200000344207
:1055C0009A9999410030944470B50E002749051C02
:1055D00002F0A6FA00282BD12549281C02F0B4FAC3
:1055E0001E24002826D0DD2322480370224B1B787E
:1055F0004370012301348470204CC37022000A23BD
:105600004421FFF72BFE051E10D0A078E378C001DF
:10561000181800B203F0CCF9194903F021F8194920
:1056200002F040FD184903F01BF83060280070BDFF
:105630000024D8E71449281C02F0BEFB134902F0ED
:10564000FBFE134902F0B8FB03F090F9DD2502B22E
:10565000D3091C407F230748D1B20570064D0B408B
:105660002D78C17045701206C5D5C3E70000C8C2C9
:105670000000C842E819002014000020E0190020B2
:1056800000209444D8829941000034429A9999416B
:1056900000309444692370B504001548154E03701A
:1056A000154B32001B784921437000238370C3706F
:1056B0000A33FFF7D3FD051E13D0B078F37800024C
:1056C00018180E4B0005000D98420CD800B203F0DC
:1056D0006FF90B4902F0B0FEE821890502F0ACFE3B
:1056E0002060280070BDF0231B021843EEE7C0467F
:1056F000E8190020E019002014000020FF07000036
:1057000000003443922370B506001148114C037019
:10571000114B22001B786221437000238370C370F9
:105720000A33FFF79BFD051E10D0A078E378C00177
:10573000181800B203F03CF9084902F091FF08493B
:1057400002F0B0FC074902F08BFF3060280070BD0A
:10575000E8190020E01900201400002000209444E3
:10576000D882994100003442D22370B50600114816
:10577000114C0370114B22001B78822143700023CF
:105780008370C3700A33FFF769FD051E10D0A0783F
:10579000E378C001181800B203F00AF9084902F0D2
:1057A0005FFF084902F07EFC074902F059FF3060B4
:1057B000280070BDE8190020E01900201400002026
:1057C00000209444D882994100003442F8B50F007B
:1057D000134CFF281CD9E92349262370114B1B7851
:1057E0006370002A10D0C0B2A0700F4DE0700A2381
:1057F0002A0031002000FFF731FD002803D02B786C
:10580000B34209D00020F8BD030AA370C0B2ECE790
:10581000F823F8262370E1E7EB783B70F3E7C04606
:10582000E819002014000020E0190020F0B54746D8
:10583000FF2380B41C4C1D4E237033781C4D6370C5
:105840004123A370023B07008846E3702A00353BE2
:10585000FF212000FFF702FD002802D0AB78412B8A
:1058600003D0002004BC9046F0BDEB78452BF8D166
:10587000FF2F15D8F923F92123703378FFB2637015
:1058800043462A00E37020000A23A770FFF7E6FCD6
:105890000028E6D0A078C01B43425841C0B2E1E7DF
:1058A000B5332370FA21E8E7E8190020140000203E
:1058B000E0190020F0B5FF2347463F4C80B4237029
:1058C000E03B63703D4D2233A370023B06000F00A6
:1058D000E3702A00353BFF212000FFF7BFFC0028C2
:1058E00002D0AB78412B03D0002004BC9046F0BD21
:1058F000EB78452BF8D1731EFF3B2F2B16D93300C5
:10590000313BFF3B2F2B26D83000D7233038237074
:10591000C3B29846872143462A00E37020000A2339
:10592000A770FFF79BFC00280ED1DDE7D62323707C
:10593000F3B29846E3702A000A2386212000A7705C
:10594000FFF78CFC0028CFD04346E078C01A4342D2
:105950005841C0B2C9E73300613BFF3B2F2B18D839
:105960003000D82360382370C3B298468821FF2EB8
:10597000D1D8F6B20A232A002000A670E770FFF7FC
:105980006DFC0028B0D0A078801B43425841C0B2C3
:10599000ABE79023FF339E4207D93000B63B70300F
:1059A0002370C3B298468921E1E7F92323700023CD
:1059B000F9219846DBE7C046E8190020E0190020ED
:1059C000F8B5B02306000F480F4D03700F4B0F00C2
:1059D0001B782A004370002330218370C3700A3380
:1059E000FFF73CFC041E03D0012E03D0AB783B70C4
:1059F0002000F8BDA8781421C00001F009FF38701C
:105A0000F6E7C046E8190020E01900201400002045
:105A1000F8B5B12306001148114D0370114B0F006A
:105A20001B782A004370002331218370C3700A332E
:105A3000FFF714FC041E03D0012E03D0AB783B709B
:105A40002000F8BDA878C8218300C0184301C01801
:105A500080B201F0DDFE3870F2E7C046E8190020A0
:105A6000E019002014000020F8B506000F001A48C5
:105A7000042E1BD0C0230370184B194D1B782A002D
:105A80004370002310218370C3700A33FFF7E6FBD5
:105A9000041E1BD0012E1BD1FA21A878114B8900BE
:105AA000584301F0B5FE38702000F8BDA023037004
:105AB0000A4B0B4D1B782A00437000232021837072
:105AC000C3700A33FFF7CAFB002801D10024EBE7BB
:105AD000AB7801243B70E7E7E819002014000020B0
:105AE000E01900207A020000F0B547460023F422B6
:105AF00080B41C4C037022701B4A1C4E12788046E6
:105B00006270FF22E370A2700A3332001421200079
:105B1000FFF7A4FB002816D00025F778AF4205D187
:105B200014E0A378AB4213D0AF420FD90A2332005E
:105B300014212000A570FFF791FB0028F1D100206F
:105B400000234246137004BC9046F0BD0120F7E7E5
:105B50004246E3780135137001239C46EDB2E044E0
:105B6000DCE7C046E819002014000020E0190020FE
:105B7000F0B54746C22380B4194C1A4D23701A4B16
:105B800006001B782A00637000231221A370E370C3
:105B900020000A33FFF762FB002803D1002004BC79
:105BA0009046F0BDAB78EF78984601232A00E37069
:105BB000122109332000FFF751FB0028EED0E1212C
:105BC000434609010A001B02A978DB195A430B015D
:105BD0005B1AE9789B005B189B183360DFE7C046CF
:105BE000E8190020E01900201400002070B50B4CCB
:105BF00004220E000100200003F004F8084D2000EC
:105C00000A222900FFF77AFB041E04D0042229008F
:105C1000300002F0F7FF200070BDC046E8190020F8
:105C2000E0190020FF2370B5134C144E2370337815
:105C3000134D63704123A370023BE3702A00353B90
:105C4000FF212000FFF70AFB002803D0AB780020DB
:105C5000412B00D070BDEB78452BFBD15433237022
:105C60003378A0706370E0700A232A004C21200072
:105C7000FFF7F4FAEEE7C046E81900201400002010
:105C8000E0190020F8B546464F46C0B41B4E192215
:105C90000021300002F0BFFF0F233370083B0024C7
:105CA00001259846164F0B21200001F0B1FDC0B22E
:105CB00040003B5A0B219946200001F02FFE4B4635
:105CC000C9B2CB401D4208D0424629002240914033
:105CD000E3080133F25C0A43F2540134E4B2B02C1D
:105CE000E1D1084B04201B78F37500233376FBF7D2
:105CF0002FFE0CBC90469946F8BDC046F019002016
:105D00000C1A00202C1A002010B500F04DF80021CC
:105D10000420FEF7BFFB024B186801F063F910BDC9
:105D2000A43C002010B5142001F00EF9FFF7AAFFE3
:105D3000F9E7C046104B0022190000B5203185B0AC
:105D40001A8002338B42FBD103220C4B69461A7036
:105D500000228A720522CA72094A00230192094A66
:105D60000420009201228A7319224B730A810B735B
:105D7000FBF78CFD05B000BD0C1A00202C1A00208A
:105D8000F01900202808004210B50322002100204D
:105D9000FBF778FE032201210020FBF773FE0121AF
:105DA0000420FEF777FB10BD10B50922002100206A
:105DB000FBF768FE092201210020FBF763FE0021AA
:105DC0000420FEF767FB10BD10B501000148FCF789
:105DD00073F810BD0008004270B5114A0D00114B58
:105DE000516804000B40536001210520FEF752FB6F
:105DF000002D0AD0013DADB2013565192178084862
:105E00000134FCF78DF8AC42F8D100210520FEF7F3
:105E100041FB8021024A890253680B43536070BDE5
:105E200000080042FFFFFDFFF8B5160007000D0057
:105E300000F058FF3618002D17D00D48FCF776F803
:105E4000041E05D100F04EFF8642F6D22000F8BDB8
:105E50000748FCF76FF8013D3870ADB2013700F02C
:105E600041FF8642E7D20024F0E70124EEE7C04676
:105E700000080042002300B583B001930133009372
:105E80000022034B01210348FBF76CFF03B000BD68
:105E9000A0860100000800420300613B052B06D9E3
:105EA0003038C3B20020092B00D81800704757388B
:105EB000C0B2FBE7037830B5002B14D002000A4DC6
:105EC000032404E0137001321378002B0BD02968EF
:105ED000C918497821400229F4D1203B13700132BE
:105EE0001378002BF3D130BD200000200300413B8C
:105EF00010B5052B02D9FFF7CFFF10BD3738C0B260
:105F0000FBE7C046030002090B48092A0AD93732C9
:105F100002700F221340092B0AD83033437000233C
:105F200083707047303202700F221340092BF4D96E
:105F300037334370F3E7C046301A00200120704722
:105F4000FEE7C0461648174910B588420DD0164BDB
:105F500099420AD2CA43D31800229B0801339B00FE
:105F600084588C5004329A42FAD11049104B99420D
:105F70000BD2CA430020D31800229B0801339B0098
:105F80008C18043220609A42FAD1FF21094B0A4A48
:105F90008B43936002F010FEFEF746FAFEE7C04620
:105FA000DC02010000000020C0000020C000002032
:105FB000B03D00200010000000ED00E010B51C20F6
:105FC00000F0F2F9041E03D0002308C000F0CAF864
:105FD000200010BDF0B54F460D0080B41600071E1E
:105FE000994607D00B0E01D072B6FEE7002903D107
:105FF00072B6FEE772B6FEE701F064F9002802D13E
:10600000069B002B36D100F065FE4B463C68002B0A
:106010000CD12C420ED0002E02D02300AB433B60AB
:1060200000F00EFF200004BC9146F0BD23002B4081
:106030009D42F0D0069B002BF2D031004B1E9941BF
:106040004B460906002B02D08023DB041943294369
:10605000381D069A01F03EF800F0F2FE002801D14A
:1060600000F040F901F074F90400830104D5240222
:10607000240AD7E772B6FEE700F040F94B463C68C9
:10608000002B09D12C4204D0002E02D02300AB43B8
:106090003B6000F03FF9EAE723002B409D42F8D136
:1060A000F2E7C046F8B54D4644465F465646F0B462
:1060B00004000D00002803D00B0E03D072B6FEE7DB
:1060C00072B6FEE7060000F005FE2168206929434C
:1060D0000C362160864229D08023DB049946802338
:1060E0005B04984680239B0400259B460DE01942E3
:1060F00008D047463A4200D01D435B46194301F0A1
:1061000061F82168504656450ED04F4643680268F4
:106110009A4613021B0A3A42E9D00F001F40BB42C5
:10612000E7D050465645F0D1ED4301E001256D42E0
:106130000D40256000F084FE20683CBC90469946E6
:10614000A246AB46F8BDC04610B5FFF7ABFF10BD89
:1061500010B513000A000100014801F045FB10BD15
:10616000496100000300012208334360C3600361FA
:1061700000235242826003607047C04600230361DF
:106180007047C04643684B609A688A609A6851605D
:10619000996008610368013303607047020030B5FD
:1061A0000C680832631C01D10DE01A0053681D68A9
:1061B000AC42FAD24B6099608A6051600861036812
:1061C0000133036030BD02695368F3E742688168B8
:1061D000036991608268416851605A68904206D0B4
:1061E000002202611A68013A1A60186870478268D2
:1061F0005A60F5E7002382B00193064B1B68013318
:1062000001D072B6FEE772B6019B002BFCD002B043
:106210007047C0461C000020000000000000000085
:106220000B4A13681868203080F30988022080F335
:106230001488BFF36F8F3FBCAE4608BC04BC62B687
:106240001847C046C046C046C046C046C046C046C5
:10625000F03A002010B58024031F64041C60043B46
:1062600019600349043B1960143B40381A6010BDA3
:10627000F56100007047C046FF2130B5134B09049B
:106280001A6800240A43FF211A601A6809060A43A3
:106290001A600F4B0F4A1C600F4914600F4A104DD3
:1062A0001160072283B01A602C60FFF7B9FF00F07D
:1062B00063FE2B680194013301D072B6FEE772B61B
:1062C000019B002BFCD0002003B030BD20ED00E08E
:1062D00010E000E018E000E07FBB000014E000E008
:1062E0001C0000208022044B52051A60BFF34F8F20
:1062F000BFF36F8F7047C04604ED00E072B6044AEA
:10630000136801331360BFF34F8FBFF36F8F704774
:106310001C000020054A1368002B01D172B6FEE76D
:10632000013B1360002B00D162B670471C000020B7
:10633000EFF3108072B6704780F310887047C04644
:10634000EFF309800E4B1A6820381060F0C0444605
:106350004D4656465F46F0C008B572B600F00CFEDA
:1063600062B60CBC116808681030F0C8A046A94697
:10637000B246BB4680F309882038F0C81847C046AB
:10638000F03A002010B5FFF7D3FF040000F0B0FC96
:10639000002803D08022034B52051A602000FFF72B
:1063A000CBFF10BD04ED00E0072370B504000342ED
:1063B00001D09C43083400F08DFC0D4A1368002B7B
:1063C00010D00C490C480B68E418844208D8A3424A
:1063D00006D215680C60ED1800F032FD280070BD83
:1063E0000025F9E70721054B08338B431360E8E7E5
:1063F000383A0020341A0020F71F0000381A002015
:10640000002801D072B6FEE77047C04670B516008E
:10641000026C0400856B002A08D106681000002E6B
:106420002BD1606800F05EFF666026E0002E0ED182
:10643000806802F0E7FB226CA368944662686344BC
:10644000A3603000934218D32368A36015E0C068AE
:1064500002F0D8FB236CE2685B422168D218E2604C
:106460008A4203D2626894466344E3600020022EAD
:1064700003D12B005A1E9341ED1A0135A56370BD5F
:10648000F0B5846C83B001900A00002C0CD0A16B95
:10649000E36B994201D372B6FEE7A16B00268B42F3
:1064A00004D8300003B0F0BD72B6FEE7452701A95D
:1064B0002000E55DFFF7AAFF6DB206006B1C03D05C
:1064C00001356DB2E555ECE7636A002BE9D0200099
:1064D000243000F037FE0028E3D00126E1E7C04673
:1064E00010B5026C0B00002A08D0C16844688918F6
:1064F000C160A14203D2180002F084FB10BD016804
:10650000C160F8E770B50500FFF7F8FE45232E00DF
:10651000EC5C243664B2002C0BDC1CE0002128006B
:10652000FFF7AEFF00280FD1013CE3B25CB2002BB5
:1065300011D0AB6C002BF1D16B6A002B0BD030006B
:1065400000F000FE0028EFD0013C00F0B5FEE3B201
:106550005CB2002BEDD14523FF22EA54FFF7DAFEAF
:10656000FFF7CCFE4423EC5C64B2002C19DD2B69F0
:10657000002B16D02E00103607E0013CE3B25CB2CF
:10658000002B0ED02B69002B0BD0300000F0DAFD71
:106590000028F2D0013C00F08FFEE3B25CB2002B89
:1065A000F0D1FF224423EA54FFF7B4FE70BDC04689
:1065B00070B504000D0000281BD0FFF79FFE216C72
:1065C000E36B22684B43D0185B1AD3186060A2605B
:1065D000E3604422FF230020A063A3540132A354AC
:1065E000002D11D12369002B05D1FFF793FE012067
:1065F00070BD72B6FEE72000103000F0A3FD002849
:10660000F3D0FFF76FFEF0E720001030FFF7AAFD90
:1066100020002430FFF7A6FDE7E7C046F8B50600E6
:106620000D001700002801D172B6FEE70800704384
:106630005430FFF7B9FE041E0CD0002D0CD12060A1
:10664000E663256401212000FFF7B2FF5023E754E1
:106650000023A3642000F8BD030054330360EFE778
:10666000F0B5574645464E46E0B484B004008A462D
:1066700001921D0000286FD0002900D19DE0022D5D
:1066800000D194E000F01EFE002803D1019B002BF6
:1066900000D07EE04423994600239846FFF72EFE63
:1066A000A36BE26B00264527934231D3022D2FD0F6
:1066B000019B002B69D0002E63D0FFF72BFE00F06A
:1066C00009FBFFF71BFE4B46E35C5BB2013354D082
:1066D000E35D5BB201334DD0FFF71CFE01A902A8B8
:1066E00000F0B4FD002839D1FFF708FEA36BE26B80
:1066F00093421FD0FFF70EFE2000FFF703FF00F0CC
:106700009FFB0126FFF7FAFDA36BE26B9342CDD20C
:106710002A0051462000FFF779FEA36C002B3AD0E7
:1067200029002000FFF7ACFE00283DD1FFF7F2FD65
:10673000012019E0FFF7EEFD20000199103000F074
:10674000B7FC2000FFF7DEFE00F07AFB0028D8D16E
:10675000FFF7C8FD0126D5E772B6FEE72000FFF778
:10676000D1FE00F06DFB002004B01CBC90469946A1
:10677000A246F0BD4346E355AEE74B464246E254DF
:10678000A6E702A800F056FD97E7FFF7C3FD00203B
:10679000EAE772B6FEE7636A002BC5D0200024301A
:1067A00000F0D0FC0028C1D0FFF79CFDBEE7E36BF2
:1067B000012B00D166E772B6FEE7036C002B00D117
:1067C0005DE772B6FEE7C046F0B54E465746454611
:1067D0000400E0B48A4616009946002825D0002916
:1067E0003DD04B46022B30D0FFF7A2FDA36BE26BEE
:1067F000070000259A420FD94523E55C4A466DB251
:10680000514620009846FFF701FE6B1C0FD043460F
:1068100001356DB2E55401253800FFF78DFD2800E4
:106820001CBC90469946A246F0BD72B6FEE7A36C2A
:10683000002B19D049462000FFF722FE0235002820
:10684000EAD0002EE8D03560E6E7E36B012B01D0FB
:1068500072B6FEE7FFF76CFDA36B0700CCE7036C95
:10686000002BBED072B6FEE7636A0125002BD3D0A1
:106870002000243000F066FC0028E2D1CCE7C046BE
:10688000F0B557464E464546E0B484B0041E8A46ED
:10689000019276D0002900D184E000F013FD002899
:1068A00003D1019B002B00D07AE0442399460023BA
:1068B0009846FFF723FDA56B00264527002D3CD108
:1068C000019B002B63D0002E02D102A800F0B2FC85
:1068D000FFF720FD00F0FEF9FFF710FD4B46E35CEB
:1068E0005BB2013302D14B464246E254E35D5BB2F8
:1068F000013301D14346E355FFF70CFD01A902A87E
:1069000000F0A4FC00282ED1FFF7F8FCA36B002BAD
:1069100020D1FFF7FFFC20000199243000F0C8FBD4
:106920002000FFF7EFFD00F08BFA00282BD00126A6
:10693000FFF7E4FCA56B002DC2D051462000013DBD
:10694000FFF7CEFDA5632369002B31D1FFF7E2FCF1
:1069500001201FE0FFF7DEFC2000FFF7D3FD01263A
:1069600000F06EFAE4E72000FFF7CCFD00F068FAD3
:10697000FFF7C4FCA36B002B09D0FFF7CBFC01266B
:10698000D6E772B6FEE7FFF7ADFC0126D0E7FFF7CA
:10699000C1FC002004B01CBC90469946A246F0BD44
:1069A00072B6FEE7036C002B00D176E772B6FEE705
:1069B0002000103000F0C6FB0028C7D0FFF792FC83
:1069C000C4E7C04670B5040016000D00FFF796FC42
:1069D0004422A35C5BB2013316D04522A35C5BB2B8
:1069E00001330ED0FFF796FCA36B002B05D12000DE
:1069F00032002900243000F08DFB2000FFF782FDDB
:106A000070BD0023A354EDE70023A354E5E7C0467F
:106A100010B5034C2368012BFCD9FFF763FCF9E7A1
:106A2000603A0020034B1B68DB68DB685A68024B46
:106A30001A607047403A0020F43A0020F8B504008C
:106A4000144B154D1E6828680F000430FFF7BEFB7D
:106A5000631C17D02B6834195C60A6420BD80F4B0F
:106A6000186829680431FFF799FB0D4B1A689442A6
:106A700000D21C60F8BD0B4B186829680431FFF781
:106A80008DFBF7E7002FE5D0296807480431FFF7B1
:106A900079FBEFE7FC3A0020F03A0020403A002072
:106AA000F43A0020003B0020343B0020F8B54D466E
:106AB00044465F465646F0B49700050038008846C5
:106AC0009946FFF771FC041E00D18BE05C20FFF7B4
:106AD0006BFC061E00D182E004633A00A521200071
