:10100000C04100200D600000096000000960000080
:1010100000000000000000000000000000000000D0
:101020000000000000000000000000003563000028
:1010300000000000000000000164000045640000A2
:10104000096000000960000009600000F94000002C
:10105000096000000960000009600000B517000089
:101060000960000035500000096000008D5100004B
:10107000096000000000000000000000A52E000034
:101080000000000009600000096000000960000025
:1010900009600000096000000960000009600000AC
:1010A000096000000960000009600000096000009C
:1010B00009600000096000000960000010B5064CDE
:1010C0002378002B07D1054B002B02D0044800E009
:1010D00000BF0123237010BDD000002000000000DD
:1010E000A4030100084B10B5002B03D007490848A2
:1010F00000E000BF07480368002B00D110BD064B7D
:10110000002BFBD09847F9E700000000D400002036
:10111000A4030100A403010000000000224B30B52D
:10112000984234D0214B984200D030BD8025204CCD
:10113000ED02E3692B43E361842340251D4C5B00F2
:10114000E5500123047823430F2403708378214062
:10115000A34319430423817041890B430321438135
:1011600043890A402D318B4312011A43428102897F
:10117000114B1340C0225201134303814523072220
:10118000037343789343042213434370CDE78025D0
:10119000074CAD02E3692B43E36182234025054CF4
:1011A0005B00E550CDE7C0460044004200480042E5
:1011B00000080040001C0040FFE0FFFF022203780F
:1011C0009343037003891D32934311401943022353
:1011D000018102781A430270012281790A438271E7
:1011E000027E1343037670478079C007C00FC0B2F8
:1011F0007047C046808C80B27047C046012330B52E
:101200000125846923438361836901241D42FBD046
:10121000022385692B438361436DA3434365036DBB
:101220001C43046505290FD81D4B89005B589F4658
:101230001C4BC361052A07D81B4B92009B589F4645
:101240001A4BC361052AF7D900201AE0184BF0E7C2
:10125000184BEEE780235B00EBE7174BE9E7174BF2
:101260000222C3608369934383618369013A934394
:10127000836183691A42FCD10123426D13434365A4
:10128000012030BD8223DB00EAE7A3231B01E7E74F
:101290000B4BE5E70B4BE3E780235B00E0E7C04641
:1012A000B8EE0000030A0300D0EE0000030A0100BC
:1012B000030A000001040000030A0700300A0300CB
:1012C000300A0100300A070070B584B00400102213
:1012D0000E006846274907F0F5FCA423E2585206A1
:1012E00041D03F21E258244B150A294009015918E1
:1012F00000293BD00B685B00DA0F002B22DB0023B8
:1013000073730B68DB005B0D33600B689B00DA0FB7
:10131000002B21DB4B689B0222D46A464B68B068E5
:101320001B031B0FD25C0831327307F0CBFCA821E2
:101330003F202A0063580240834300201343635038
:1013400004B070BD72730B68DB00DB0833600B68A0
:101350009B00DA0F002BDDDA32714B689B02DCD583
:1013600002233371D9E70A204042E9E71C204042BA
:10137000E6E7C046E8EE000030010020C42370B567
:10138000C2580400920200D580E0C0584A4BC00207
:10139000C00E00011818002800D177E04B7B012B0C
:1013A00044D00B689B0403600B7B082B24D90C2BC7
:1013B00044D84268414B13409022120313434360C8
:1013C0000B79023B012B23D942683D4B134043600C
:1013D00042683C4B134043600A7B0830896807F041
:1013E00071FCC4230122E3580020DB02DB0E9A408B
:1013F0001300D022A35070BD0F22134045681A0479
:101400002E4B2B40134343600B79023B012BDBD85F
:10141000802243689203134343600B79032BD7D197
:1014200080224368520313434360D5E780220B6850
:10143000D2050360036813430360B5E7102B09D995
:10144000142B0FD842681D4B1340B02212031343D4
:101450004360B5E74268194B1340A02212031343BF
:101460004360ADE7182B09D9202B12D84268134BE3
:101470001340D022120313434360A1E742680F4B8D
:101480001340C02212031343436099E71C204042DB
:10149000B1E7302B07D84268084B1340E022120313
:1014A000134343608CE7402B00D989E7F02243685F
:1014B00012031343436083E7EC000020FFFFF0FFBB
:1014C000FFFFDFFFFFFFEFFF030070B50020914239
:1014D00022D8002B21D11F4B1C78022C36D0651C42
:1014E0001D701D4DA400490566594B091B49520545
:1014F0003140194361516159530DCA0AD2021A434E
:10150000625163599B009B0863516259144B13400D
:10151000802212051343635170BD012BFCD1114C85
:101520002378042B12D05D1C257080250E4CDB0027
:1015300019511959AD05C900C90829431951E318B2
:101540005A605A68920092085A60E5E70C204042BF
:10155000E2E7C0468001002084010020FFFF00F880
:10156000FFFFFFC70C010020100100200222836949
:10157000934383618369013A9343836183691A4288
:10158000FCD10123426D13434365704770B57D253F
:10159000124C002304342600A94206D00133DBB2EA
:1015A000062B04D020CEA942F8D1190000E0062174
:1015B0007D250023AA4206D00133DBB2062B0AD0D8
:1015C00020CCAA42F8D10022062905D01A00FFF744
:1015D00015FE020000E00022100070BDF8EE0000D1
:1015E0002D4B10B5984200D010BD80212B4A4900E8
:1015F00013690B431361E823294ABE39D15082692C
:10160000E73B1343836141398269234B1142FBD08D
:101610000222996900200A43C0219A619A698900CF
:101620000A439A611F4A9860DA611F4A1F49DA60CB
:101630001F4A80241204120C0A43A0215A50BC22D3
:10164000802198500C3298501A4A89041204120CC6
:101650000A43C0215A50F0221749A4020904090C78
:10166000214399502821703A9950144A5C31120450
:10167000120C22435A508021114AC9021204120C42
:101680000A4388215A5090220E4999500E4B1870E7
:101690000E4B1870A8E7C046001C0042000800402E
:1016A000001C0040030A0500330A0000000004800B
:1016B00030010020EC000020700100208401002097
:1016C00010010020FFFFFF1F800100200C010020FF
:1016D0008422164B5A60164B833A1A71154A164BE0
:1016E000138202231375002353750733937593698F
:1016F000002BFCD10F49CA680E4BD207FBD58021C5
:101700001A8A09010A431A82DA68D206FCD50B4903
:101710000B4B0C480B624A68084B0242FBD10A4A49
:1017200008499A625A680A42FCD170470040004159
:10173000000800400010004006430000001C00406C
:1017400006010100FD07000000010100802110B525
:10175000104A8903D36901240B43D36188234021B4
:101760000D4A5B00D15001230C490A7813430B70DA
:101770000B690A4A01202340FAD19370507013700C
:101780001075117802330B4302211370136919424B
:10179000FCD110BD00080040001C00400054004275
:1017A0000421034A108113691942FCD17047C046D5
:1017B00000540042F0B55F4656464D464446174930
:1017C0003F238A463F21F0B4154A8946D65C0F3143
:1017D000F3B2884647399B46012000238C464025BA
:1017E0000227546A2100D940DEB2084209D051468E
:1017F000C85449465654414666465654515DB9430D
:1018000051550133052BEDD15946054A3A33D15490
:101810003CBC90469946A246AB46F0BDA0010020D4
:101820000060004180210220114A13690B431361BB
:10183000104B1A8882431A800122013818800E4802
:1018400058630E4898630E4818800E4B80201A701B
:101850005A709A70DA701A710B4AC0051160C12172
:10186000890053581B021B0A034353507047C0465C
:101870000008004000600041B0010020000200208C
:10188000020F0000A001002000E100E070B5042874
:1018900048D83F2240240225294B98541A5DAA4378
:1018A0001A5501221A5582401C6994431C610A7B17
:1018B000CC7A5201002C36D060252A40FC25240227
:1018C000AD012C4022438024240422435A6407247F
:1018D0004D231B4AD4540022C0241A4BA400DA60C2
:1018E0000A895A808A7A120222400C689C604C7BDA
:1018F000002C1CD1013422434C685C608C7B002C92
:1019000008D00D89897A5C688D4029195960802139
:10191000C9000A431A800C4A00011018190010224D
:1019200007F0D0F970BD603422405A64CFE70C89CB
:101930008E7A9D68B44064199C60044C2243DBE7B6
:101940000060004190010020B0010020010800006B
:1019500030B504280ED83F230A4AD0540A4B195CEC
:10196000002908D000221A54022306494032885C1C
:1019700003438B5430BD40240225115DA94311550A
:10198000F0E7C04600600041A0010020042807D80D
:101990003F22044B4021985402205A5C82435A54FF
:1019A0007047C0460060004103000120042B02D8AC
:1019B000014AD05CC0B27047A001002007490A7DEF
:1019C000064BD207FBD52022FF321A83044A400877
:1019D000D8611A801A7DD207FCD5704700400041BB
:1019E0001AA5FFFFF0B54746802580B4144B5C680C
:1019F000AC435C60002A1FD0124C2488A046124CD5
:101A0000A4461500102A00D910254446521B1C80FC
:101A10001C7DE407FCD50C00AF00C61920CC20C00B
:101A20008642FBD16046C9191880187DC007FCD5D5
:101A3000002A01D03000E4E704BC9046F0BDC04667
:101A40000040004112EF00001CA5FFFF7047C04698
:101A50001F290FD80123C0018B40002A0BD18222FD
:101A6000D2059446604443600223411840310A780D
:101A700013430B7070478222D20594466044836002
:101A8000F8E7C04630B51F2917D8C001082A15D875
:101A90008223DB059C4601246044431840331D78B3
:101AA0002C431C70CB0712D40F2449084118303145
:101AB0000B782240A3431A430A7030BD0A4B01221F
:101AC0009C46091861440B7893430B70F5E70F248B
:101AD0004B082240C118130122003031087802401F
:101AE0001A430A70E9E7C0464000004130B51F299B
:101AF00013D8012A12D0002A1ED0022A0DD1822327
:101B0000DB059C460422C0016044431840331C7826
:101B100022431A7001238B40436130BD8223DB05D1
:101B20009C4604248A40C0016044431840331D7819
:101B30002C431C708261F0E7044B04229C46C001D8
:101B400008186044037893430370E6E740000041BF
:101B500082220123D20594468B40C00160448361F8
:101B60007047C04682220123D20594468B40C001B3
:101B7000604443617047C04682220123D2059446E7
:101B80008B40C0016044C3617047C0468223DB05BF
:101B90009C46C0016044036A012088401840431EEF
:101BA0009841C0B27047C0462B4B10B50400984214
:101BB0003BD02A4B984244D0294B984200D010BDCC
:101BC0008020284A0001D3690343D3614020F423D5
:101BD000254AD050254805F07BFE80222449520238
:101BE00008600023904209D90133DBB240089042DB
:101BF000FAD8E0221B02D200086013400122012122
:101C00002260A2681142FCD1012204212271A26843
:101C10001142FCD1236002234022E363A3681340F6
:101C2000FCD1013820646363C9E780200D4A80003D
:101C3000D3690343D361F023C1380B4AFF38D05036
:101C4000C8E78020074AC000D3690343D36140201E
:101C5000F023054AD050BDE700240042002800428E
:101C6000002C004200080040001C0040006CDC0218
:101C7000500200200223026813430222036083689B
:101C80001A42FCD17047C04670B50C00FA21064BD1
:101C900005001B6889005343180005F019FE103435
:101CA000A4002C19606070BD50020020802170B526
:101CB000184A490153690B43536140219423164A42
:101CC000D150164A933B13703F399368134C194215
:101CD000FBD1FC22124B92011B6819020A40190524
:101CE000890E0A4322620F4A1B0B1568F022280551
:101CF00012041040184306F003FF05F0E5FF10231F
:101D00002D012D0AA061E561A3700E3B2370013BFC
:101D1000637070BD00080040001C004000300040AF
:101D2000306080003460800010B50C4BDB681B0213
:101D3000180A002B05DB06F0E3FE094906F012FA4B
:101D400010BD80235B04181A06F0DAFE80231B0600
:101D50009C460349604406F005FAF1E70030004074
:101D60000000C842F0B5474680B40400180006AB36
:101D70001E7807AB1D78464B90469C4258D0454B89
:101D80009C4266D0444B9C4200D171E0434B9C4244
:101D900002D004BC9046F0BD4222D827404BDA5115
:101DA0000132103FDA513F4FFB699C4610236246D7
:101DB0001343FB614346C0271A04BF023A4B3A4023
:101DC0001A43C02309059B0319400A432260002DD2
:101DD00026D02268354B13408022520413432360DF
:101DE0006760022D04D1802263689201134363600F
:101DF000012E18D001232E4A5B42002105F038FF46
:101E00009022F4239205801859412A4A002305F0B4
:101E10000FFF022380B2A081226813432360B8E73A
:101E20006760012EE6D14023626813436360E1E7F7
:101E30004227BC4662461A4B8A37DA510132043FC8
:101E4000DA51184FFB699C46022362461343FB613B
:101E5000B0E74222D027124BDA510132083FDA5163
:101E6000104FFB699C46042362461343FB61A1E7C4
:101E70004222D4270A4BDA5101320C3FDA51094F82
:101E8000FB699C46082362461343FB6192E7C04608
:101E90000004004200080042000C00420010004212
:101EA000001C00400008004004000040FFFFFFF05D
:101EB0000000F0FF0024F40070B502250368040060
:101EC000AB43036001230A4A5B420800002105F08E
:101ED000CFFE9022F423920580185941054A002331
:101EE00005F0A6FE80B2A08123681D43256070BD69
:101EF0000000F0FF0024F400022203689343036013
:101F0000012908D0402243689343436002230268BA
:101F10001343036070474023426813434360F5E76F
:101F200089B20185037E9B07FCD57047007E400780
:101F3000C00F7047037E5B07FCD5008DC0B27047B1
:101F4000F02300041B03184004231843014BD861FD
:101F50007047C04600180040802110B50E240A4A80
:101F6000490053690B435361084AFC3913788B438A
:101F70001370936805491C42FBD10F224B78104027
:101F800093431843487010BD0008004000200040F3
:101F900010B50020FFF7E0FF0222044B19780A4336
:101FA0001A700E2299680A42FCD1FEE70020004018
:101FB00010B5144B1B78022B10D0032B09D0012B2A
:101FC00001D0002010BD03F003F800F033FA012027
:101FD000F8E701F0ABF80028F4D0F6E70A4B1B78DD
:101FE000042BF2D801229A40130012221A4205D182
:101FF000053A1A42E9D003F069FAECE703F0FCFA7B
:10200000E9E7C046000000205402002010B5164B3E
:102010000C001B78022B13D0032B0CD0012B01D00A
:10202000002010BD02F0D4FF01F03EFC206000F063
:1020300001FA0120F5E701F0ADF80028F1D0F6E74C
:102040000A4B1B78042BF2D801229A40130012226B
:102050001A4205D1053A1A42E9D003F073FAECE7C7
:1020600003F016FBE9E7C046000000205402002000
:1020700010B5124B04001B78022B0DD0032B08D097
:10208000012B01D0002010BD01F00EFC20600120CA
:10209000F9E701F0CDF8F6E7094B1B78042BF1D8EE
:1020A000084A9B00D3589F4603F090FBEBE703F0F0
:1020B00055FBE8E703F0BCFBE5E7C0460000002065
:1020C0005402002014EF000010B5104B1B78022BB7
:1020D0000CD0032B07D0012B01D0002010BDC0B2C3
:1020E00002F046F8FAE701F0CFF8F7E7084B1B7863
:1020F000032B06D001D3042BEFD1002203F0CAFB3F
:10210000ECE7012203F0C6FBE8E7C0460000002030
:102110005402002010B5114B02001B78022B0CD08A
:10212000032B07D00020012B00D010BDD0B201F04E
:10213000E9FFFAE701F0CAF8F7E7094B1B78012B32
:1021400008D0002B02D00020042BEED8100003F0A2
:10215000D1FBEAE703F012FCE7E7C04600000020ED
:102160005402002010B50C00022807D81D4B1B7824
:10217000022B05D0032B1AD0012B0AD0002010BD52
:10218000194B012827D0022819D1187803F0D0FC68
:10219000F5E7012823D03833022800D03B2318006C
:1021A000210001F0E5FF2378FF2BE8D1E6E70128C5
:1021B0000DD0022807D1080001F0CCF8DFE718782D
:1021C00003F062FCDBE7080001F0B8F8D7E708008D
:1021D00001F0BAF8D3E7187803F07EFCCFE73A2392
:1021E000DDE7C046000000205402002010B5084B77
:1021F0001B78022B08D0032B03D00023037001208F
:1022000010BD01F0ADF8FBE703F0D2FCF8E7C046E3
:102210000000002070B51A4B82B01B780400022B1E
:102220002BD0032B26D0012B02D0002002B070BD92
:102230006B463620D91D01F09BFF0028F5D06B4678
:102240003720D91DDD7901F093FF0028EDD06B46D2
:102250003820D91DDE7901F08BFF0028E5D06B46D0
:10226000DB7936021B049E1975192B015D1BAD002D
:102270002560DBE701F0B2F8D8E703F0DDFCD5E735
:102280000000002010B50A4B1B78022B0BD0032B4B
:1022900001D0002010BD0B00047A0A000833210091
:1022A00001F0BCF8F6E704230B7203F003FDF1E73D
:1022B0000000002010B5074B1B78022B06D0032B23
:1022C00001D0002010BD01F0C7F8FBE703F00EFDC0
:1022D000F8E7C0460000002010B5074B1B78022B22
:1022E00006D0032B01D0002010BD00F001FFFBE75A
:1022F00003F0DCF8F8E7C0460000002010B5044BFE
:102300001B78032B02D100F0FDFE10BD0020FCE77E
:102310000000002010B504000020032C00D910BDDF
:1023200002F040FE03F054FD084B1C70012C08D055
:10233000032C04D1002000F0F3FE0120EFE7012080
:10234000EDE702F023FE0120E9E7C046000000208F
:102350000023042803D8054A1278022A01D0180065
:102360007047034B18700123F9E7C04600000020B6
:1023700054020020014B18787047C046000000202E
:10238000014B18787047C0465402002010B50B4B23
:1023900004001B78022B0BD0032B01D0002010BDB2
:1023A0000029FBD1010000F0F7FD002802D1F5E77C
:1023B00002F034FF024B01201C60F0E70000002017
:1023C00058020020014B18687047C0465802002090
:1023D000024B1878431E9841C0B27047000000209D
:1023E000032803D8024B8000C05870470148FCE71F
:1023F00028EF000038EF0000084B80001818C17863
:1024000010B50748FEF7DAFE0548FEF7EDFE002896
:10241000FAD00348FEF7EEFE10BDC0465CEF0000A8
:102420000044004210B50248FEF7E4FE10BDC0466D
:102430000048004210B50320FFF78AFA10BDC046DD
:1024400080220020064B520110B59C181A88111CDE
:10245000824200D2011C023388B2A342F6D110BDE1
:102460005C02002010B58024431CDB002401002204
:10247000A3420CD80A00074B000118180832038841
:1024800002301B090B7001319142F8D1012210007A
:1024900010BDC0465C020020802310B51B015B1AF2
:1024A0000A005B0802495B00C91806F00BFC10BD6E
:1024B0005C0200200C23F0B54746984680B40626FF
:1024C000012700252E4C84B0A044002231002800B2
:1024D000FFF7BEFA04343A0031002800FFF7D2FAC1
:1024E000444503D025786678A778EEE700220021DE
:1024F0002448FEF713FE002200212348FEF70EFEBB
:102500000B212148FEF75AFE8021204A0902D36997
:1025100001200B43D3614021FC231D4AD1501D49AA
:10252000FB3B0A6813430B600B691A4A0340FBD15B
:102530001949116053710133FF33D380EE3BD376D9
:102540001168103B0B430221136013690B40FCD14F
:102550000122694668468A72242142738022C17230
:102560000E49120101910E49837300910281037398
:1025700069460320FFF78AF904B004BC9046F0BD19
:102580005CEF0000004400420048004200080040A8
:10259000001C0040003C00420406000024480042A9
:1025A0005C0200200023032802D8024B187001238C
:1025B00018007047140000200023F0B585B001AC6E
:1025C000238002F085FC322004F01EFDFFF7D2FECE
:1025D00002283BD003282AD0012803D00025280058
:1025E00005B0F0BD02F0DEFCE120000202F0E6FCE6
:1025F000142502F059FC844E06E0013D0120EDB2A5
:1026000004F002FD002DEAD00821300003F048FC60
:102610000F220221200003F06BFC0028EDD023786C
:10262000532BEAD16378592BE7D10125D7E702F084
:102630003BFC002400F02EFF051ED0D10134012008
:10264000E4B204F0E1FC142CF4D1C8E7FFF798FEE3
:102650000428C3D86D4B80001B589F4602F0F6FD3E
:10266000E120400202F0DAFD012002F0DFFD142536
:1026700002F01AFC0026664F04E0013DEDB2002D89
:1026800000D1B5E0012004F0BFFC0821380026800D
:1026900002F0E2FD0F220221200002F005FE0028D8
:1026A000EBD02378532BE8D16378592BE5D1012562
:1026B00095E702F0CBFD012002F0B8FD02F0F4FB3B
:1026C000052004F0A1FC4E2302AE337002F0F8FEA8
:1026D00012237070B370042122333000F37002F0C3
:1026E00011FE0621300002F0B7FD0A2004F08CFC38
:1026F0001425002703E0013DEDB2002D16D00A207D
:1027000004F082FC02F0F2FD06213000278002F086
:10271000A3FD0F220221200002F0C6FD0028EAD00E
:102720002378AA2BE7D16378AA2BE4D12A230122AC
:102730000621300033707270B370F37033717371AF
:10274000142502F0DFFD002703E0013DEDB2002D6E
:1027500040D0012004F058FC08213000278002F00E
:102760007BFD0F220221200002F09EFD0028ECD00C
:102770002378532BE9D16378592BE6D101252EE735
:1027800002F064FDE120000202F048FD02F08CFB43
:102790000A2004F039FC14251B4E002703E0013DFC
:1027A000EDB2002D1CD0012004F02EFC08213000D9
:1027B000278002F051FD0F220221200002F074FD5B
:1027C0000028ECD02378532BE9D16378592BE6D13C
:1027D000012504E7002002F029FD02F02FFDFDE6AF
:1027E000FFF7F0FD02F01AFD002502F027FDF6E6E6
:1027F000FFF7E8FD02F012FD002002F017FD0025B2
:1028000002F01CFDEBE6C0460400002068EF00006B
:102810000C00002010B584B0FFF7ACFD02280FD0EB
:1028200003280AD0012803D002F052FB04B010BDE7
:1028300003F01EFB02F0AAFBF6E700F063FEF3E7ED
:10284000FFF79EFD0428EFD8144B80001B589F46CD
:10285000FFF7B8FD02F0E2FC002002F0E7FC02F016
:10286000EDFCE1E7A0230A2002AC2370633B637018
:102870000B4B042201A96844019306F023FA2000BF
:10288000062102F03FFD0821200002F0E5FC0020B7
:1028900002F0CCFC02F0D2FCC6E7C0467CEF0000A0
:1028A00012345678F0B54746002380B484B001ACAA
:1028B00007000D002380FFF75DFD022850D003289C
:1028C00038D0012804D0002004B004BC9046F0BDEC
:1028D000842302AE33702B0AB370624B7770F570AD
:1028E0000027012598460BE0022004F08DFB4346AB
:1028F00042461B8801350133EDB21380062DE2D02C
:10290000042130002770677003F0CAFA14220221F4
:10291000200003F0EDFA0028E6D02378AA2BE3D1BB
:102920006378AA2BE0D1052DCDD04F4A138801330F
:102930001380C9E701244D4E30782A00390000F099
:1029400007FE002806D101340130E4B204F05CFB3C
:10295000062CF1D100200423A3424041C0B2B3E7CA
:10296000FFF70EFD0428AED8414B80001B5802AE85
:102970009F4683233370643B737000230621F370FA
:1029800030002B0A7571B7703371012502F0BAFC63
:1029900006E001350120EDB204F036FB062D10D023
:1029A0000821300002F058FC14220221200002F01D
:1029B0007BFC0028EDD02378AA2BEAD16378AA2BE0
:1029C000E7D100200423AB424041C0B27CE783231F
:1029D0003370264B06211B78300073700023F37090
:1029E0002B0A7571B7703371012502F08BFC06E07C
:1029F00001350120EDB204F007FB062DE1D00821DE
:102A0000300002F029FC14220221200002F04CFCCC
:102A10000028EDD02378AA2BEAD16378AA2BE7D13E
:102A2000CFE7842333702B0AF5707770B3700125DC
:102A300006E001350120EDB204F0E6FA062DC0D023
:102A40000421300002F008FC14220221200002F0D0
:102A50002BFC0028EDD02378AA2BEAD16378AA2B8F
:102A6000E7D1AEE75C1300205E13002014000020C5
:102A700090EF0000F0B55F4656464D4644460023B1
:102A8000F0B487B002AA938082468B4602F028FBFE
:102A900096228021CD4E52004900300002F02CFBDE
:102AA000071E12D002F014FBFFF764FC02280FD0BF
:102AB000032853D0012813D00027380007B03CBCAE
:102AC00090469946A246AB46F0BD02F001FBF4E702
:102AD000FFF756FC0428EFD8BD4B80001B589F46DB
:102AE00053465B00DBB29A460123984681339946F0
:102AF0005346013304AF0193012004F085FA5B468D
:102B0000002B28D080233B705346022138007B7075
:102B1000350003F0C5F9012004F076FA3400803561
:102B200020000821083403F0BBF9A542F8D1642243
:102B3000022103A803F0DCF9002833D14346013316
:102B4000DBB29846062BD7D1002704234246934296
:102B50007F41FFB2B1E74B463B70D5E7012004F05F
:102B600053FA01250023B1460024984649464046C1
:102B700000F08AFD00280ED00434A4B2FF2C56D8F1
:102B800033199946E3B2984649464046002500F07D
:102B90007BFD0028F0D10135EDB2FF2C25D8052DA5
:102BA000E4D189E7012004F02FFA5B46002B40D0E6
:102BB00081233B706B461B79022138007B7003F048
:102BC0006FF9012004F020FA741CFF34280008215A
:102BD000083503F065F9A542F8D16422022103A863
:102BE00003F086F90028A9D0AEE7052D00D163E7F0
:102BF000012004F009FA5B46002B0FD0754B5146BB
:102C0000187800F00FFD002800D056E70135EDB22E
:102C1000012004F0F9F9052DA4D14DE76D4B514683
:102C2000187800F0CDFC002800D046E7EEE700253C
:102C3000DEE783233B70BDE7012399461E339B46A5
:102C40000023984604AF012004F0DEF986233B7090
:102C50005B467B705346BB70434606213800FB70D1
:102C60003B717B7102F04EFB0821380002F0F4FA50
:102C70003400751CFF3520000821083402F0ECFAFE
:102C8000AC42F8D1012004F0BFF981233B705B46D0
:102C90007B705346BB70434606213800FB703B7186
:102CA0007B7102F02FFB0821380002F0D5FA642274
:102CB000022103A802F0F8FA002804D002AB1B7925
:102CC000AA2B00D1E4E04B460133DBB29946062B38
:102CD000B9D1002704234A4693427F41FFB2ECE674
:102CE00053465B00DBB29A460123984681339946EE
:102CF0005346013304AF0193012004F085F95B468C
:102D0000002B69D080233B705346022138007B7032
:102D1000350002F0A1FA012004F076F93400803584
:102D200020000821083402F097FAA542F8D1642265
:102D3000022103A802F0B8FA002803D002AB1B79E5
:102D4000AA2B4CD043460133DBB29846062BD3D195
:102D5000FAE6012398461F4B751C9B4600239946B3
:102D600004AFFF35012004F04FF986233B705B462A
:102D70001B7806217B705346BB704B463800FB70B6
:102D80003B717B7102F0BEFA0821380002F064FA50
:102D9000012004F039F9340020000821083402F041
:102DA0005BFAAC42F8D16422022103A802F07CFA5B
:102DB000002803D002AB1B79AA2B3FD04346013336
:102DC000DBB29846062BCDD1BEE6C0465C12002091
:102DD000A4EF0000140000204B463B7094E702ABC8
:102DE0005B79AA2BAED1012004F00EF95B46002BD3
:102DF00054D081233B706B461B79022138007B70D5
:102E000002F02AFA012004F0FFF8741CFF342800B5
:102E10000821083502F020FAAC42F8D164220221E0
:102E200003A802F041FA00288CD002AB1B79AA2B30
:102E300088D102AB5B79AA2B84D185E602AB5B79A2
:102E4000AA2BBBD1012004F0DFF882233B705B4644
:102E50001B7806217B705346BB704B463800FB70D5
:102E60003B717B7102F04EFA0821380002F0F4F950
:102E70006422022103A802F017FA00289ED002ABB8
:102E80001B79AA2B9AD102AB5B79AA2B96D15BE670
:102E900002AB5B79AA2B00D015E71AE783233B70BE
:102EA000A9E7C046002370B5154C96B00193256D77
:102EB000EB0702D4256516B070BD02AE06AB31003B
:102EC00020000493FEF700FA0E48029BB1680360ED
:102ED0002523727BC254327B013BC254043005F07F
:102EE000F1FE094B01AA1868022103F095F9019B34
:102EF0002565002BDFD08022044B52051A60DAE7EB
:102F0000001C004260130020B43C002004ED00E0EF
:102F100030B585B00291694608AC09AD24782D78AA
:102F200000900A73002B17D001234B73002C10D094
:102F300002236A461371002D02D003236A461371DF
:102F400069460648FEF71AFA43425841C0B205B036
:102F500030BD6B461C71EEE74B73E7E7001C004287
:102F600010B50B4B04001868002382B000930122B7
:102F7000022103F093F80023820705D52822054992
:102F8000200005F09FFE0123180002B010BDC046CE
:102F9000B43C00206013002010B50A000100024874
:102FA000FEF7F4FA10BDC046001C004210B5134CE9
:102FB0002000FEF715FB80228021114B12025A508F
:102FC000BFF34F8FBFF36F8F0131FF315A501A603B
:102FD00001236939E3650622FF390020FEF752FD1F
:102FE000062219210020FEF74DFD064A002100208F
:102FF000FEF76AFA2000FEF7B9FA10BD001C004285
:1030000000E100E0FF070000F0B55F464D46444692
:103010005646F0B491B00393264B05921A88264B7E
:10302000264F1B7802901A430323994600239A46A1
:103030003F33934698464C46049106AD5346029A58
:1030400001930093390000235846FFF761FF0028E1
:103050001AD003F0A7FE039B1E180DE02800FFF70F
:103060007FFF002805D041462B793A780B409A42E1
:1030700013D0012003F0C8FF03F094FE8642EDD880
:10308000013CE4B2002CD9D10024200011B03CBC9A
:1030900090469946A246AB46F0BD2423ED5C040061
:1030A0002A0007A9049805F00DFE059B002BECD023
:1030B0001D70EAE716000020C9130020A8130020A5
:1030C000022270B5084B094D1A7004000E0014233B
:1030D000002229000120FFF797FF002802D02C19B9
:1030E0006378337070BDC046A81300208813002099
:1030F00000230F2802D8024B1870012318007047D4
:10310000C9130020FC230022DB00984203D8034AA5
:1031100003401380012210007047C04616000020B3
:10312000014B18707047C046C813002010B51449F1
:10313000041C04F055FD002813D11249201C04F092
:1031400063FD0622A42100280ED001200E4B18702A
:1031500059709A700D49142300220230FFF754FF72
:1031600010BD09225C21F0E70949201C05F0C4F9D3
:1031700005F05CFC0205120DD1B2120AE5E7C0466B
:1031800000002AC300002A43A8130020881300204F
:103190000000204170B50D001F49041C04F020FD03
:1031A000002826D11D49201C04F02EFD0622A42152
:1031B000002825D001201A4B1A4C187059709A70AB
:1031C0002100142300220230FFF71EFF061E0ED03E
:1031D000A078637800021818134B80B298420BD87D
:1031E00000B205F045FC114904F0BCFF2860300036
:1031F00070BD09225C21DDE7F0231B021843EFE7D5
:103200000A49201C05F078F905F010FC0205120DA2
:10321000D1B2120ACEE7C04600002AC300002A43FA
:10322000A813002088130020FF07000000002041A1
:10323000022270B5104B114C1A70060014230022A4
:1032400021000120FFF7E0FE051E0ED0A078637874
:10325000000218180A4B80B2984208D800B205F054
:1032600007FC084904F07EFF3060280070BDF023A1
:103270001B021843F2E7C046A81300208813002061
:10328000FF070000000020410D4B70B50D00984273
:1032900011D80C4BFF2810D909221A700A4C58700B
:1032A0000022142321000220FFF7AEFE002802D0E6
:1032B000A3782B7000E0002070BD3D221A70EDE76E
:1032C000FF010000A81300208813002070B5030040
:1032D0000C00FF2820D9164A0120934200D970BD66
:1032E000144DF63A144EFF3A2A706B70A9701423ED
:1032F000002231000230FFF787FE002CEFD10028BA
:10330000EDD00B232B70063B6B7000220F33310086
:103310000220FFF779FEE2E73E21064A14231170EE
:1033200050709470044900220320FFF76DFED6E729
:10333000FF010000A81300208813002010B5010031
:103340000320FFF7BDFE10BD10B501000420FFF7FC
:10335000B7FE10BD10B501000620FFF7B1FE10BD8D
:10336000F0B5002347461B4E80B41B4C03700E3350
:103370003370F133070073700022EB3B2100022011
:10338000FFF742FE002817D0A37800259846A845ED
:1033900003D11CE06378AB4211D0012003F034FE6E
:1033A00014230022210002207570FFF72DFE002853
:1033B000F0D1002000233B7004BC9046F0BDA37800
:1033C000002B04D001353B70EDB20137DFE701205F
:1033D000F0E7C046A8130020881300200D220D4BF3
:1033E00070B51A7000220C4D5A7006001423290083
:1033F0000220FFF709FE041E03D06B78002B02D0D9
:103400000024200070BDA91C0422300005F05AFCE5
:10341000F7E7C046A813002088130020F8B50C0079
:103420001E0017000A000100094805F04BFC094D79
:103430002000142332002900FFF7E6FD041E04D00B
:1034400032782900380005F03DFC2000F8BDC04668
:10345000A8130020881300200B220C4B10B50C4C35
:103460001A70073A5A702100142300220220FFF735
:10347000CBFD002803D063780020042B00D010BDC2
:10348000A078AA3843425841C0B2F8E7A8130020F8
:10349000881300203F2230B51648174C174B027096
:1034A000227883B00193002A1AD142704360082029
:1034B000134D142300222900FFF7A6FD002807D092
:1034C0002378002B06D12879AA3843425841C0B24C
:1034D00003B030BDA878AA3843425841C0B2F7E7DC
:1034E00000230422437001A9023005F0EBFB062003
:1034F000DEE7C046A8130020C81300205AA555AA2D
:10350000881300203F2300B50E480F4A037012783D
:103510000E4B83B00193002A0AD10122436042700E
:103520000820002300220021FFF76EFD03B000BD3C
:1035300001230422437001A9023005F0C3FB0620D9
:10354000EFE7C046A8130020C813002078563412B5
:1035500070B53F24174B1C70174C2578002D19D0DF
:103560000520997000211A71120A5870D9705A7189
:103570000130124D142300222900FFF745FD0028D9
:1035800007D02378002B0FD12879AA38434258411D
:10359000C0B270BD05265A71120A18715E7099701A
:1035A000DD709A710820E4E7A878AA3843425841B0
:1035B000C0B2EEE7A8130020C81300208813002033
:1035C0003F2270B5144B154C1A702278002A16D081
:1035D00007225A70002204209970DA70104D3223AD
:1035E00000222900FFF710FD002807D02378002BC8
:1035F0000CD12879AA3843425841C0B270BD072582
:1036000018715D709970DA700820E7E7A878AA3819
:1036100043425841C0B2F1E7A8130020C81300206C
:10362000881300203F2270B5144B154C1A70227875
:10363000002A16D003225A70002204209970DA70F2
:10364000104D322300222900FFF7DEFC002807D0AE
:103650002378002B0CD12879AA3843425841C0B2B4
:1036600070BD032518715D709970DA700820E7E766
:10367000A878AA3843425841C0B2F1E7A813002005
:10368000C8130020881300203F2270B5164B174C3A
:103690001A702278002A18D0022298705A70D81C0A
:1036A000023205F00FFB0720114D142300222900E0
:1036B000FFF7AAFC002807D02378002B0ED1287929
:1036C000AA3843425841C0B270BD022298705A7065
:1036D000181D023205F0F6FA0820E5E7A878AA38A6
:1036E00043425841C0B2EFE7A8130020C81300209E
:1036F00088130020F0B544465F464D465646F0B468
:10370000A1B001F01FFD0023544A554C1370554AD7
:1037100001331370544B554D9B46002398460121AD
:103720000120494203F080FE23780D2B05D82A00A2
:10373000DA401300DB0700D581E0002301210133CB
:103740009BB2E25C0D2AFAD82800D04002000800A3
:103750009043F4D11A1CFF2B00D9FF2293B2E31837
:1037600042461A702378002B67D05A46106826000C
:10377000C3185B781B0752D5082203E0C3185B7897
:103780001A424CD001363378002BF7D13100434632
:1037900030000B7002F0F2FB324B1B78002BBED0D6
:1037A00004223349300006F079F9002849D1E1229A
:1037B000304E92003300944663449A460123994662
:1037C0004A46337C1A4226D0737C002B03D0234B0D
:1037D0001B78002B1FD03168684606F050F9684608
:1037E00006F055F9070004222349684405F06AFAF7
:1037F000F81CF168684406F042F9684606F047F99B
:1038000007001E4968440222013705F05BFAF9B24D
:10381000684601F04BFC14365645D1D17FE70023B2
:10382000082703E0821852781742B0D101339BB2C7
:10383000F1180A78002AF5D1A9E72600A6E72300A7
:103840008EE769460122300000F052FE684606F01D
:103850001EF9C1B2684601F029FC60E7CA130020D6
:10386000B83C0020CB1300202400002001240000DD
:10387000C0EF0000CCF40000B8EF0000BCEF000087
:1038800010B50120FEF7B8FD05F03AF9054904F03E
:1038900033FE011C04F0F0FAE621890504F02CFE49
:1038A00010BDC0466F12834010B50120FEF7A4FD85
:1038B00005F026F90C4904F01FFE011C04F0DCFAA7
:1038C000E621890504F018FE084904F04BFCFE21AE
:1038D000890504F025FF064904F00EFEFC21890548
:1038E00004F00AFE10BDC0466F1283400000204065
:1038F0000000B44210B50020FEF77EFD05F000F98F
:10390000054904F0F9FD054B196804F0F5FDE621C1
:10391000890504F0F1FD10BD6F128340A43B002027
:1039200010B505F0EDF8024904F0E6FD10BDC04603
:10393000CDCC4C3EFA2110B5890504F0DDFD89217E
:10394000C90504F0D9FDFC21890504F095FA04F0BD
:10395000BBF905F0D5F8074904F004FCFC21890502
:1039600004F08AFA04F0B0F9034B1B889B0818187E
:1039700010BDC0466F128340A83B002010B501283F
:1039800001D9002010BD01000220FEF74BFD0B4BBA
:103990001B889842F5D9C01A80B205F0B1F80849E1
:1039A00004F0AAFDE621890504F0A6FD054904F00E
:1039B000D9FB054904F0D6FBE4E7C046A83B00204C
:1039C0006F1283400AD7A33B0000484210B5FEF7B0
:1039D00037FD094B1B88C01A00B205F049F80749AA
:1039E00004F08AFDE621890504F086FD8121C905E0
:1039F00004F082FD10BDC046A83B00206F1283403A
:103A000010B505F07DF8024904F076FD10BDC04602
:103A10000AD7A33C0300333BDBB210B500220C00F5
:103A2000CB2B06D805F06CF8034904F079FE01228F
:103A30002060100010BDC0460000484230B5002A8A
:103A40000FD0013A92B20132064D8A180B78040267
:103A5000000A58404000285AA4B2013160408A420E
:103A6000F4D130BDC8EF000030B5094C83B021005F
:103A7000FE220848FFF7E2FF6B46991D050008800B
:103A800020000222FE3005F01DF9280003B030BDF1
:103A9000AC3B0020FFFF0000F8B5002818D001283B
:103AA00015D10D4C2500FFF7DFFF238883420ED090
:103AB000802620000024FDF781FF084F7600391989
:103AC000281910224034FDF78DFFB442F7D1F8BD1C
:103AD0008024E4032500E6E700014000AC3B002021
:103AE00010B5064C02222100054805F0EBF8A11C98
:103AF0000422044805F0E6F810BDC046BC3B002097
:103B0000A83B0020A43B00200A4B10B5984205D0EA
:103B1000094B04221221984202D010BD022210212A
:103B2000064BCB180100180005F0CCF8FFF79CFFFE
:103B3000F3E7C046A83B0020A43B0020AC3B00209C
:103B400010B50020FFF7A8FF0120FFF7A5FF10BD6B
:103B5000802270B5104C5200FF21200005F0BBF808
:103B60000E4D0022290020000D4B08311A80103024
:103B7000023205F0A7F8290020000A4B0A4A143146
:103B80001A601230042205F09DF80020FFF784FF30
:103B90000120FFF781FF70BDAC3B0020C8F10000A1
:103BA000A83B0020A43B0020A470F540F0B5474698
:103BB0008022802180B42C4C82B05200C9032000A6
:103BC00005F080F82600FFF78BFF6B46FE369D1D43
:103BD00002223100280005F075F8FE22210023485A
:103BE000FFF72CFF802222495200804620002F88B8
:103BF00005F068F8FFF774FF02223100280005F095
:103C000061F8FE2221001948FFF718FF2B88834234
:103C100011D0B84525D1802280215200C90320004F
:103C200005F050F8FFF75CFF0120FFF735FF02B009
:103C300004BC9046F0BD80225200B84509D00C4922
:103C4000200005F03FF8FFF74BFF0020FFF724FFAF
:103C5000EDE780212000C90305F034F8FFF740FFAD
:103C6000E5E7FFF775FFE2E7AC3B0020FFFF000050
:103C700000014000F0B55F4656464D464446F0B45C
:103C80008BB00993012393409B46802304900891B5
:103C90005B009B4500DDD1E05B46581E01240021FE
:103CA000002800DCC7E0049B5D469846089F2B0077
:103CB0005B10CA189042FBDB5A1E11405918A142F2
:103CC00010DD43461B5700269946434642465B1883
:103CD0009E5716554A4600261A707B183A579E572B
:103CE0003E551A700134A542E1D1AB46099A01272D
:103CF00053425A4107230793063B9C4605927B009B
:103D00009A46002398467F339946002351460693EE
:103D1000099B002B03D143465B425BB29846059B4F
:103D2000002B05D04B465B10994643465B109846E6
:103D3000049B069A1D00089B92461E00554456445B
:103D4000934557DD4B46029343468A460193F3570A
:103D50000198EA57584302998011514302ACE0712F
:103D6000E079891149B240B28046481081466046E8
:103D70000140404649444010091A89464046614680
:103D8000084001004846411A0298C9B243430198CD
:103D90009B115BB24243581080466046921152B26A
:103DA00003405010434480466046434402409B1801
:103DB0000022AA56059890460022DBB2B25600288F
:103DC00003D04046401080465210404602ACE0719D
:103DD000E079D2B28046401AE8554144D01A9B1887
:103DE000F05529703370049B55445644EB1A9B459B
:103DF000ADDC5146069B013306939F420CD0079BD6
:103E0000069A9A400F4B9B1840331B785BB2994639
:103E10000C4B9B5698467BE7079B0F00013B079393
:103E20008B4500DD6BE700200BB03CBC904699460B
:103E3000A246AB46F0BD012BF5DD57E7012040421D
:103E4000F2E7C046E0F10000F0B55F464446564652
:103E50004D468B46F0B483B080460322002101A872
:103E600004F039FF5B46002B00D118E1994B9946CD
:103E700001234A46137000210020FDF773FE012242
:103E800000210020FDF7E4FD092200210020FDF7BC
:103E9000F9FD0121052000F009FB00210020FDF7BC
:103EA00061FE0A2003F0B0F88B4C012122002300B0
:103EB000A0321960596008339A42FAD121000023D8
:103EC000C83108C28A42FCD100234D279A469C463D
:103ED00001254E4653466046022B05D043465246C6
:103EE000985C634643409C463B003900183B1939B7
:103EF000DBB2C9B2B1460BE00026033315514008CE
:103F00008A00DBB203311651C0B2C9B29F4215D04C
:103F10002E00DA1ED2B29200A5509A1ED2B20640EE
:103F20009200002EE8D10333165140088A00DBB21C
:103F300003311551C0B2C9B29F42E9D101234E46A7
:103F400099461837FFB2CA44952FC3D1F4220021F5
:103F50005200A3500432A1500432A3505F4A002003
:103F6000D37EB146DBB21375FDF7F2FC02F01AFF07
:103F70001E30050004E002F015FF854200D28CE0FF
:103F80000020FDF711FD0028F5D04B461D780400F8
:103F9000012D07D0200003B03CBC90469946A246B4
:103FA000AB46F0BD01210020FDF7DCFD0022012120
:103FB0000020FDF74DFD012201210020FDF796FDB7
:103FC000002201210020FDF75DFD0021052000F009
:103FD0006DFA012042490D608A68414B1042FBD1C5
:103FE000012204201A711A0091683D4B0842FBD14E
:103FF0003C4A1A603C4A1A62022219680A430321A9
:104000001A609A68364D1142FBD10120FDF7A0FCE1
:104010001E2002F0F9FF02222B6893432B6001322D
:10402000AB681A42FCD10120FDF7B0FC80212F487B
:10403000090203688B424BD8021D012304E00133BF
:10404000DBB20432802B28D015688D42F7D9662B5D
:1040500023D80133DBB200229046C026803AA44622
:1040600091464446B6006A461F0004320837125D86
:10407000FFB206E049460A43D2B20133DBB2BB428B
:1040800012D0990041581A4D52084D19B542F1D934
:10409000184DA8464144B142EFD900247AE75A4668
:1040A0000C4B99461A70E6E6694604310A5501340C
:1040B000032CD8D16B466A46197992795B796446AC
:1040C0004B409A42E9D16B465A469B88138061E780
:1040D0000123C0E7CC170020CC1500200038004297
:1040E000002C00420001000328800300CC130020B4
:1040F00000DCFFFF00EFFFFF0222014B5A61704717
:10410000002800400023F0B583B001AD2B8043B2FE
:1041100006000F00002B28DB80236A465B42034326
:1041200013706B4600245970013429006846E4B2CC
:10413000FFF78AFE002802D02B78B3420CD0032C64
:10414000F2D1002400F06AFF002000F041FF00F0EF
:104150001DFF200003B0F0BD6B78BB42EFD1002300
:104160000222A2425B41DCB2ECE70124F1E7C04647
:1041700070B582B000236A460E00002401AD1380A2
:104180002B801070013429006846E4B2FFF75CFE12
:10419000002804D06B461A782B789A420CD0032C56
:1041A000F0D1002400F03AFF002000F011FF00F0F1
:1041B000EDFE200002B070BD6B7802223370002348
:1041C000A2425B41DCB2EDE7802170B54D4AC901E6
:1041D000D36901200B43D3614021FC234A4A84B0B8
:1041E000D1504A49FB3B0A6813430B600B69474AAD
:1041F0000340FBD14649116053710133FF33D38033
:104200006A3BD3761168943B0B4313600223146915
:1042100002251C40FBD16B466A469D722123D37256
:104220003C4B012600933C4B694601937D230020C3
:104230001381967354731473FDF728FB6B466A461B
:104240009D721A23D372354B69460193344B01207A
:10425000009380239473138156731473FDF716FB38
:1042600040218823284AD1508021264AC900536919
:104270000B4353612B4B1A7892073AD401211E70DD
:104280005A681142FCD1274B5A78D2B25A70022296
:10429000996811439960996911439961196B0A43AF
:1042A0001A635A6B5A635022D9690A43DA611A6A4F
:1042B0001A62022219780A4302211A705A681142BE
:1042C000FCD180210F4B0901DA69F4200A43402117
:1042D000DA610D4A11505C381150DA693F390A43EE
:1042E000DA618423104ADB051A62D022995004B0A7
:1042F00070BD02211A78AA431A705A681142FCD183
:10430000C1E7C04600080040001C004000380042E1
:10431000040500001C000041CC150020482C004280
:10432000CC130020002800400F8E000010B582B092
:1043300001F0A8FE254B1860FDF788FBFDF7B6FCE1
:10434000FDF770FA0320FDF7FBFD00F091F800F097
:1043500065FE002000F03CFEFFF736FF01F06CF830
:10436000FEF7A8F8FEF722FE01F0E8FD01F046FD99
:1043700000F0AEFDFFF71AFC00F0E8FD002301930A
:1043800002330093C82200231149124802F0EEFBC9
:10439000114BFA2201930323520000930F4900238B
:1043A0000F4802F0E3FB01230E4C64220E490093F8
:1043B000019400230D4802F0D9FB206802F072FE40
:1043C000002002F06FFE02B010BDC046B43C0020D9
:1043D000A0F20000F1430000AC3C0020ACF2000071
:1043E000F5360000B03C0020B8F20000ED5D0000A2
:1043F00010B50024012002F007FE02F0D3FCA04219
:10440000F8D3F534FF3400F077FD00280AD100F02E
:1044100061F800F077FD00280CD00121012000F0A8
:1044200045F8E7E70121002000F040F800F06AFDC0
:104430000028F2D10021012000F038F8DAE7C04668
:1044400000B583B0FDF744F90023962201930533AC
:104450000093520000230449044802F087FB02F055
:1044600069FC002003B000BDC4F200002D43000031
:10447000F8B50D4F11243D1D0026183702E02E78A7
:104480006C880435E4B221003000FDF76BFB01229B
:1044900021003000FDF7DCFA092221003000FDF791
:1044A000F1FABD42EBD1F8BDD0F2000010B50528FD
:1044B00008D8074B80001A18002904D09178C05CF6
:1044C000FDF746FB10BD9178C05CFDF74BFBF9E7AB
:1044D000D0F2000010B5052806D8044B80001A1849
:1044E0009178C05CFDF748FB10BDC046D0F20000DB
:1044F000F0B5564644465F464D46F0B4DBB09246B2
:104500000700039101F03AFDD04B022298461D00AE
:10451000CF4E002409E00134E4B214352D2C13D021
:104520002E68300005F0B3FA02003100380005F0C3
:10453000B5FA0028EFD142465146A60033199B0038
:10454000D218127C0A4214D1C249039C200005F003
:1045500096FA200005F09BFAA44602226044BE4968
:1045600004F0B0FB5BB03CBC90469946A246AB461B
:10457000F0BD4246985805F08AFA0500380005F06B
:1045800086FAEAB283B29A4208D305042D0C7D194B
:104590002C2C00D9DEE3B14B9B599F46FF231D40D5
:1045A0007D19F5E73419A40023004344596806AA8D
:1045B000280005F02DFA012801D100F040FCA8499F
:1045C000C3E73419A40023004344596806AA28000D
:1045D00005F01EFA0128F2D1A24B069A9A422DD07C
:1045E000A149B2E73419A40023004344596806AA3C
:1045F00007AB280005F00CFA0228E0D1964C039D89
:10460000280005F044FAAC4602226044210004F080
:1046100059FBA7E73419A40023004344596806AAAC
:1046200007AB280005F0F4F90228C8D1079B99B21E
:10463000069BD8B2FEF736F9002813D08B4984E7E1
:104640003419A40023004344596806AA280005F041
:10465000DFF90128B3D1069B0021D8B2FEF70AFA90
:104660000028EBD1824970E73419A40023004344A9
:10467000596806AA280005F0CBF901289FD1069BAE
:10468000D8B2FDF78FFF002899D078495DE7FDF794
:104690009FFE002800D1C6E0280005F0F8F902A925
:1046A0000F228C4643086244DBB291461370082BFC
:1046B00000D8D0E30823137000239B469A460CAF22
:1046C0005346E85C01F076FC5B460001F854534623
:1046D0000133DBB2E85C01F06DFC5B46FB5C184328
:1046E0005B46F85453460233DBB29A465B460133CD
:1046F000DBB29B464B461B785B45E1D83B720023FF
:104700000FAD2900380099462B72FDF7BBFD00283C
:10471000A8D04B4612AF3B702B7A002B0ED04B46E5
:10472000E85C01F053FC0100380005F09BF94B46B2
:104730000133DBB299462B7A4B45F0D83419A400EB
:104740002300434499683A00039805F03FF9424C2E
:1047500055E7FDF731FF002884D04449F5E6FEF720
:1047600059F84249F1E63419A4002300434459683A
:1047700006AA280005F04CF9012800D01FE706988A
:104780003C4B984200D91AE780B2FDF709F8324C49
:1047900035E73419A400444406AA6168280005F0EE
:1047A00037F9012800D00AE70698022800D906E761
:1047B000A46800D15AE3C0B2FDF71EFE0FE1341920
:1047C000A40023004344596806AA280005F020F9F4
:1047D000012800D0F3E6069B002B00D04DE300F04B
:1047E00077FB2249B1E63419A400230043445968F9
:1047F00006AA07AB280005F00BF9022800D0DEE678
:104800000698052800D9DAE6079BC0B2002B00D035
:1048100026E30021FFF74AFE144996E6FDF7D8FD8E
:10482000002800D0F0E214498FE63419A4002300D8
:1048300043449C68FFF724F804F0A0F902000B0041
:104840000398210005F0C2F8D8E6C046CCF4000079
:10485000E4F30000B0FE0000BCEF0000E8F200004E
:1048600034FC0000D204000038FC000078FC00009A
:10487000F4F80000FF030000BCF40000FDF7A8FD01
:104880000028D0D002AA0F239446634419000120C7
:104890009946FDF767FC002800D1E3E63419A4002F
:1048A000230043449C684B461878FFF739F8C3E768
:1048B000FDF73AFA08903419A40004F05FF92300D8
:1048C00043449C68BAE73419A40023004344596860
:1048D00008AA280005F09CF8012800D06FE6089887
:1048E00000F020FB002800D0A8E6DF492DE63419AF
:1048F000A40023004344596806AA280005F088F85C
:10490000012800D05BE6069BD8B2FDF721FD002808
:1049100000D093E6D54918E6FDF75AFD002800D1EE
:1049200081E702AA0F2394466344190000209946A8
:10493000FDF718FC002800D194E63419A4002300E8
:1049400043449C684B461878FFF75AF874E7FDF724
:104950003FFD002800D166E7FDF7ACFC002800D041
:104960006CE6C349F1E5FDF733FD002800D15AE7B5
:1049700002AA0F2394466344190002209946FDF7CA
:10498000F1FB002800D16DE64B4608A91878FFF727
:1049900041F8002800D165E608988CE73419A40096
:1049A00023004344596806AA07AB280005F030F8F5
:1049B000431E012B00D902E6012800D162E20799CB
:1049C0000698FDF7E3FC002800D037E6A649BCE5D1
:1049D0003419A400230043449C6801F013FB020037
:1049E0002100039804F0F2FF08E63419A400230024
:1049F0004344596808AA280005F00AF8012800D0A5
:104A0000DDE5089C9B49201C03F0EAF8002800D053
:104A1000D5E5FEF76FFF011C201C03F0A3FB964CAD
:104A2000011C0990206803F067FD20602000FFF75B
:104A30006BF8FFF785F8914987E500210220FDF723
:104A4000F1FC8F4B069018801800FFF75DF8FFF718
:104A500077F88A4979E5FDF7BBFC002800D1E2E64A
:104A60003419A400444406AA6168280004F0D0FF69
:104A7000012800D0A3E502AA0F2394466344994677
:104A8000069B494698B2FDF71FFB002800D1E9E5D7
:104A90004B46A1681A78039804F098FF794CAEE56C
:104AA000FDF796FC002800D1BDE63419A40044446B
:104AB00008AA6168280004F0ABFF012800D07EE559
:104AC00009A90898FDF7A2FA002800D1CAE50998BB
:104AD00004F054F802000B000398A16804F076FF7C
:104AE000684C8CE53419A400230043449C68FEF70D
:104AF00001FFA1E63419A40023004344596806AA23
:104B0000280004F085FF012800D058E5069BD8B2A4
:104B1000FDF700FC002800D090E5534915E5341955
:104B2000A40023004344596806AA280004F070FF3B
:104B3000012800D043E5069BD8B2FDF7CDFB002845
:104B400000D07BE5494900E5FDF742FC002800D193
:104B500069E606A8FDF75EFB002800D182E5E121A9
:104B6000069D0901280002F039FF08003C2102F0EF
:104B7000AFFEE121341982460901A400280002F0A9
:104B8000A7FE2300070043443C2128009C6802F054
:104B900025FF534600913A002100039804F016FFC8
:104BA000384C2CE53419A40023004344596806AA64
:104BB000280004F02DFF012800D000E5069B98B2E4
:104BC000FDF79CFB002800D038E52849BDE4FDF73F
:104BD000FFFB002800D126E61AA8FDF707FB0028F6
:104BE00000D13FE53419A4002300434499681AAA70
:104BF000039804F0EBFE234C01E5FDF7E9FB0028E8
:104C000000D110E63419A40023004344596808AACF
:104C1000280004F0FDFE012800D0D0E40898FDF73C
:104C2000C7F9002800D009E511498EE43419A40021
:104C30002300002043449C68FEF7A0FEFCE5802191
:104C4000114C49002000FDF727FC80220F4D520037
:104C50000021280004F03FF829000023082220004A
:104C6000FFF708F8054970E434FC0000BCF40000CC
:104C7000F4F80000CDCCCC3DA43B002078FC000033
:104C8000A83B0020BCEF0000D0180020D017002067
:104C9000FDF79EFB002800D1C5E508A8FDF7E8F95F
:104CA000002800D078E679494FE40023039A02A94E
:104CB00013708C460F2234196244A4001370230031
:104CC0009146002543449E68714C12AF2800FDF7C1
:104CD00087FB2A0003003100380004F077FE38001B
:104CE00004F0D5FE02222100381803F0EBFF390052
:104CF000039804F0B7FE4B461D780135EDB21D70E8
:104D0000032DE3D97BE402AA94460F23634499461A
:104D100000234A461370FDF75BFB002800D094E0A7
:104D20004B461A78012313434A46137000F0EAF801
:104D30004B461A78002803D002231A434B461A70B8
:104D40003419A400230043449968039804F03EFEFC
:104D50004F4C54E44F4B1A68F2E73419A400210079
:104D60004D4A4144537889681278039804F02EFE26
:104D7000474C44E43419A400230043449C68FEF7E4
:104D800025FE59E533199B004344596806AA2800BB
:104D900004F03EFE012800D011E40AAD2900069877
:104DA000FDF760FB002865D002A90F228C46002386
:104DB0006244914612AF3B701370E85C01F006F953
:104DC0000100380004F04EFE4B464A461B78013382
:104DD000DBB21370072BF0D9B0E43419A400230020
:104DE0004344596806AA280004F012FE012801D0A5
:104DF000FFF7E5FB294B069A9A4201D0FFF7DFFB4C
:104E0000FDF7C6F8FFF7FAFB3419A400230043446A
:104E1000596806AA07AB280004F0FAFD022801D061
:104E2000FFF7CDFB079BD9B2069B98B2FDF772F94D
:104E3000002801D0FFF702FC1449FFF786FB069813
:104E400002F0E2F81649FFF780FB00F055F8002861
:104E500000D165E76AE70CAF002B00D02CE44DE4ED
:104E60000121FFF723FB0E49FFF76FFB0021FDF740
:104E7000D9FAB4E50B49FFF768FB00F015F80849CB
:104E8000FFF763FB00230021079399E5F4F8000086
:104E9000BCEF00001C000020D4FE0000D204000083
:104EA00078FC000028FD000010B501210220FFF76A
:104EB000FDFA01210320FFF7F9FA00210320FFF793
:104EC000F5FA0122014B1A7010BDC046D01900201E
:104ED00010B500210220FFF7E9FA01210320FFF7B6
:104EE000E5FA00210320FFF7E1FA0022014B1A70D6
:104EF00010BDC046D0190020014B18787047C0463D
:104F0000D019002010B5064B1878002806D01021C3
:104F10000020FCF73BFE01235840C0B210BDC04644
:104F2000D019002010B50849041C02F06DFE0023C2
:104F3000002806D1201CFEF7FDFC80B2FCF730FCF7
:104F40000123180010BDC0460000A04110B500228A
:104F500010210020FCF77CFD022210210020FCF72C
:104F6000C5FD012202210020FCF772FD0122022171
:104F70000020FCF787FDFCF7E9FB0348FEF7DAFCAD
:104F800080B2FCF70DFC10BD0000A04010B504225B
:104F900000210020FCF776FD01210520FFF786FAAD
:104FA00010BDC04610B5092200210020FCF76AFDA3
:104FB00000210520FFF77AFA10BDC04610B500F0B9
:104FC00067FF00F045FF00210520FFF76FFA10BDD5
:104FD00010B5104902F050FF02F076FE002807DB02
:104FE000C8225A2806DD00210B48FCF74DFE10BDF3
:104FF0006422F8E7FA239B0058435A2102F0F2FC9E
:10500000FA239B009C460A21604402F0EBFC82B22A
:10501000E9E7C04600003442002C004210B5044CC1
:1050200064212000FCF7C0FD2000FCF723FE10BD2A
:10503000002C0042002310B582B00193164B1A7E5B
:10504000520705D537215A8B0A4003D07F225A8355
:1050500002B010BD7F211B8D0B400D2BF8D00F48E7
:105060000F4C017863540131C9B201701B2B10D071
:105070000A2BEDD10B4B6254027001A9186802F0A3
:1050800003FA019B002BE3D08022074B52051A60E4
:10509000DEE70270DCE7C04600040042D1190020C0
:1050A000B83C0020AC3C002004ED00E070B50029C5
:1050B0000BD004000139CDB20135451921780348E0
:1050C0000134FCF72DFFAC42F8D170BD0004004262
:1050D0008022024B92001A607047C04600E100E057
:1050E00080218023034A8900D150BFF34F8FBFF343
:1050F0006F8F704700E100E0F8B5160007000D0063
:1051000001F050FE3618002D17D00D48FCF70EFFA9
:10511000041E05D101F046FE8642F6D22000F8BDFD
:105120000748FCF707FF013D3870ADB2013701F0C9
:1051300039FE8642E7D20024F0E70124EEE7C046BC
:1051400000040042002310B582B001930093E123D4
:105150000C4C5B02200000220121FCF703FE03221D
:1051600004210020FCF78EFC032205210020FCF71F
:1051700089FC04238022A375034B92001A6002B0BD
:1051800010BDC0460004004200E100E0002310B55D
:1051900082B001931B4B1A7E52071FD537215A8BC1
:1051A00011421DD1184C188D2300C0B2611D5A78D0
:1051B0001A7001338B42FAD1607104222100134826
:1051C000FEF73CFC2279030ADBB293420BD0019B31
:1051D000002B03D080220E4B52051A6002B010BD86
:1051E0007F225A83FAE76379C0B28342EFD1226803
:1051F000084B01211A60084B01AA186801F00CF84D
:10520000E5E7C046000C0042D8190020FFFF00006F
:1052100004ED00E0E4190020B43C002010B50100CA
:105220000148FCF749FE10BD000C004210B501001A
:105230000148FCF761FE10BD000C00420022024B49
:105240001A7604329A757047000C00420422014B12
:105250001A757047000C004270B5114A0D00114BD1
:10526000516804000B4053600A210020FCF770FCD9
:10527000002D0AD0013DEDB20135651921780848AD
:105280000134FCF74DFEAC42F8D10A210020FCF7B6
:1052900069FC8021024A890253680B43536070BD48
:1052A000000C0042FFFFFDFFF8B5140007000D00E1
:1052B00001F078FD2418002D12D0013DAEB2013668
:1052C000BE19094D03E001F06DFD84420AD32B7E27
:1052D0005B07F8D5044B1B8D3B700137B742F6D105
:1052E000012000E00020F8BD000C0042044B1A7EB3
:1052F000520703D51A8D1A7E5207FBD47047C04659
:10530000000C004270B58AB205000C000100044890
:10531000FEF794FB030A2B552C19607070BDC04634
:10532000FFFF0000F0B557464E4645469846204BD5
:10533000E0B48A4605001600032499461D4F82B04A
:10534000290004221C48FEF779FB030A68712B71BF
:1053500006212800FFF780FF002E1CD04346009353
:10536000012200230121386800F098FEC30703D50D
:105370004B461B78534510D0104A013C1368E4B2E9
:1053800001331360002CDBD1002002B01CBC90461E
:105390009946A246F0BD0120F7E7042249463000B5
:1053A00003F090FC064A0120136801331360ECE718
:1053B000E4190020B43C0020FFFF0000E0190020A9
:1053C000D4190020F0B5474605000E00904603248E
:1053D00080B4164F82B0290004221548FEF72EFB38
:1053E000030A68712B7106212800FFF735FF002E94
:1053F00012D043460093012200230121386800F0B7
:105400004DFEC3070AD4013CE4B2002CE3D10020D6
:1054100002B004BC9046F0BD0120F9E70422054922
:10542000300003F04FFC0120F2E7C046B43C0020FE
:10543000FFFF0000E4190020002310B582B00193A3
:105440000093E123174C5B02002220000321FCF7AC
:1054500089FC0A210020FCF785FB01220A2100209B
:10546000FCF7F6FA09220A210020FCF70BFB0322C5
:1054700008210020FCF706FB03220B210020FCF78B
:1054800001FB0423C221C020074AA3758900535899
:1054900000061B021B0A0343535080231B011360A9
:1054A00002B010BD000C004200E100E000231F2804
:1054B00002D8024B18700123180070471800002012
:1054C000014B18787047C0461800002010B51749E6
:1054D000041C02F085FB002815D11549201C02F0A0
:1054E00093FB8E230722002810D0762111480170EB
:1054F000114982700978C37041700A230F4A5621FE
:10550000FFF710FF10BD7223F822EEE78A21201C5E
:10551000C90502F0F1FF0A4902F024FE03F086FA01
:1055200003B29AB2120ADBB2DFE7C04600002AC318
:1055300000002A43F419002018000020EC19002074
:105540000000344370B50C002449051C02F048FBF0
:1055500000282DD12249281C02F056FB8E23072259
:1055600000282CD076211F481F4E01701F498270E1
:105570000978C37041700A2332005621FFF7D2FE2A
:10558000051E13D0B078F37800021818184B0005E8
:10559000000D98420FD800B203F06AFA154902F0E4
:1055A000ABFFE821890502F0A7FF2060280070BD4D
:1055B0007223F822D6E7F0231B021843EBE78A2177
:1055C000281CC90502F098FF0A4902F0CBFD03F040
:1055D0002DFA03B29AB2120ADBB2C3E700002AC363
:1055E00000002A43F4190020EC19002018000020C4
:1055F000FF0700000000344370B51D49051C02F090
:10560000EFFA002816D11B49281C02F0FDFA1E24CF
:10561000002811D0DD2318480370184B1B78437005
:1056200001230134C370164A0A2344218470FFF712
:1056300079FE70BD0024EDE71249281C02F01CFC25
:10564000114902F059FF114902F016FC03F0EEF97E
:10565000DD2502B2D3091C407F230748D1B2057073
:10566000064D0B402D78C17045701206DAD5D8E78B
:105670000000C8C20000C842F41900201800002031
:10568000EC190020000034429A999941003094446A
:1056900070B50E002749051C02F0A2FA00282BD194
:1056A0002549281C02F0B0FA1E24002826D0DD234C
:1056B00022480370224B1B7843700123013484700D
:1056C000204CC37022000A234421FFF72BFE051E45
:1056D00010D0A078E378C001181800B203F0C8F920
:1056E000194903F01DF8194902F03CFD184903F06F
:1056F00017F83060280070BD0024D8E71449281C32
:1057000002F0BAFB134902F0F7FE134902F0B4FBB2
:1057100003F08CF9DD2502B2D3091C407F23074832
:10572000D1B20570064D0B402D78C1704570120640
:10573000C5D5C3E70000C8C20000C842F419002064
:1057400018000020EC19002000209444D8829941D0
:10575000000034429A99994100309444692370B50D
:1057600004001548154E0370154B32001B78492173
:10577000437000238370C3700A33FFF7D3FD051E07
:1057800013D0B078F378000218180E4B0005000D06
:1057900098420CD800B203F06BF90B4902F0ACFE52
:1057A000E821890502F0A8FE2060280070BDF023E2
:1057B0001B021843EEE7C046F4190020EC19002044
:1057C00018000020FF07000000003443922370B54A
:1057D00006001148114C0370114B22001B78622106
:1057E000437000238370C3700A33FFF79BFD051ECF
:1057F00010D0A078E378C001181800B203F038F98F
:10580000084902F08DFF084902F0ACFC074902F09C
:1058100087FF3060280070BDF4190020EC190020CB
:105820001800002000209444D8829941000034429E
:10583000D22370B506001148114C0370114B2200A1
:105840001B788221437000238370C3700A33FFF7F3
:1058500069FD051E10D0A078E378C001181800B2C9
:1058600003F006F9084902F05BFF084902F07AFCF0
:10587000074902F055FF3060280070BDF419002080
:10588000EC1900201800002000209444D88299418F
:1058900000003442F8B50F00134CFF281CD9E9234F
:1058A00049262370114B1B786370002A10D0C0B2B8
:1058B000A0700F4DE0700A232A0031002000FFF78E
:1058C00031FD002803D02B78B34209D00020F8BD69
:1058D000030AA370C0B2ECE7F823F8262370E1E7CF
:1058E000EB783B70F3E7C046F41900201800002065
:1058F000EC190020F0B54746FF2380B41C4C1D4E28
:10590000237033781C4D63704123A370023B070062
:105910008846E3702A00353BFF212000FFF702FD97
:10592000002802D0AB78412B03D0002004BC904665
:10593000F0BDEB78452BF8D1FF2F15D8F923F921CD
:1059400023703378FFB2637043462A00E37020006F
:105950000A23A770FFF7E6FC0028E6D0A078C01B5A
:1059600043425841C0B2E1E7B5332370FA21E8E77A
:10597000F419002018000020EC190020F0B5FF23D6
:1059800047463F4C80B42370E03B63703D4D22336B
:10599000A370023B06000F00E3702A00353BFF2195
:1059A0002000FFF7BFFC002802D0AB78412B03D0CA
:1059B000002004BC9046F0BDEB78452BF8D1731E57
:1059C000FF3B2F2B16D93300313BFF3B2F2B26D823
:1059D0003000D72330382370C3B29846872143461E
:1059E0002A00E37020000A23A770FFF79BFC002821
:1059F0000ED1DDE7D6232370F3B29846E3702A0078
:105A00000A2386212000A770FFF78CFC0028CFD046
:105A10004346E078C01A43425841C0B2C9E7330058
:105A2000613BFF3B2F2B18D83000D8236038237000
:105A3000C3B298468821FF2ED1D8F6B20A232A0095
:105A40002000A670E770FFF76DFC0028B0D0A078AA
:105A5000801B43425841C0B2ABE79023FF339E42C4
:105A600007D93000B63B70302370C3B29846892105
:105A7000E1E7F92323700023F9219846DBE7C046CC
:105A8000F4190020EC190020F8B5B02306000F48E7
:105A90000F4D03700F4B0F001B782A00437000233B
:105AA00030218370C3700A33FFF73CFC041E03D01F
:105AB000012E03D0AB783B702000F8BDA8781421EC
:105AC000C00001F005FF3870F6E7C046F419002069
:105AD000EC19002018000020F8B5B1230600114889
:105AE000114D0370114B0F001B782A0043700023E7
:105AF00031218370C3700A33FFF714FC041E03D0F6
:105B0000012E03D0AB783B702000F8BDA878C821E7
:105B10008300C0184301C01880B201F0D9FE38706C
:105B2000F2E7C046F4190020EC190020180000200C
:105B3000F8B506000F001A48042E1BD0C0230370CE
:105B4000184B194D1B782A004370002310218370D5
:105B5000C3700A33FFF7E6FB041E1BD0012E1BD1D6
:105B6000FA21A878114B8900584301F0B1FE387032
:105B70002000F8BDA02303700A4B0B4D1B782A00B0
:105B80004370002320218370C3700A33FFF7CAFBE0
:105B9000002801D10024EBE7AB7801243B70E7E754
:105BA000F419002018000020EC1900207A020000EF
:105BB000F0B547460023F42280B41C4C03702270D9
:105BC0001B4A1C4E127880466270FF22E370A2705E
:105BD0000A33320014212000FFF7A4FB002816D05E
:105BE0000025F778AF4205D114E0A378AB4213D07B
:105BF000AF420FD90A23320014212000A570FFF70D
:105C000091FB0028F1D1002000234246137004BC10
:105C10009046F0BD0120F7E74246E3780135137066
:105C200001239C46EDB2E044DCE7C046F4190020B5
:105C300018000020EC190020F0B54746C22380B4BC
:105C4000194C1A4D23701A4B06001B782A006370FA
:105C500000231221A370E37020000A33FFF762FBD8
:105C6000002803D1002004BC9046F0BDAB78EF784B
:105C7000984601232A00E370122109332000FFF720
:105C800051FB0028EED0E121434609010A001B0226
:105C9000A978DB195A430B015B1AE9789B005B1862
:105CA0009B183360DFE7C046F4190020EC19002090
:105CB0001800002070B50B4C04220E0001002000DB
:105CC00003F000F8084D20000A222900FFF77AFBB4
:105CD000041E04D004222900300002F0F3FF20004B
:105CE00070BDC046F4190020EC190020FF2370B5E8
:105CF000134C144E23703378134D63704123A370FB
:105D0000023BE3702A00353BFF212000FFF70AFB2E
:105D1000002803D0AB780020412B00D070BDEB7879
:105D2000452BFBD1543323703378A0706370E0703F
:105D30000A232A004C212000FFF7F4FAEEE7C046C0
:105D4000F419002018000020EC190020F8B5464690
:105D50004F46C0B41B4E19220021300002F0BBFF99
:105D60000F233370083B002401259846164F0B2162
:105D7000200001F0ADFDC0B240003B5A0B21994616
:105D8000200001F02BFE4B46C9B2CB401D4208D08B
:105D90004246290022409140E3080133F25C0A4365
:105DA000F2540134E4B2B02CE1D1084B04201B784A
:105DB000F37500233376FBF7CBFD0CBC9046994678
:105DC000F8BDC046FC190020181A0020381A00201F
:105DD00010B500F04DF800210420FEF767FB024BE0
:105DE000186801F05FF910BDB03C002010B5142018
:105DF00001F00AF9FFF7AAFFF9E7C046104B0022AD
:105E0000190000B5203185B01A8002338B42FBD1D6
:105E100003220C4B69461A7000228A720522CA724C
:105E2000094A00230192094A0420009201228A7340
:105E300019224B730A810B73FBF728FD05B000BDD7
:105E4000181A0020381A0020FC19002028080042E7
:105E500010B5032200210020FBF714FE03220121CC
:105E60000020FBF70FFE01210420FEF71FFB10BDF1
:105E700010B5092200210020FBF704FE09220121B0
:105E80000020FBF7FFFD00210420FEF70FFB10BDF3
:105E900010B501000148FCF70FF810BD00080042E2
:105EA00070B5114A0D00114B516804000B4053604E
:105EB00001210520FEF7FAFA002D0AD0013DADB20E
:105EC00001356519217808480134FCF729F8AC42FE
:105ED000F8D100210520FEF7E9FA8021024A890263
:105EE00053680B43536070BD00080042FFFFFDFF85
:105EF000F8B5160007000D0000F054FF3618002D0D
:105F000017D00D48FCF712F8041E05D100F04AFF27
:105F10008642F6D22000F8BD0748FCF70BF8013D99
:105F20003870ADB2013700F03DFF8642E7D2002461
:105F3000F0E70124EEE7C04600080042002300B568
:105F400083B00193013300930022034B01210348E6
:105F5000FBF708FF03B000BDA08601000008004267
:105F60000300613B052B06D93038C3B20020092B52
:105F700000D8180070475738C0B2FBE7037830B537
:105F8000002B14D002000A4D032404E013700132E8
:105F90001378002B0BD02968C918497821400229B1
:105FA000F4D1203B137001321378002BF3D130BDB4
:105FB000240000200300413B10B5052B02D9FFF758
:105FC000CFFF10BD3738C0B2FBE7C046030002095F
:105FD0000B48092A0AD9373202700F221340092BC5
:105FE0000AD8303343700023837070473032027018
:105FF0000F221340092BF4D937334370F3E7C0461F
:106000003C1A002001207047FEE7C0461648174999
:1060100010B588420DD0164B99420AD2CA43D31804
:1060200000229B0801339B0084588C5004329A4212
:10603000FAD11049104B99420BD2CA430020D31811
:1060400000229B0801339B008C18043220609A4286
:10605000FAD1FF21094B0A4A8B43936002F00CFEF0
:10606000FEF7EEF9FEE7C046A403010000000020A1
:10607000C4000020D0000020BC3D00200010000023
:1060800000ED00E010B51C2000F0EEF9041E03D076
:10609000002308C000F0CAF8200010BDF0B54F463C
:1060A0000D0080B41600071E994607D00B0E01D0D4
:1060B00072B6FEE7002903D172B6FEE772B6FEE7BC
:1060C00001F060F9002802D1069B002B36D100F0C8
:1060D00061FE4B463C68002B0CD12C420ED0002EAA
:1060E00002D02300AB433B6000F00AFF200004BC59
:1060F0009146F0BD23002B409D42F0D0069B002B23
:10610000F2D031004B1E99414B460906002B02D0BC
:106110008023DB0419432943381D069A01F03AF81D
:1061200000F0EEFE002801D100F03CF901F070F91A
:106130000400830104D52402240AD7E772B6FEE7DF
:1061400000F03CF94B463C68002B09D12C4204D0AE
:10615000002E02D02300AB433B6000F03BF9EAE79E
:1061600023002B409D42F8D1F2E7C046F8B54D46DA
:1061700044465F465646F0B404000D00002803D0A4
:106180000B0E03D072B6FEE772B6FEE7060000F013
:1061900001FE2168206929430C362160864229D0FE
:1061A0008023DB04994680235B04984680239B046C
:1061B00000259B460DE0194208D047463A4200D0E0
:1061C0001D435B46194301F05DF821685046564572
:1061D0000ED04F46436802689A4613021B0A3A42A1
:1061E000E9D00F001F40BB42E7D050465645F0D1E2
:1061F000ED4301E001256D420D40256000F080FE79
:1062000020683CBC90469946A246AB46F8BDC046C5
:1062100010B5FFF7ABFF10BD10B513000A00010069
:10622000014801F041FB10BD116200000300012292
:1062300008334360C36003610023524282600360FD
:106240007047C046002303617047C04643684B60F7
:106250009A688A609A68516099600861036801339E
:1062600003607047020030B50C680832631C01D12E
:106270000DE01A0053681D68AC42FAD24B60996079
:106280008A605160086103680133036030BD0269B0
:106290005368F3E7426881680369916082684168E6
:1062A00051605A68904206D0002202611A68013A91
:1062B0001A601868704782685A60F5E7002382B058
:1062C0000193064B1B68013301D072B6FEE772B62C
:1062D000019B002BFCD002B07047C046200000207C
:1062E0000B4A13681868203080F30988022080F375
:1062F0001488BFF36F8F3FBCAE4608BC04BC62B6C7
:106300001847C046C046C046C046C046C046C04604
:10631000FC3A002010B58024031F64041C60043B79
:1063200019600349043B1960143B40381A6010BDE2
:10633000BD6200007047C046FF2130B5134B090411
:106340001A6800240A43FF211A601A6809060A43E2
:106350001A600F4B0F4A1C600F4914600F4A104D12
:106360001160072283B01A602C60FFF7B9FF00F0BC
:1063700063FE2B680194013301D072B6FEE772B65A
:10638000019B002BFCD0002003B030BD20ED00E0CD
:1063900010E000E018E000E07FBB000014E000E047
:1063A000200000208022044B52051A60BFF34F8F5B
:1063B000BFF36F8F7047C04604ED00E072B6044A29
:1063C000136801331360BFF34F8FBFF36F8F7047B4
:1063D00020000020054A1368002B01D172B6FEE7A9
:1063E000013B1360002B00D162B6704720000020F3
:1063F000EFF3108072B6704780F310887047C04684
:10640000EFF309800E4B1A6820381060F0C0444644
:106410004D4656465F46F0C008B572B600F00CFE19
:1064200062B60CBC116808681030F0C8A046A946D6
:10643000B246BB4680F309882038F0C81847C046EA
:10644000FC3A002010B5FFF7D3FF040000F0B0FCC9
:10645000002803D08022034B52051A602000FFF76A
:10646000CBFF10BD04ED00E0072370B5040003422C
:1064700001D09C43083400F08DFC0D4A1368002BBA
:1064800010D00C490C480B68E418844208D8A34289
:1064900006D215680C60ED1800F032FD280070BDC2
:1064A0000025F9E70721054B08338B431360E8E724
:1064B000443A0020401A0020F71F0000441A002030
:1064C000002801D072B6FEE77047C04670B51600CE
:1064D000026C0400856B002A08D106681000002EAB
:1064E0002BD1606800F05EFF666026E0002E0ED1C2
:1064F000806802F0E7FB226CA368944662686344FC
:10650000A3603000934218D32368A36015E0C068ED
:1065100002F0D8FB236CE2685B422168D218E2608B
:106520008A4203D2626894466344E3600020022EEC
:1065300003D12B005A1E9341ED1A0135A56370BD9E
:10654000F0B5846C83B001900A00002C0CD0A16BD4
:10655000E36B994201D372B6FEE7A16B00268B4232
:1065600004D8300003B0F0BD72B6FEE7452701A99C
:106570002000E55DFFF7AAFF6DB206006B1C03D09B
:1065800001356DB2E555ECE7636A002BE9D02000D8
:10659000243000F037FE0028E3D00126E1E7C046B2
:1065A00010B5026C0B00002A08D0C1684468891835
:1065B000C160A14203D2180002F084FB10BD016843
:1065C000C160F8E770B50500FFF7F8FE45232E001F
:1065D000EC5C243664B2002C0BDC1CE000212800AB
:1065E000FFF7AEFF00280FD1013CE3B25CB2002BF5
:1065F00011D0AB6C002BF1D16B6A002B0BD03000AB
:1066000000F000FE0028EFD0013C00F0B5FEE3B240
:106610005CB2002BEDD14523FF22EA54FFF7DAFEEE
:10662000FFF7CCFE4423EC5C64B2002C19DD2B692F
:10663000002B16D02E00103607E0013CE3B25CB20E
:10664000002B0ED02B69002B0BD0300000F0DAFDB0
:106650000028F2D0013C00F08FFEE3B25CB2002BC8
:10666000F0D1FF224423EA54FFF7B4FE70BDC046C8
:1066700070B504000D0000281BD0FFF79FFE216CB1
:10668000E36B22684B43D0185B1AD3186060A2609A
:10669000E3604422FF230020A063A3540132A354EB
:1066A000002D11D12369002B05D1FFF793FE0120A6
:1066B00070BD72B6FEE72000103000F0A3FD002888
:1066C000F3D0FFF76FFEF0E720001030FFF7AEFDCC
:1066D00020002430FFF7AAFDE7E7C046F8B5060022
:1066E0000D001700002801D172B6FEE708007043C4
:1066F0005430FFF7B9FE041E0CD0002D0CD12060E1
:10670000E663256401212000FFF7B2FF5023E75420
:106710000023A3642000F8BD030054330360EFE7B7
:10672000F0B5574645464E46E0B484B004008A466C
:1067300001921D0000286FD0002900D19DE0022D9C
:1067400000D194E000F01EFE002803D1019B002B35
:1067500000D07EE04423994600239846FFF72EFEA2
:10676000A36BE26B00264527934231D3022D2FD035
:10677000019B002B69D0002E63D0FFF72BFE00F0A9
:1067800009FBFFF71BFE4B46E35C5BB2013354D0C1
:10679000E35D5BB201334DD0FFF71CFE01A902A8F7
:1067A00000F0B4FD002839D1FFF708FEA36BE26BBF
:1067B00093421FD0FFF70EFE2000FFF703FF00F00B
:1067C0009FFB0126FFF7FAFDA36BE26B9342CDD24C
:1067D0002A0051462000FFF779FEA36C002B3AD027
:1067E00029002000FFF7ACFE00283DD1FFF7F2FDA5
:1067F000012019E0FFF7EEFD20000199103000F0B4
:10680000B7FC2000FFF7DEFE00F07AFB0028D8D1AD
:10681000FFF7C8FD0126D5E772B6FEE72000FFF7B7
:10682000D1FE00F06DFB002004B01CBC90469946E0
:10683000A246F0BD4346E355AEE74B464246E2541E
:10684000A6E702A800F056FD97E7FFF7C3FD00207A
:10685000EAE772B6FEE7636A002BC5D02000243059
:1068600000F0D0FC0028C1D0FFF79CFDBEE7E36B31
:10687000012B00D166E772B6FEE7036C002B00D156
:106880005DE772B6FEE7C046F0B54E465746454650
:106890000400E0B48A4616009946002825D0002955
:1068A0003DD04B46022B30D0FFF7A2FDA36BE26B2D
:1068B000070000259A420FD94523E55C4A466DB290
:1068C000514620009846FFF701FE6B1C0FD043464F
:1068D00001356DB2E55401253800FFF78DFD280024
:1068E0001CBC90469946A246F0BD72B6FEE7A36C6A
:1068F000002B19D049462000FFF722FE0235002860
:10690000EAD0002EE8D03560E6E7E36B012B01D03A
:1069100072B6FEE7FFF76CFDA36B0700CCE7036CD4
:10692000002BBED072B6FEE7636A0125002BD3D0E0
:106930002000243000F066FC0028E2D1CCE7C046FD
:10694000F0B557464E464546E0B484B0041E8A462C
:10695000019276D0002900D184E000F013FD0028D8
:1069600003D1019B002B00D07AE0442399460023F9
:106970009846FFF723FDA56B00264527002D3CD147
:10698000019B002B63D0002E02D102A800F0B2FCC4
:10699000FFF720FD00F0FEF9FFF710FD4B46E35C2A
:1069A0005BB2013302D14B464246E254E35D5BB237
:1069B000013301D14346E355FFF70CFD01A902A8BD
:1069C00000F0A4FC00282ED1FFF7F8FCA36B002BED
:1069D00020D1FFF7FFFC20000199243000F0C8FB14
:1069E0002000FFF7EFFD00F08BFA00282BD00126E6
:1069F000FFF7E4FCA56B002DC2D051462000013DFD
:106A0000FFF7CEFDA5632369002B31D1FFF7E2FC30
:106A100001201FE0FFF7DEFC2000FFF7D3FD012679
:106A200000F06EFAE4E72000FFF7CCFD00F068FA12
:106A3000FFF7C4FCA36B002B09D0FFF7CBFC0126AA
:106A4000D6E772B6FEE7FFF7ADFC0126D0E7FFF709
:106A5000C1FC002004B01CBC90469946A246F0BD83
:106A600072B6FEE7036C002B00D176E772B6FEE744
:106A70002000103000F0C6FB0028C7D0FFF792FCC2
:106A8000C4E7C04670B5040016000D00FFF796FC81
:106A90004422A35C5BB2013316D04522A35C5BB2F7
:106AA00001330ED0FFF796FCA36B002B05D120001D
:106AB00032002900243000F08DFB2000FFF782FD1A
:106AC00070BD0023A354EDE70023A354E5E7C046BF
:106AD00010B5034C2368012BFCD9FFF763FCF9E7E1
